{
  "contractName": "BlockTier",
  "abi": [
    {
      "inputs": [
        {
          "internalType": "uint256",
          "name": "tierRangeIn",
          "type": "uint256"
        },
        {
          "internalType": "uint256",
          "name": "additionalIssuanceCapacityIn",
          "type": "uint256"
        }
      ],
      "payable": false,
      "stateMutability": "nonpayable",
      "type": "constructor"
    },
    {
      "anonymous": false,
      "inputs": [
        {
          "indexed": false,
          "internalType": "address",
          "name": "user",
          "type": "address"
        }
      ],
      "name": "tierUpgrade",
      "type": "event"
    },
    {
      "constant": false,
      "inputs": [
        {
          "internalType": "address",
          "name": "user",
          "type": "address"
        },
        {
          "internalType": "uint256",
          "name": "quantity",
          "type": "uint256"
        }
      ],
      "name": "addTicketsBought",
      "outputs": [],
      "payable": false,
      "stateMutability": "nonpayable",
      "type": "function"
    },
    {
      "constant": true,
      "inputs": [
        {
          "internalType": "address",
          "name": "user",
          "type": "address"
        }
      ],
      "name": "getAdditionalIssuanceLimit",
      "outputs": [
        {
          "internalType": "uint256",
          "name": "",
          "type": "uint256"
        }
      ],
      "payable": false,
      "stateMutability": "view",
      "type": "function"
    }
  ],
  "bytecode": "0x6080604052336000806101000a81548173ffffffffffffffffffffffffffffffffffffffff021916908373ffffffffffffffffffffffffffffffffffffffff16021790555034801561005057600080fd5b506040516105923803806105928339818101604052604081101561007357600080fd5b810190808051906020019092919080519060200190929190505050816001819055508060028190555050506104e5806100ad6000396000f3fe608060405234801561001057600080fd5b50600436106100365760003560e01c8063a1a25f8a1461003b578063b518013714610089575b600080fd5b6100876004803603604081101561005157600080fd5b81019080803573ffffffffffffffffffffffffffffffffffffffff169060200190929190803590602001909291905050506100e1565b005b6100cb6004803603602081101561009f57600080fd5b81019080803573ffffffffffffffffffffffffffffffffffffffff169060200190929190505050610340565b6040518082815260200191505060405180910390f35b80600360008473ffffffffffffffffffffffffffffffffffffffff1673ffffffffffffffffffffffffffffffffffffffff16815260200190815260200160002060008282540192505081905550600154600302600360008473ffffffffffffffffffffffffffffffffffffffff1673ffffffffffffffffffffffffffffffffffffffff16815260200190815260200160002054106101df576003600460008473ffffffffffffffffffffffffffffffffffffffff1673ffffffffffffffffffffffffffffffffffffffff16815260200190815260200160002060006101000a81548160ff021916908360038111156101d557fe5b021790555061033c565b600154600202600360008473ffffffffffffffffffffffffffffffffffffffff1673ffffffffffffffffffffffffffffffffffffffff1681526020019081526020016000205410610290576002600460008473ffffffffffffffffffffffffffffffffffffffff1673ffffffffffffffffffffffffffffffffffffffff16815260200190815260200160002060006101000a81548160ff0219169083600381111561028657fe5b021790555061033b565b600154600360008473ffffffffffffffffffffffffffffffffffffffff1673ffffffffffffffffffffffffffffffffffffffff168152602001908152602001600020541061033a576001600460008473ffffffffffffffffffffffffffffffffffffffff1673ffffffffffffffffffffffffffffffffffffffff16815260200190815260200160002060006101000a81548160ff0219169083600381111561033457fe5b02179055505b5b5b5050565b600060038081111561034e57fe5b600460008473ffffffffffffffffffffffffffffffffffffffff1673ffffffffffffffffffffffffffffffffffffffff16815260200190815260200160002060009054906101000a900460ff1660038111156103a657fe5b14156103b95760025460030290506104ab565b600260038111156103c657fe5b600460008473ffffffffffffffffffffffffffffffffffffffff1673ffffffffffffffffffffffffffffffffffffffff16815260200190815260200160002060009054906101000a900460ff16600381111561041e57fe5b14156104315760025460020290506104ab565b6001600381111561043e57fe5b600460008473ffffffffffffffffffffffffffffffffffffffff1673ffffffffffffffffffffffffffffffffffffffff16815260200190815260200160002060009054906101000a900460ff16600381111561049657fe5b14156104a65760025490506104ab565b600090505b91905056fea265627a7a7231582034f474de5f49e0f530469503d3ea7bb053a204646ec8063e1b46a350980909b064736f6c63430005110032",
  "source": "pragma solidity ^0.5.0;\r\n\r\n/* \r\n    BlockTier is one of two components that make up the loyalty program.\r\n    In essence, based on the number of tickets he/she has bought,\r\n    a user can increase the max number of tickets he/she can buy for any event. \r\n\r\n    By default, a user needs to buy 8 tickets to advance to the next \"tier\" and\r\n    each tier increases the max number of ticket by 2.\r\n    These two numbers are set when deploying the contract.\r\n*/\r\ncontract BlockTier {\r\n    address admin = msg.sender;\r\n\r\n    event tierUpgrade(address user);\r\n\r\n    enum tier {\r\n        bronze,\r\n        silver,\r\n        gold,\r\n        diamond\r\n    }\r\n\r\n    uint256 tierRange;\r\n    uint256 additionalIssuanceCapacity;\r\n    mapping(address => uint256) ticketsBought;\r\n    mapping(address => tier) userTiers;\r\n\r\n    constructor(uint256 tierRangeIn, uint256 additionalIssuanceCapacityIn) public {\r\n        tierRange = tierRangeIn;\r\n        additionalIssuanceCapacity = additionalIssuanceCapacityIn;\r\n    }\r\n\r\n    modifier adminOnly() {\r\n        require(admin == msg.sender, \"Only admins can run this function!\");\r\n        _;\r\n    }\r\n\r\n    function addTicketsBought(address user, uint256 quantity) public {\r\n        ticketsBought[user] += quantity;\r\n\r\n        if (ticketsBought[user] >= 3 * tierRange) {\r\n            userTiers[user] = tier.diamond;\r\n        } else if (ticketsBought[user] >= 2 * tierRange) {\r\n            userTiers[user] = tier.gold;\r\n        } else if (ticketsBought[user] >= tierRange) {\r\n            userTiers[user] = tier.silver;\r\n        }\r\n    }\r\n\r\n    function getAdditionalIssuanceLimit(address user) public view returns(uint256) {\r\n        if (userTiers[user] == tier.diamond) {\r\n            return 3 * additionalIssuanceCapacity;\r\n        } else if (userTiers[user] == tier.gold) {\r\n            return 2 * additionalIssuanceCapacity;\r\n        } else if (userTiers[user] == tier.silver) {\r\n            return additionalIssuanceCapacity;\r\n        } else {\r\n            return 0;\r\n        }\r\n    }\r\n}",
  "sourcePath": "C:\\NUS\\IS4302\\BlockPass\\eth-contracts\\contracts\\BlockTier.sol",
  "compiler": {
    "name": "solc",
    "version": "0.5.17+commit.d19bba13.Emscripten.clang"
  },
  "schemaVersion": "3.4.11",
  "updatedAt": "2023-04-14T03:01:32.160Z",
  "networkType": "ethereum",
  "devdoc": {
    "methods": {}
  },
  "userdoc": {
    "methods": {}
  }
}