{
  "contractName": "Event",
  "abi": [
    {
      "anonymous": false,
      "inputs": [
        {
          "indexed": false,
          "internalType": "uint256",
          "name": "eventId",
          "type": "uint256"
        }
      ],
      "name": "eventActivated",
      "type": "event"
    },
    {
      "anonymous": false,
      "inputs": [
        {
          "indexed": false,
          "internalType": "uint256",
          "name": "eventId",
          "type": "uint256"
        }
      ],
      "name": "eventExpired",
      "type": "event"
    },
    {
      "constant": true,
      "inputs": [
        {
          "internalType": "uint256",
          "name": "",
          "type": "uint256"
        }
      ],
      "name": "events",
      "outputs": [
        {
          "internalType": "uint256",
          "name": "eventId",
          "type": "uint256"
        },
        {
          "internalType": "string",
          "name": "title",
          "type": "string"
        },
        {
          "internalType": "address",
          "name": "organizer",
          "type": "address"
        },
        {
          "internalType": "uint256",
          "name": "maxTicketSupply",
          "type": "uint256"
        },
        {
          "internalType": "uint256",
          "name": "currTicketSupply",
          "type": "uint256"
        },
        {
          "internalType": "uint256",
          "name": "standardPrice",
          "type": "uint256"
        },
        {
          "internalType": "enum Event.eventState",
          "name": "currState",
          "type": "uint8"
        },
        {
          "internalType": "uint256",
          "name": "expiry",
          "type": "uint256"
        }
      ],
      "payable": false,
      "stateMutability": "view",
      "type": "function"
    },
    {
      "constant": false,
      "inputs": [
        {
          "internalType": "string",
          "name": "title",
          "type": "string"
        },
        {
          "internalType": "uint256",
          "name": "maxTicketSupply",
          "type": "uint256"
        },
        {
          "internalType": "uint256",
          "name": "standardPrice",
          "type": "uint256"
        },
        {
          "internalType": "uint256",
          "name": "date",
          "type": "uint256"
        }
      ],
      "name": "createEvent",
      "outputs": [
        {
          "internalType": "uint256",
          "name": "",
          "type": "uint256"
        }
      ],
      "payable": false,
      "stateMutability": "nonpayable",
      "type": "function"
    },
    {
      "constant": true,
      "inputs": [
        {
          "internalType": "uint256",
          "name": "eventId",
          "type": "uint256"
        }
      ],
      "name": "getOrganizer",
      "outputs": [
        {
          "internalType": "address",
          "name": "",
          "type": "address"
        }
      ],
      "payable": false,
      "stateMutability": "view",
      "type": "function"
    },
    {
      "constant": false,
      "inputs": [
        {
          "internalType": "uint256",
          "name": "eventId",
          "type": "uint256"
        },
        {
          "internalType": "uint256",
          "name": "quantity",
          "type": "uint256"
        }
      ],
      "name": "addSupply",
      "outputs": [],
      "payable": false,
      "stateMutability": "nonpayable",
      "type": "function"
    },
    {
      "constant": true,
      "inputs": [
        {
          "internalType": "uint256",
          "name": "eventId",
          "type": "uint256"
        }
      ],
      "name": "getSupply",
      "outputs": [
        {
          "internalType": "uint256",
          "name": "",
          "type": "uint256"
        }
      ],
      "payable": false,
      "stateMutability": "view",
      "type": "function"
    },
    {
      "constant": true,
      "inputs": [
        {
          "internalType": "uint256",
          "name": "eventId",
          "type": "uint256"
        }
      ],
      "name": "eventIsValid",
      "outputs": [
        {
          "internalType": "bool",
          "name": "",
          "type": "bool"
        }
      ],
      "payable": false,
      "stateMutability": "view",
      "type": "function"
    },
    {
      "constant": true,
      "inputs": [
        {
          "internalType": "uint256",
          "name": "eventId",
          "type": "uint256"
        }
      ],
      "name": "eventIsActive",
      "outputs": [
        {
          "internalType": "bool",
          "name": "",
          "type": "bool"
        }
      ],
      "payable": false,
      "stateMutability": "view",
      "type": "function"
    },
    {
      "constant": false,
      "inputs": [
        {
          "internalType": "uint256",
          "name": "eventId",
          "type": "uint256"
        }
      ],
      "name": "activateEvent",
      "outputs": [],
      "payable": false,
      "stateMutability": "nonpayable",
      "type": "function"
    },
    {
      "constant": true,
      "inputs": [
        {
          "internalType": "uint256",
          "name": "eventId",
          "type": "uint256"
        }
      ],
      "name": "getExpiry",
      "outputs": [
        {
          "internalType": "uint256",
          "name": "",
          "type": "uint256"
        }
      ],
      "payable": false,
      "stateMutability": "view",
      "type": "function"
    },
    {
      "constant": true,
      "inputs": [
        {
          "internalType": "uint256",
          "name": "eventId",
          "type": "uint256"
        }
      ],
      "name": "getEventTitle",
      "outputs": [
        {
          "internalType": "string",
          "name": "",
          "type": "string"
        }
      ],
      "payable": false,
      "stateMutability": "view",
      "type": "function"
    },
    {
      "constant": true,
      "inputs": [
        {
          "internalType": "uint256",
          "name": "eventId",
          "type": "uint256"
        }
      ],
      "name": "getStandardPrice",
      "outputs": [
        {
          "internalType": "uint256",
          "name": "",
          "type": "uint256"
        }
      ],
      "payable": false,
      "stateMutability": "view",
      "type": "function"
    },
    {
      "constant": true,
      "inputs": [],
      "name": "getAllEvents",
      "outputs": [
        {
          "internalType": "uint256[]",
          "name": "",
          "type": "uint256[]"
        }
      ],
      "payable": false,
      "stateMutability": "view",
      "type": "function"
    }
  ],
  "bytecode": "0x6080604052336000806101000a81548173ffffffffffffffffffffffffffffffffffffffff021916908373ffffffffffffffffffffffffffffffffffffffff160217905550600060015534801561005557600080fd5b506110fd806100656000396000f3fe608060405234801561001057600080fd5b50600436106100b45760003560e01c806374e106701161007157806374e10670146103f0578063c27a500d14610436578063c37845b214610495578063df647178146104cd578063ebf03feb14610574578063f77ee79d146105a2576100b4565b80630374ab0b146100b95780630b791430146101a657806313c72608146102b85780631ff67bcb146102fa578063419c006714610340578063524c15a214610382575b600080fd5b610190600480360360808110156100cf57600080fd5b81019080803590602001906401000000008111156100ec57600080fd5b8201836020820111156100fe57600080fd5b8035906020019184600183028401116401000000008311171561012057600080fd5b91908080601f016020809104026020016040519081016040528093929190818152602001838380828437600081840152601f19601f8201169050808301925050505050505091929192908035906020019092919080359060200190929190803590602001909291905050506105e4565b6040518082815260200191505060405180910390f35b6101d2600480360360208110156101bc57600080fd5b810190808035906020019092919050505061094d565b60405180898152602001806020018873ffffffffffffffffffffffffffffffffffffffff1673ffffffffffffffffffffffffffffffffffffffff16815260200187815260200186815260200185815260200184600281111561023057fe5b60ff168152602001838152602001828103825289818151815260200191508051906020019080838360005b8381101561027657808201518184015260208101905061025b565b50505050905090810190601f1680156102a35780820380516001836020036101000a031916815260200191505b50995050505050505050505060405180910390f35b6102e4600480360360208110156102ce57600080fd5b8101908080359060200190929190505050610a5a565b6040518082815260200191505060405180910390f35b6103266004803603602081101561031057600080fd5b8101908080359060200190929190505050610a8b565b604051808215151515815260200191505060405180910390f35b61036c6004803603602081101561035657600080fd5b8101908080359060200190929190505050610af2565b6040518082815260200191505060405180910390f35b6103ae6004803603602081101561039857600080fd5b8101908080359060200190929190505050610b23565b604051808273ffffffffffffffffffffffffffffffffffffffff1673ffffffffffffffffffffffffffffffffffffffff16815260200191505060405180910390f35b61041c6004803603602081101561040657600080fd5b8101908080359060200190929190505050610b74565b604051808215151515815260200191505060405180910390f35b61043e610b82565b6040518080602001828103825283818151815260200191508051906020019060200280838360005b83811015610481578082015181840152602081019050610466565b505050509050019250505060405180910390f35b6104cb600480360360408110156104ab57600080fd5b810190808035906020019092919080359060200190929190505050610bda565b005b6104f9600480360360208110156104e357600080fd5b8101908080359060200190929190505050610ca9565b6040518080602001828103825283818151815260200191508051906020019080838360005b8381101561053957808201518184015260208101905061051e565b50505050905090810190601f1680156105665780820380516001836020036101000a031916815260200191505b509250505060405180910390f35b6105a06004803603602081101561058a57600080fd5b8101908080359060200190929190505050610d72565b005b6105ce600480360360208110156105b857600080fd5b8101908080359060200190929190505050610ef9565b6040518082815260200191505060405180910390f35b600060405160200180600001905060405160208183030381529060405280519060200120856040516020018082805190602001908083835b6020831061063f578051825260208201915060208101905060208303925061061c565b6001836020036101000a0380198251168184511680821785525050505050509050019150506040516020818303038152906040528051906020012014156106ee576040517f08c379a00000000000000000000000000000000000000000000000000000000081526004018080602001828103825260208152602001807f4576656e74207469746c652063616e6e6f74206e6f7420626520656d7074792181525060200191505060405180910390fd5b60008411610747576040517f08c379a000000000000000000000000000000000000000000000000000000000815260040180806020018281038252602a815260200180611063602a913960400191505060405180910390fd5b4282116107bc576040517f08c379a000000000000000000000000000000000000000000000000000000000815260040180806020018281038252601e8152602001807f43616e6e6f742063726561746520616e2065787069726564206576656e74000081525060200191505060405180910390fd5b6107c4610f2a565b60405180610100016040528060015481526020018781526020013373ffffffffffffffffffffffffffffffffffffffff168152602001868152602001600081526020018581526020016000600281111561081a57fe5b815260200184815250905080600260006001548152602001908152602001600020600082015181600001556020820151816001019080519060200190610861929190610f90565b5060408201518160020160006101000a81548173ffffffffffffffffffffffffffffffffffffffff021916908373ffffffffffffffffffffffffffffffffffffffff160217905550606082015181600301556080820151816004015560a0820151816005015560c08201518160060160006101000a81548160ff021916908360028111156108eb57fe5b021790555060e08201518160070155905050600160008154809291906001019190505550600360015490806001815401808255809150509060018203906000526020600020016000909192909190915055508060000151915050949350505050565b6002602052806000526040600020600091509050806000015490806001018054600181600116156101000203166002900480601f0160208091040260200160405190810160405280929190818152602001828054600181600116156101000203166002900480156109ff5780601f106109d4576101008083540402835291602001916109ff565b820191906000526020600020905b8154815290600101906020018083116109e257829003601f168201915b5050505050908060020160009054906101000a900473ffffffffffffffffffffffffffffffffffffffff16908060030154908060040154908060050154908060060160009054906101000a900460ff16908060070154905088565b600081600154811115610a6c57600080fd5b6002600084815260200190815260200160002060070154915050919050565b600060016002811115610a9a57fe5b6002600084815260200190815260200160002060060160009054906101000a900460ff166002811115610ac957fe5b148015610aeb5750426002600084815260200190815260200160002060070154115b9050919050565b600081600154811115610b0457600080fd5b6002600084815260200190815260200160002060050154915050919050565b600081600154811115610b3557600080fd5b6002600084815260200190815260200160002060020160009054906101000a900473ffffffffffffffffffffffffffffffffffffffff16915050919050565b600060015482109050919050565b60606003805480602002602001604051908101604052809291908181526020018280548015610bd057602002820191906000526020600020905b815481526020019060010190808311610bbc575b5050505050905090565b81600154811115610bea57600080fd5b6002600084815260200190815260200160002060030154826002600086815260200190815260200160002060040154011115610c71576040517f08c379a000000000000000000000000000000000000000000000000000000000815260040180806020018281038252603c81526020018061108d603c913960400191505060405180910390fd5b816002600085815260200190815260200160002060040154016002600085815260200190815260200160002060040181905550505050565b606081600154811115610cbb57600080fd5b600260008481526020019081526020016000206001018054600181600116156101000203166002900480601f016020809104026020016040519081016040528092919081815260200182805460018160011615610100020316600290048015610d655780601f10610d3a57610100808354040283529160200191610d65565b820191906000526020600020905b815481529060010190602001808311610d4857829003601f168201915b5050505050915050919050565b803373ffffffffffffffffffffffffffffffffffffffff166002600083815260200190815260200160002060020160009054906101000a900473ffffffffffffffffffffffffffffffffffffffff1673ffffffffffffffffffffffffffffffffffffffff1614610de157600080fd5b81600154811115610df157600080fd5b8260006002811115610dff57fe5b6002600083815260200190815260200160002060060160009054906101000a900460ff166002811115610e2e57fe5b14610e84576040517f08c379a000000000000000000000000000000000000000000000000000000000815260040180806020018281038252602d815260200180611036602d913960400191505060405180910390fd5b60016002600086815260200190815260200160002060060160006101000a81548160ff02191690836002811115610eb757fe5b02179055507f3b008c794fa6493b8e1d8eefe4cf6712184b32d24939b826f031fe984cbfa74e846040518082815260200191505060405180910390a150505050565b600081600154811115610f0b57600080fd5b6002600084815260200190815260200160002060040154915050919050565b6040518061010001604052806000815260200160608152602001600073ffffffffffffffffffffffffffffffffffffffff16815260200160008152602001600081526020016000815260200160006002811115610f8357fe5b8152602001600081525090565b828054600181600116156101000203166002900490600052602060002090601f016020900481019282601f10610fd157805160ff1916838001178555610fff565b82800160010185558215610fff579182015b82811115610ffe578251825591602001919060010190610fe3565b5b50905061100c9190611010565b5090565b61103291905b8082111561102e576000816000905550600101611016565b5090565b9056fe54686973206576656e7420686173206265656e20616374697661746564206f72206861732065787069726564214d6178696d756d207469636b657420737570706c79206d757374206265206d6f7265207468616e2030215468652072657175657374656420616d6f756e74206f66207469636b657420657863656564732074686520617661696c61626c6520737570706c7921a265627a7a7231582090b21e6f6d14e4a7577d9c79d8deaa1a216c957d700829de5a6f5c4df454010164736f6c63430005110032",
  "source": "pragma solidity ^0.5.0;\n\ncontract Event {\n    address admin = msg.sender;\n\n    enum eventState { inactive, active, expired }\n\n    struct eventStruct {\n        uint256 eventId;\n        string title;\n        address organizer;\n        uint256 maxTicketSupply;\n        uint256 currTicketSupply;\n        uint256 standardPrice; // in ETH\n        eventState currState;\n        uint256 expiry;\n    }\n\n    event eventActivated (uint256 eventId);\n    event eventExpired (uint256 eventId);\n\n    uint256 numEvents = 0;\n    mapping(uint256 => eventStruct) public events;\n\n    uint256[] allEvents;\n\n    modifier adminOnly() {\n        require(admin == msg.sender, \"Only admins can run this function!\");\n        _;\n    }\n\n    modifier organizerOnly(uint256 eventId) {\n        require(events[eventId].organizer == msg.sender);\n        _;\n    }\n\n    modifier validEvent(uint256 eventId) {\n        require(eventId <= numEvents);\n        _;\n    }\n\n    modifier inactiveEvent(uint256 eventId) {\n        require(events[eventId].currState == eventState.inactive, \"This event has been activated or has expired!\");\n        _;\n    }\n\n    modifier activeEvent(uint256 eventId) {\n        if (events[eventId].expiry > now) {\n            events[eventId].currState = eventState.expired;\n            emit eventExpired(eventId);\n        }\n        require(\n            events[eventId].currState == eventState.active,\n            \"This ticket has expired!\"\n        );\n        _;\n    }\n\n    function createEvent(\n        string memory title,\n        uint256 maxTicketSupply,\n        uint256 standardPrice,\n        uint256 date\n    ) public returns(uint256) {\n        require(keccak256(abi.encodePacked(title)) != keccak256(abi.encodePacked(\"\")), \"Event title cannot not be empty!\"); //Workaround for string comparison\n        require(maxTicketSupply > 0, \"Maximum ticket supply must be more than 0!\");\n        require(date > now, \"Cannot create an expired event\");\n        eventStruct memory newEvent = eventStruct(\n            numEvents,\n            title,\n            msg.sender,\n            maxTicketSupply,\n            0,\n            standardPrice,\n            eventState.inactive,\n            date\n        );\n\n        events[numEvents] = newEvent;\n        numEvents++;\n        allEvents.push(numEvents);\n        return newEvent.eventId;\n    }\n\n    function getOrganizer(uint256 eventId) public view validEvent(eventId) returns(address) {\n        return events[eventId].organizer;\n    }\n    \n    function addSupply(uint256 eventId, uint256 quantity) public validEvent(eventId) {\n        require(events[eventId].currTicketSupply + quantity <= events[eventId].maxTicketSupply, \"The requested amount of ticket exceeds the available supply!\");\n        events[eventId].currTicketSupply = events[eventId].currTicketSupply + quantity;\n    }\n\n    function getSupply(uint256 eventId) public view validEvent(eventId) returns(uint256) {\n        return events[eventId].currTicketSupply;\n    }\n\n    function eventIsValid(uint256 eventId) public view returns(bool) {\n        return(eventId < numEvents);\n    }\n\n    function eventIsActive(uint256 eventId) public view returns(bool) {\n        return(events[eventId].currState == eventState.active && events[eventId].expiry > now);\n    }\n\n    function activateEvent(uint256 eventId) public organizerOnly(eventId) validEvent(eventId) inactiveEvent(eventId) {\n        events[eventId].currState = eventState.active;\n        emit eventActivated(eventId);\n    }\n\n    function getExpiry(uint256 eventId) public view validEvent(eventId) returns (uint256) {\n        return events[eventId].expiry;\n    }\n\n    function getEventTitle(uint256 eventId) public view validEvent(eventId) returns(string memory) {\n        return events[eventId].title;\n    }\n\n    function getStandardPrice(uint256 eventId) public view validEvent(eventId) returns(uint256) {\n        return events[eventId].standardPrice;\n    }\n\n    function getAllEvents() public view returns (uint256[] memory) {\n        return allEvents;\n    }\n}",
  "sourcePath": "/Users/clementharsoyo/Downloads/BlockPass-setup-auth/eth-contracts/contracts/Event.sol",
  "compiler": {
    "name": "solc",
    "version": "0.5.17+commit.d19bba13.Emscripten.clang"
  },
  "schemaVersion": "3.4.11",
  "updatedAt": "2023-04-10T16:22:51.938Z",
  "networkType": "ethereum",
  "devdoc": {
    "methods": {}
  },
  "userdoc": {
    "methods": {}
  }
}