{
  "contractName": "SecondaryMarket",
  "abi": [
    {
      "inputs": [
        {
          "internalType": "contract Ticket",
          "name": "ticketContractIn",
          "type": "address"
        },
        {
          "internalType": "uint256",
          "name": "feeIn",
          "type": "uint256"
        }
      ],
      "payable": false,
      "stateMutability": "nonpayable",
      "type": "constructor"
    },
    {
      "anonymous": false,
      "inputs": [
        {
          "indexed": false,
          "internalType": "uint256",
          "name": "ticketId",
          "type": "uint256"
        }
      ],
      "name": "marketTransaction",
      "type": "event"
    },
    {
      "constant": true,
      "inputs": [
        {
          "internalType": "uint256",
          "name": "",
          "type": "uint256"
        }
      ],
      "name": "listings",
      "outputs": [
        {
          "internalType": "uint256",
          "name": "",
          "type": "uint256"
        }
      ],
      "payable": false,
      "stateMutability": "view",
      "type": "function"
    },
    {
      "constant": false,
      "inputs": [
        {
          "internalType": "uint256",
          "name": "ticketId",
          "type": "uint256"
        },
        {
          "internalType": "uint256",
          "name": "askPrice",
          "type": "uint256"
        }
      ],
      "name": "list",
      "outputs": [],
      "payable": false,
      "stateMutability": "nonpayable",
      "type": "function"
    },
    {
      "constant": false,
      "inputs": [
        {
          "internalType": "uint256",
          "name": "ticketId",
          "type": "uint256"
        }
      ],
      "name": "unlist",
      "outputs": [],
      "payable": false,
      "stateMutability": "nonpayable",
      "type": "function"
    },
    {
      "constant": true,
      "inputs": [
        {
          "internalType": "uint256",
          "name": "ticketId",
          "type": "uint256"
        }
      ],
      "name": "checkPrice",
      "outputs": [
        {
          "internalType": "uint256",
          "name": "",
          "type": "uint256"
        }
      ],
      "payable": false,
      "stateMutability": "view",
      "type": "function"
    },
    {
      "constant": false,
      "inputs": [
        {
          "internalType": "uint256",
          "name": "ticketId",
          "type": "uint256"
        }
      ],
      "name": "buy",
      "outputs": [],
      "payable": true,
      "stateMutability": "payable",
      "type": "function"
    },
    {
      "constant": true,
      "inputs": [],
      "name": "getFee",
      "outputs": [
        {
          "internalType": "uint256",
          "name": "",
          "type": "uint256"
        }
      ],
      "payable": false,
      "stateMutability": "view",
      "type": "function"
    },
    {
      "constant": true,
      "inputs": [],
      "name": "getAllListings",
      "outputs": [
        {
          "internalType": "uint256[]",
          "name": "",
          "type": "uint256[]"
        }
      ],
      "payable": false,
      "stateMutability": "view",
      "type": "function"
    }
  ],
  "bytecode": "0x6080604052600060015533600260006101000a81548173ffffffffffffffffffffffffffffffffffffffff021916908373ffffffffffffffffffffffffffffffffffffffff1602179055506000600355670de0b6b3a764000060045534801561006757600080fd5b506040516110503803806110508339818101604052604081101561008a57600080fd5b810190808051906020019092919080519060200190929190505050816000806101000a81548173ffffffffffffffffffffffffffffffffffffffff021916908373ffffffffffffffffffffffffffffffffffffffff160217905550806001819055506000809054906101000a900473ffffffffffffffffffffffffffffffffffffffff1673ffffffffffffffffffffffffffffffffffffffff16636dcea85f306040518263ffffffff1660e01b8152600401808273ffffffffffffffffffffffffffffffffffffffff1673ffffffffffffffffffffffffffffffffffffffff168152602001915050600060405180830381600087803b15801561018c57600080fd5b505af11580156101a0573d6000803e3d6000fd5b505050505050610e9b806101b56000396000f3fe6080604052600436106100705760003560e01c8063bf5a4dd31161004e578063bf5a4dd314610175578063ced72f87146101b0578063d96a094a146101db578063de74e57b1461020957610070565b80631de7463a1461007557806350fd7367146100c4578063ae73ccec14610109575b600080fd5b34801561008157600080fd5b506100ae6004803603602081101561009857600080fd5b8101908080359060200190929190505050610258565b6040518082815260200191505060405180910390f35b3480156100d057600080fd5b50610107600480360360408110156100e757600080fd5b810190808035906020019092919080359060200190929190505050610305565b005b34801561011557600080fd5b5061011e61064b565b6040518080602001828103825283818151815260200191508051906020019060200280838360005b83811015610161578082015181840152602081019050610146565b505050509050019250505060405180910390f35b34801561018157600080fd5b506101ae6004803603602081101561019857600080fd5b81019080803590602001909291905050506106ea565b005b3480156101bc57600080fd5b506101c56108d5565b6040518082815260200191505060405180910390f35b610207600480360360208110156101f157600080fd5b81019080803590602001909291905050506108df565b005b34801561021557600080fd5b506102426004803603602081101561022c57600080fd5b8101908080359060200190929190505050610da6565b6040518082815260200191505060405180910390f35b6000816000600560008381526020019081526020016000205414156102e5576040517f08c379a000000000000000000000000000000000000000000000000000000000815260040180806020018281038252601b8152602001807f5469636b657420686173206e6f74206265656e206c697374656421000000000081525060200191505060405180910390fd5b600154600560008581526020019081526020016000205401915050919050565b813373ffffffffffffffffffffffffffffffffffffffff166000809054906101000a900473ffffffffffffffffffffffffffffffffffffffff1673ffffffffffffffffffffffffffffffffffffffff1663ad093409836040518263ffffffff1660e01b81526004018082815260200191505060206040518083038186803b15801561038f57600080fd5b505afa1580156103a3573d6000803e3d6000fd5b505050506040513d60208110156103b957600080fd5b810190808051906020019092919050505073ffffffffffffffffffffffffffffffffffffffff1614610436576040517f08c379a0000000000000000000000000000000000000000000000000000000008152600401808060200182810382526021815260200180610e256021913960400191505060405180910390fd5b8260006005600083815260200190815260200160002054146104c0576040517f08c379a00000000000000000000000000000000000000000000000000000000081526004018080602001828103825260178152602001807f5469636b657420686173206265656e206c69737465642100000000000000000081525060200191505060405180910390fd5b6000809054906101000a900473ffffffffffffffffffffffffffffffffffffffff1673ffffffffffffffffffffffffffffffffffffffff16638aa5a531856040518263ffffffff1660e01b81526004018082815260200191505060206040518083038186803b15801561053257600080fd5b505afa158015610546573d6000803e3d6000fd5b505050506040513d602081101561055c57600080fd5b81019080805190602001909291905050506105c2576040517f08c379a0000000000000000000000000000000000000000000000000000000008152600401808060200182810382526044815260200180610de16044913960600191505060405180910390fd5b6000831161061b576040517f08c379a0000000000000000000000000000000000000000000000000000000008152600401808060200182810382526022815260200180610dbf6022913960400191505060405180910390fd5b82600560008681526020019081526020016000208190555060036000815480929190600101919050555050505050565b60608060035460405190808252806020026020018201604052801561067f5781602001602082028038833980820191505090505b509050600080905060008090505b6003548110156106e15760006005600084815260200190815260200160002054146106d457818382815181106106bf57fe5b60200260200101818152505080806001019150505b818060010192505061068d565b82935050505090565b803373ffffffffffffffffffffffffffffffffffffffff166000809054906101000a900473ffffffffffffffffffffffffffffffffffffffff1673ffffffffffffffffffffffffffffffffffffffff1663ad093409836040518263ffffffff1660e01b81526004018082815260200191505060206040518083038186803b15801561077457600080fd5b505afa158015610788573d6000803e3d6000fd5b505050506040513d602081101561079e57600080fd5b810190808051906020019092919050505073ffffffffffffffffffffffffffffffffffffffff161461081b576040517f08c379a0000000000000000000000000000000000000000000000000000000008152600401808060200182810382526021815260200180610e256021913960400191505060405180910390fd5b816000600560008381526020019081526020016000205414156108a6576040517f08c379a000000000000000000000000000000000000000000000000000000000815260040180806020018281038252601b8152602001807f5469636b657420686173206e6f74206265656e206c697374656421000000000081525060200191505060405180910390fd5b600560008481526020019081526020016000206000905560036000815480929190600190039190505550505050565b6000600154905090565b8060006005600083815260200190815260200160002054141561096a576040517f08c379a000000000000000000000000000000000000000000000000000000000815260040180806020018281038252601b8152602001807f5469636b657420686173206e6f74206265656e206c697374656421000000000081525060200191505060405180910390fd5b3373ffffffffffffffffffffffffffffffffffffffff166000809054906101000a900473ffffffffffffffffffffffffffffffffffffffff1673ffffffffffffffffffffffffffffffffffffffff1663ad093409846040518263ffffffff1660e01b81526004018082815260200191505060206040518083038186803b1580156109f357600080fd5b505afa158015610a07573d6000803e3d6000fd5b505050506040513d6020811015610a1d57600080fd5b810190808051906020019092919050505073ffffffffffffffffffffffffffffffffffffffff161415610ab8576040517f08c379a000000000000000000000000000000000000000000000000000000000815260040180806020018281038252601f8152602001807f596f752063616e6e6f742062757920796f7572206f776e207469636b6574210081525060200191505060405180910390fd5b6001546005600084815260200190815260200160002054016004543481610adb57fe5b041015610b33576040517f08c379a0000000000000000000000000000000000000000000000000000000008152600401808060200182810382526021815260200180610e466021913960400191505060405180910390fd5b60008060009054906101000a900473ffffffffffffffffffffffffffffffffffffffff1673ffffffffffffffffffffffffffffffffffffffff1663ad093409846040518263ffffffff1660e01b81526004018082815260200191505060206040518083038186803b158015610ba757600080fd5b505afa158015610bbb573d6000803e3d6000fd5b505050506040513d6020811015610bd157600080fd5b810190808051906020019092919050505090508073ffffffffffffffffffffffffffffffffffffffff166108fc6004546005600087815260200190815260200160002054029081150290604051600060405180830381858888f19350505050158015610c41573d6000803e3d6000fd5b506000600260009054906101000a900473ffffffffffffffffffffffffffffffffffffffff1690508073ffffffffffffffffffffffffffffffffffffffff166108fc600454600154029081150290604051600060405180830381858888f19350505050158015610cb5573d6000803e3d6000fd5b506000809054906101000a900473ffffffffffffffffffffffffffffffffffffffff1673ffffffffffffffffffffffffffffffffffffffff16630254189785336040518363ffffffff1660e01b8152600401808381526020018273ffffffffffffffffffffffffffffffffffffffff1673ffffffffffffffffffffffffffffffffffffffff16815260200192505050600060405180830381600087803b158015610d5e57600080fd5b505af1158015610d72573d6000803e3d6000fd5b5050505060056000858152602001908152602001600020600090556003600081548092919060019003919050555050505050565b6005602052806000526040600020600091509050548156fe41736b696e67207072696365206d757374206265206e6f6e2d6e656761746976652154686973207469636b65742063616e6e6f7420626520736f6c642064756520746f20746865206c696d6974206f6e206368616e676573206f66206f776e657273686970215469636b6574206973206e6f74206f776e65642062792074686973206f776e6572596f7520646f206e6f7420686176652073756666696369656e742066756e647321a265627a7a7231582009688d68a2bd817a92f8a409807e35b326b317df517e7fc899b8483e2f23622964736f6c63430005110032",
  "source": "pragma solidity ^0.5.0;\r\n\r\nimport \"./Ticket.sol\";\r\n\r\n/*\r\n    The Secondary Market is a place to buy and sell tickets that have been bought.\r\n\r\n    Key details:\r\n    1. Listed price is ask price + commission fee\r\n    2. Fee is sent directly to admin\r\n    3. All prices are denoted in ETH, except for msg.value\r\n\r\n    Flow:\r\n    1. User lists a ticket he/she has bought, inputs asking price\r\n    2. Another user buys the ticket directly using ETH\r\n*/\r\ncontract SecondaryMarket {\r\n    Ticket ticketContract;\r\n    uint256 fee = 0; // Commission fee, in ETH\r\n    address admin = msg.sender;\r\n    uint256 numListings = 0;\r\n    \r\n    uint256 oneEth = 1000000000000000000;\r\n\r\n    constructor(Ticket ticketContractIn, uint256 feeIn) public {\r\n        ticketContract = ticketContractIn;\r\n        fee = feeIn;\r\n\r\n        ticketContract.setMarket(address(this));\r\n    }\r\n\r\n    event marketTransaction(uint256 ticketId);\r\n\r\n    mapping (uint256 => uint256) public listings;\r\n\r\n    modifier ownerOnly(uint256 ticketId) {\r\n        require(ticketContract.getTicketOwner(ticketId) == msg.sender, \"Ticket is not owned by this owner\");\r\n        _;\r\n    }\r\n\r\n    modifier isListed(uint256 ticketId) {\r\n        require(listings[ticketId] != 0, \"Ticket has not been listed!\");\r\n        _;\r\n    }\r\n\r\n    modifier isNotListed(uint256 ticketId) {\r\n        require(listings[ticketId] == 0, \"Ticket has been listed!\");\r\n        _;\r\n    }\r\n    \r\n    // Ask price in ETH\r\n    function list(uint256 ticketId, uint256 askPrice) public ownerOnly(ticketId) isNotListed(ticketId) {\r\n\r\n        // Tickets that have changed hands more than once cannot be listed on the secondary market.\r\n        require(ticketContract.checkOwnershipChangeValidity(ticketId), \"This ticket cannot be sold due to the limit on changes of ownership!\");\r\n        \r\n        require(askPrice > 0, \"Asking price must be non-negative!\");\r\n        listings[ticketId] = askPrice;\r\n        numListings++;\r\n    }\r\n\r\n    function unlist(uint256 ticketId) public ownerOnly(ticketId) isListed(ticketId) {\r\n        delete listings[ticketId];\r\n        numListings--;\r\n    }\r\n\r\n    // Price is asking price + commission fee\r\n    function checkPrice(uint256 ticketId) public view isListed(ticketId) returns (uint256) {\r\n        return listings[ticketId] + fee;\r\n    }\r\n\r\n    function buy(uint256 ticketId) public payable isListed(ticketId) {\r\n        require(ticketContract.getTicketOwner(ticketId) != msg.sender, \"You cannot buy your own ticket!\");\r\n        require(msg.value / oneEth >= listings[ticketId] + fee, \"You do not have sufficient funds!\");\r\n\r\n        address payable recipient = address(uint160(ticketContract.getTicketOwner(ticketId)));\r\n        recipient.transfer(listings[ticketId] * oneEth);\r\n        \r\n        address payable adminRecipient = address(uint160(admin));\r\n        adminRecipient.transfer(fee * oneEth);\r\n        \r\n        ticketContract.marketTransfer(ticketId, msg.sender);\r\n\r\n        delete listings[ticketId];\r\n        numListings--;\r\n    }\r\n\r\n    function getFee() public view returns (uint256) {\r\n        return fee;\r\n    }\r\n\r\n    // Return the ticket ID of all tickets currently being listed\r\n    function getAllListings() public view returns(uint256[] memory) {\r\n        uint256[] memory res = new uint256[](numListings);\r\n\r\n        uint i = 0;\r\n        uint currListingsFound = 0;\r\n\r\n        while(currListingsFound < numListings) {\r\n            if (listings[i] != 0) {\r\n                res[currListingsFound] = i;\r\n                currListingsFound++;\r\n            }\r\n\r\n            i++;\r\n        }\r\n\r\n        return res;\r\n    }\r\n}",
  "sourcePath": "C:\\NUS\\IS4302\\BlockPass\\eth-contracts\\contracts\\SecondaryMarket.sol",
  "compiler": {
    "name": "solc",
    "version": "0.5.17+commit.d19bba13.Emscripten.clang"
  },
  "schemaVersion": "3.4.11",
  "updatedAt": "2023-04-14T03:01:32.202Z",
  "networkType": "ethereum",
  "devdoc": {
    "methods": {}
  },
  "userdoc": {
    "methods": {}
  }
}