{
  "contractName": "Ticket",
  "abi": [
    {
      "inputs": [
        {
          "internalType": "contract Event",
          "name": "eventContractIn",
          "type": "address"
        },
        {
          "internalType": "contract BlockTier",
          "name": "blockTierContractIn",
          "type": "address"
        },
        {
          "internalType": "contract TickToken",
          "name": "tokenContractIn",
          "type": "address"
        },
        {
          "internalType": "uint256",
          "name": "baseIssuanceLimitIn",
          "type": "uint256"
        }
      ],
      "payable": false,
      "stateMutability": "nonpayable",
      "type": "constructor"
    },
    {
      "anonymous": false,
      "inputs": [
        {
          "indexed": false,
          "internalType": "string",
          "name": "str",
          "type": "string"
        }
      ],
      "name": "debug",
      "type": "event"
    },
    {
      "anonymous": false,
      "inputs": [
        {
          "indexed": false,
          "internalType": "uint256",
          "name": "ticketId",
          "type": "uint256"
        }
      ],
      "name": "ticketForfeited",
      "type": "event"
    },
    {
      "anonymous": false,
      "inputs": [
        {
          "indexed": false,
          "internalType": "uint256",
          "name": "ticketId",
          "type": "uint256"
        }
      ],
      "name": "ticketIssued",
      "type": "event"
    },
    {
      "anonymous": false,
      "inputs": [
        {
          "indexed": false,
          "internalType": "uint256",
          "name": "ticketId",
          "type": "uint256"
        }
      ],
      "name": "ticketTransfered",
      "type": "event"
    },
    {
      "anonymous": false,
      "inputs": [
        {
          "indexed": false,
          "internalType": "uint256",
          "name": "ticketId",
          "type": "uint256"
        }
      ],
      "name": "ticketUsed",
      "type": "event"
    },
    {
      "anonymous": false,
      "inputs": [
        {
          "indexed": false,
          "internalType": "uint256",
          "name": "token",
          "type": "uint256"
        }
      ],
      "name": "tokenRedeemed",
      "type": "event"
    },
    {
      "constant": true,
      "inputs": [
        {
          "internalType": "uint256",
          "name": "",
          "type": "uint256"
        }
      ],
      "name": "maxMintLimit",
      "outputs": [
        {
          "internalType": "uint256",
          "name": "",
          "type": "uint256"
        }
      ],
      "payable": false,
      "stateMutability": "view",
      "type": "function"
    },
    {
      "constant": true,
      "inputs": [
        {
          "internalType": "address",
          "name": "",
          "type": "address"
        }
      ],
      "name": "noOfTransactions",
      "outputs": [
        {
          "internalType": "uint256",
          "name": "",
          "type": "uint256"
        }
      ],
      "payable": false,
      "stateMutability": "view",
      "type": "function"
    },
    {
      "constant": true,
      "inputs": [
        {
          "internalType": "uint256",
          "name": "",
          "type": "uint256"
        }
      ],
      "name": "tickets",
      "outputs": [
        {
          "internalType": "uint256",
          "name": "ticketId",
          "type": "uint256"
        },
        {
          "internalType": "uint256",
          "name": "eventId",
          "type": "uint256"
        },
        {
          "internalType": "address",
          "name": "owner",
          "type": "address"
        },
        {
          "internalType": "enum Ticket.ticketState",
          "name": "currState",
          "type": "uint8"
        },
        {
          "internalType": "uint256",
          "name": "numberOfOwnershipChanges",
          "type": "uint256"
        }
      ],
      "payable": false,
      "stateMutability": "view",
      "type": "function"
    },
    {
      "constant": false,
      "inputs": [
        {
          "internalType": "uint256",
          "name": "eventId",
          "type": "uint256"
        },
        {
          "internalType": "uint256",
          "name": "quantity",
          "type": "uint256"
        },
        {
          "internalType": "uint256",
          "name": "tokenToBeRedeemed",
          "type": "uint256"
        }
      ],
      "name": "issueTickets",
      "outputs": [
        {
          "internalType": "uint256[]",
          "name": "",
          "type": "uint256[]"
        }
      ],
      "payable": true,
      "stateMutability": "payable",
      "type": "function"
    },
    {
      "constant": false,
      "inputs": [
        {
          "internalType": "uint256",
          "name": "ticketId",
          "type": "uint256"
        },
        {
          "internalType": "address",
          "name": "receiver",
          "type": "address"
        }
      ],
      "name": "transfer",
      "outputs": [],
      "payable": false,
      "stateMutability": "nonpayable",
      "type": "function"
    },
    {
      "constant": false,
      "inputs": [
        {
          "internalType": "uint256",
          "name": "ticketId",
          "type": "uint256"
        }
      ],
      "name": "useTicket",
      "outputs": [],
      "payable": false,
      "stateMutability": "nonpayable",
      "type": "function"
    },
    {
      "constant": false,
      "inputs": [
        {
          "internalType": "uint256",
          "name": "ticketId",
          "type": "uint256"
        },
        {
          "internalType": "address",
          "name": "receiver",
          "type": "address"
        }
      ],
      "name": "marketTransfer",
      "outputs": [],
      "payable": false,
      "stateMutability": "nonpayable",
      "type": "function"
    },
    {
      "constant": true,
      "inputs": [
        {
          "internalType": "uint256",
          "name": "ticketId",
          "type": "uint256"
        }
      ],
      "name": "getTicketOwner",
      "outputs": [
        {
          "internalType": "address",
          "name": "",
          "type": "address"
        }
      ],
      "payable": false,
      "stateMutability": "view",
      "type": "function"
    },
    {
      "constant": true,
      "inputs": [
        {
          "internalType": "uint256",
          "name": "ticketId",
          "type": "uint256"
        }
      ],
      "name": "checkOwnershipChangeValidity",
      "outputs": [
        {
          "internalType": "bool",
          "name": "",
          "type": "bool"
        }
      ],
      "payable": false,
      "stateMutability": "view",
      "type": "function"
    },
    {
      "constant": false,
      "inputs": [
        {
          "internalType": "address",
          "name": "marketIn",
          "type": "address"
        }
      ],
      "name": "setMarket",
      "outputs": [],
      "payable": false,
      "stateMutability": "nonpayable",
      "type": "function"
    },
    {
      "constant": true,
      "inputs": [
        {
          "internalType": "address",
          "name": "user",
          "type": "address"
        }
      ],
      "name": "getToken",
      "outputs": [
        {
          "internalType": "uint256",
          "name": "",
          "type": "uint256"
        }
      ],
      "payable": false,
      "stateMutability": "view",
      "type": "function"
    },
    {
      "constant": true,
      "inputs": [
        {
          "internalType": "uint256",
          "name": "eventId",
          "type": "uint256"
        },
        {
          "internalType": "address",
          "name": "purchaser",
          "type": "address"
        },
        {
          "internalType": "uint256",
          "name": "quantity",
          "type": "uint256"
        }
      ],
      "name": "checkTicketsIssued",
      "outputs": [
        {
          "internalType": "bool",
          "name": "",
          "type": "bool"
        }
      ],
      "payable": false,
      "stateMutability": "view",
      "type": "function"
    },
    {
      "constant": true,
      "inputs": [
        {
          "internalType": "uint256",
          "name": "ticketId",
          "type": "uint256"
        }
      ],
      "name": "getEventId",
      "outputs": [
        {
          "internalType": "uint256",
          "name": "",
          "type": "uint256"
        }
      ],
      "payable": false,
      "stateMutability": "view",
      "type": "function"
    }
  ],
  "bytecode": "0x608060405233600460006101000a81548173ffffffffffffffffffffffffffffffffffffffff021916908373ffffffffffffffffffffffffffffffffffffffff1602179055506000600560006101000a81548173ffffffffffffffffffffffffffffffffffffffff021916908373ffffffffffffffffffffffffffffffffffffffff16021790555060006006556000600755600160085560c8600955670de0b6b3a7640000600f553480156100b357600080fd5b506040516126d73803806126d7833981810160405260808110156100d657600080fd5b8101908080519060200190929190805190602001909291908051906020019092919080519060200190929190505050836000806101000a81548173ffffffffffffffffffffffffffffffffffffffff021916908373ffffffffffffffffffffffffffffffffffffffff16021790555082600160006101000a81548173ffffffffffffffffffffffffffffffffffffffff021916908373ffffffffffffffffffffffffffffffffffffffff16021790555081600260006101000a81548173ffffffffffffffffffffffffffffffffffffffff021916908373ffffffffffffffffffffffffffffffffffffffff16021790555080600381905550505050506124f6806101e16000396000f3fe6080604052600436106100dd5760003560e01c80638aa5a5311161007f578063b7760c8f11610059578063b7760c8f14610517578063bae8e1d314610572578063c3be559b146105c1578063cbce308a14610610576100dd565b80638aa5a531146103e4578063a9ec343314610437578063ad0934091461049c576100dd565b806350b44712116100bb57806350b44712146101eb57806359770438146102975780636dcea85f146102fc57806385f3d5bc1461034d576100dd565b806302541897146100e257806324063c821461013d57806326606448146101b0575b600080fd5b3480156100ee57600080fd5b5061013b6004803603604081101561010557600080fd5b8101908080359060200190929190803573ffffffffffffffffffffffffffffffffffffffff16906020019092919050505061068d565b005b34801561014957600080fd5b5061018c6004803603602081101561016057600080fd5b81019080803573ffffffffffffffffffffffffffffffffffffffff1690602001909291905050506109f1565b6040518082600381111561019c57fe5b60ff16815260200191505060405180910390f35b3480156101bc57600080fd5b506101e9600480360360208110156101d357600080fd5b8101908080359060200190929190505050610a11565b005b3480156101f757600080fd5b506102246004803603602081101561020e57600080fd5b8101908080359060200190929190505050610d0f565b604051808781526020018681526020018573ffffffffffffffffffffffffffffffffffffffff1673ffffffffffffffffffffffffffffffffffffffff16815260200184600281111561027257fe5b60ff168152602001838152602001828152602001965050505050505060405180910390f35b3480156102a357600080fd5b506102e6600480360360208110156102ba57600080fd5b81019080803573ffffffffffffffffffffffffffffffffffffffff169060200190929190505050610d78565b6040518082815260200191505060405180910390f35b34801561030857600080fd5b5061034b6004803603602081101561031f57600080fd5b81019080803573ffffffffffffffffffffffffffffffffffffffff169060200190929190505050610e5b565b005b61038d6004803603606081101561036357600080fd5b81019080803590602001909291908035906020019092919080359060200190929190505050610e9f565b6040518080602001828103825283818151815260200191508051906020019060200280838360005b838110156103d05780820151818401526020810190506103b5565b505050509050019250505060405180910390f35b3480156103f057600080fd5b5061041d6004803603602081101561040757600080fd5b8101908080359060200190929190505050611b31565b604051808215151515815260200191505060405180910390f35b34801561044357600080fd5b506104866004803603602081101561045a57600080fd5b81019080803573ffffffffffffffffffffffffffffffffffffffff169060200190929190505050611bce565b6040518082815260200191505060405180910390f35b3480156104a857600080fd5b506104d5600480360360208110156104bf57600080fd5b8101908080359060200190929190505050611be6565b604051808273ffffffffffffffffffffffffffffffffffffffff1673ffffffffffffffffffffffffffffffffffffffff16815260200191505060405180910390f35b34801561052357600080fd5b506105706004803603604081101561053a57600080fd5b8101908080359060200190929190803573ffffffffffffffffffffffffffffffffffffffff169060200190929190505050611c9f565b005b34801561057e57600080fd5b506105ab6004803603602081101561059557600080fd5b8101908080359060200190929190505050612145565b6040518082815260200191505060405180910390f35b3480156105cd57600080fd5b506105fa600480360360208110156105e457600080fd5b810190808035906020019092919050505061215d565b6040518082815260200191505060405180910390f35b34801561061c57600080fd5b506106736004803603606081101561063357600080fd5b8101908080359060200190929190803573ffffffffffffffffffffffffffffffffffffffff169060200190929190803590602001909291905050506121f6565b604051808215151515815260200191505060405180910390f35b3373ffffffffffffffffffffffffffffffffffffffff16600560009054906101000a900473ffffffffffffffffffffffffffffffffffffffff1673ffffffffffffffffffffffffffffffffffffffff16146106e757600080fd5b81600654811061075f576040517f08c379a000000000000000000000000000000000000000000000000000000000815260040180806020018281038252601c8152602001807f54686973207469636b657420646f6573206e6f7420657869737473210000000081525060200191505060405180910390fd5b82426000809054906101000a900473ffffffffffffffffffffffffffffffffffffffff1673ffffffffffffffffffffffffffffffffffffffff166313c72608600a6000858152602001908152602001600020600101546040518263ffffffff1660e01b81526004018082815260200191505060206040518083038186803b1580156107e957600080fd5b505afa1580156107fd573d6000803e3d6000fd5b505050506040513d602081101561081357600080fd5b810190808051906020019092919050505010801561086a57506000600281111561083957fe5b600a600083815260200190815260200160002060020160149054906101000a900460ff16600281111561086857fe5b145b156108df576002600a600083815260200190815260200160002060020160146101000a81548160ff021916908360028111156108a257fe5b02179055507f706b79b4efc34ed95c8bf8b872fc91fce8f36a27d805328117a92a2745c89c47816040518082815260200191505060405180910390a15b600060028111156108ec57fe5b600a600083815260200190815260200160002060020160149054906101000a900460ff16600281111561091b57fe5b14610971576040517f08c379a00000000000000000000000000000000000000000000000000000000081526004018080602001828103825260278152602001806123a96027913960400191505060405180910390fd5b6001600a60008681526020019081526020016000206003016000828254019250508190555082600a600086815260200190815260200160002060020160006101000a81548173ffffffffffffffffffffffffffffffffffffffff021916908373ffffffffffffffffffffffffffffffffffffffff16021790555050505050565b600d6020528060005260406000206000915054906101000a900460ff1681565b806006548110610a89576040517f08c379a000000000000000000000000000000000000000000000000000000000815260040180806020018281038252601c8152602001807f54686973207469636b657420646f6573206e6f7420657869737473210000000081525060200191505060405180910390fd5b81426000809054906101000a900473ffffffffffffffffffffffffffffffffffffffff1673ffffffffffffffffffffffffffffffffffffffff166313c72608600a6000858152602001908152602001600020600101546040518263ffffffff1660e01b81526004018082815260200191505060206040518083038186803b158015610b1357600080fd5b505afa158015610b27573d6000803e3d6000fd5b505050506040513d6020811015610b3d57600080fd5b8101908080519060200190929190505050108015610b94575060006002811115610b6357fe5b600a600083815260200190815260200160002060020160149054906101000a900460ff166002811115610b9257fe5b145b15610c09576002600a600083815260200190815260200160002060020160146101000a81548160ff02191690836002811115610bcc57fe5b02179055507f706b79b4efc34ed95c8bf8b872fc91fce8f36a27d805328117a92a2745c89c47816040518082815260200191505060405180910390a15b60006002811115610c1657fe5b600a600083815260200190815260200160002060020160149054906101000a900460ff166002811115610c4557fe5b14610c9b576040517f08c379a00000000000000000000000000000000000000000000000000000000081526004018080602001828103825260278152602001806123a96027913960400191505060405180910390fd5b6001600a600085815260200190815260200160002060020160146101000a81548160ff02191690836002811115610cce57fe5b02179055507f642b5f9b9ffd8c37a03b8059ad4e457d78385d2e9c3ec411c9bd699f7cc979ed836040518082815260200191505060405180910390a1505050565b600a6020528060005260406000206000915090508060000154908060010154908060020160009054906101000a900473ffffffffffffffffffffffffffffffffffffffff16908060020160149054906101000a900460ff16908060030154908060040154905086565b6000600260009054906101000a900473ffffffffffffffffffffffffffffffffffffffff1673ffffffffffffffffffffffffffffffffffffffff166329851d6b836040518263ffffffff1660e01b8152600401808273ffffffffffffffffffffffffffffffffffffffff1673ffffffffffffffffffffffffffffffffffffffff16815260200191505060206040518083038186803b158015610e1957600080fd5b505afa158015610e2d573d6000803e3d6000fd5b505050506040513d6020811015610e4357600080fd5b81019080805190602001909291905050509050919050565b80600560006101000a81548173ffffffffffffffffffffffffffffffffffffffff021916908373ffffffffffffffffffffffffffffffffffffffff16021790555050565b60606000809054906101000a900473ffffffffffffffffffffffffffffffffffffffff1673ffffffffffffffffffffffffffffffffffffffff166374e10670856040518263ffffffff1660e01b81526004018082815260200191505060206040518083038186803b158015610f1357600080fd5b505afa158015610f27573d6000803e3d6000fd5b505050506040513d6020811015610f3d57600080fd5b8101908080519060200190929190505050610fc0576040517f08c379a00000000000000000000000000000000000000000000000000000000081526004018080602001828103825260168152602001807f4576656e7420646f6573206e6f7420657869737473210000000000000000000081525060200191505060405180910390fd5b6000809054906101000a900473ffffffffffffffffffffffffffffffffffffffff1673ffffffffffffffffffffffffffffffffffffffff16631ff67bcb856040518263ffffffff1660e01b81526004018082815260200191505060206040518083038186803b15801561103257600080fd5b505afa158015611046573d6000803e3d6000fd5b505050506040513d602081101561105c57600080fd5b81019080805190602001909291905050506110c2576040517f08c379a000000000000000000000000000000000000000000000000000000000815260040180806020018281038252602381526020018061249f6023913960400191505060405180910390fd5b81600260009054906101000a900473ffffffffffffffffffffffffffffffffffffffff1673ffffffffffffffffffffffffffffffffffffffff166329851d6b336040518263ffffffff1660e01b8152600401808273ffffffffffffffffffffffffffffffffffffffff1673ffffffffffffffffffffffffffffffffffffffff16815260200191505060206040518083038186803b15801561116257600080fd5b505afa158015611176573d6000803e3d6000fd5b505050506040513d602081101561118c57600080fd5b810190808051906020019092919050505010156111f4576040517f08c379a000000000000000000000000000000000000000000000000000000000815260040180806020018281038252602381526020018061242b6023913960400191505060405180910390fd5b6111ff8433856121f6565b611254576040517f08c379a000000000000000000000000000000000000000000000000000000000815260040180806020018281038252602e815260200180612471602e913960400191505060405180910390fd5b60008060009054906101000a900473ffffffffffffffffffffffffffffffffffffffff1673ffffffffffffffffffffffffffffffffffffffff1663419c0067866040518263ffffffff1660e01b81526004018082815260200191505060206040518083038186803b1580156112c857600080fd5b505afa1580156112dc573d6000803e3d6000fd5b505050506040513d60208110156112f257600080fd5b8101908080519060200190929190505050905060008482029050600954848161131757fe5b04600103600f54820202341015611379576040517f08c379a00000000000000000000000000000000000000000000000000000000081526004018080602001828103825260268152602001806124056026913960400191505060405180910390fd5b6000809054906101000a900473ffffffffffffffffffffffffffffffffffffffff1673ffffffffffffffffffffffffffffffffffffffff1663c37845b287876040518363ffffffff1660e01b81526004018083815260200182815260200192505050600060405180830381600087803b1580156113f557600080fd5b505af1158015611409573d6000803e3d6000fd5b5050505084600b600088815260200190815260200160002060003373ffffffffffffffffffffffffffffffffffffffff1673ffffffffffffffffffffffffffffffffffffffff16815260200190815260200160002060008282540192505081905550600160009054906101000a900473ffffffffffffffffffffffffffffffffffffffff1673ffffffffffffffffffffffffffffffffffffffff1663a1a25f8a33876040518363ffffffff1660e01b8152600401808373ffffffffffffffffffffffffffffffffffffffff1673ffffffffffffffffffffffffffffffffffffffff16815260200182815260200192505050600060405180830381600087803b15801561151457600080fd5b505af1158015611528573d6000803e3d6000fd5b5050505060008060009054906101000a900473ffffffffffffffffffffffffffffffffffffffff1673ffffffffffffffffffffffffffffffffffffffff1663524c15a2886040518263ffffffff1660e01b81526004018082815260200191505060206040518083038186803b1580156115a057600080fd5b505afa1580156115b4573d6000803e3d6000fd5b505050506040513d60208110156115ca57600080fd5b810190808051906020019092919050505090506000600f548302905060095486816115f157fe5b046001038102905060008611156116fb57600260009054906101000a900473ffffffffffffffffffffffffffffffffffffffff1673ffffffffffffffffffffffffffffffffffffffff1663519888e433886040518363ffffffff1660e01b8152600401808373ffffffffffffffffffffffffffffffffffffffff1673ffffffffffffffffffffffffffffffffffffffff16815260200182815260200192505050600060405180830381600087803b1580156116ab57600080fd5b505af11580156116bf573d6000803e3d6000fd5b505050507fb0954dee876a25d82d3a0b3a500c1a677f335882b4dcacbe0fb1c2722f24e2dd866040518082815260200191505060405180910390a15b8173ffffffffffffffffffffffffffffffffffffffff166108fc829081150290604051600060405180830381858888f19350505050158015611741573d6000803e3d6000fd5b506060876040519080825280602002602001820160405280156117735781602001602082028038833980820191505090505b50905060008090505b888110156119785761178c612351565b6040518060c0016040528060065481526020018c81526020013373ffffffffffffffffffffffffffffffffffffffff168152602001600060028111156117ce57fe5b8152602001600081526020016000809054906101000a900473ffffffffffffffffffffffffffffffffffffffff1673ffffffffffffffffffffffffffffffffffffffff166313c726088e6040518263ffffffff1660e01b81526004018082815260200191505060206040518083038186803b15801561184c57600080fd5b505afa158015611860573d6000803e3d6000fd5b505050506040513d602081101561187657600080fd5b8101908080519060200190929190505050815250905080600a60006006548152602001908152602001600020600082015181600001556020820151816001015560408201518160020160006101000a81548173ffffffffffffffffffffffffffffffffffffffff021916908373ffffffffffffffffffffffffffffffffffffffff16021790555060608201518160020160146101000a81548160ff0219169083600281111561192157fe5b02179055506080820151816003015560a0820151816004015590505060065483838151811061194c57fe5b60200260200101818152505060066000815480929190600101919050555050808060010191505061177c565b50600088600c60003373ffffffffffffffffffffffffffffffffffffffff1673ffffffffffffffffffffffffffffffffffffffff1681526020019081526020016000205401905080600c60003373ffffffffffffffffffffffffffffffffffffffff1673ffffffffffffffffffffffffffffffffffffffff16815260200190815260200160002081905550600260009054906101000a900473ffffffffffffffffffffffffffffffffffffffff1673ffffffffffffffffffffffffffffffffffffffff166379c65068338b6040518363ffffffff1660e01b8152600401808373ffffffffffffffffffffffffffffffffffffffff1673ffffffffffffffffffffffffffffffffffffffff16815260200182815260200192505050602060405180830381600087803b158015611aac57600080fd5b505af1158015611ac0573d6000803e3d6000fd5b505050506040513d6020811015611ad657600080fd5b8101908080519060200190929190505050507f72ce3fa302456ba3fbc162dc271f38b4553e48a165af340569d048ea536046016006546040518082815260200191505060405180910390a18196505050505050509392505050565b6000816006548110611bab576040517f08c379a000000000000000000000000000000000000000000000000000000000815260040180806020018281038252601c8152602001807f54686973207469636b657420646f6573206e6f7420657869737473210000000081525060200191505060405180910390fd5b600854600a60008581526020019081526020016000206003015410915050919050565b600c6020528060005260406000206000915090505481565b6000816006548110611c60576040517f08c379a000000000000000000000000000000000000000000000000000000000815260040180806020018281038252601c8152602001807f54686973207469636b657420646f6573206e6f7420657869737473210000000081525060200191505060405180910390fd5b600a600084815260200190815260200160002060020160009054906101000a900473ffffffffffffffffffffffffffffffffffffffff16915050919050565b813373ffffffffffffffffffffffffffffffffffffffff16600a600083815260200190815260200160002060020160009054906101000a900473ffffffffffffffffffffffffffffffffffffffff1673ffffffffffffffffffffffffffffffffffffffff1614611d0e57600080fd5b826006548110611d86576040517f08c379a000000000000000000000000000000000000000000000000000000000815260040180806020018281038252601c8152602001807f54686973207469636b657420646f6573206e6f7420657869737473210000000081525060200191505060405180910390fd5b83426000809054906101000a900473ffffffffffffffffffffffffffffffffffffffff1673ffffffffffffffffffffffffffffffffffffffff166313c72608600a6000858152602001908152602001600020600101546040518263ffffffff1660e01b81526004018082815260200191505060206040518083038186803b158015611e1057600080fd5b505afa158015611e24573d6000803e3d6000fd5b505050506040513d6020811015611e3a57600080fd5b8101908080519060200190929190505050108015611e91575060006002811115611e6057fe5b600a600083815260200190815260200160002060020160149054906101000a900460ff166002811115611e8f57fe5b145b15611f06576002600a600083815260200190815260200160002060020160146101000a81548160ff02191690836002811115611ec957fe5b02179055507f706b79b4efc34ed95c8bf8b872fc91fce8f36a27d805328117a92a2745c89c47816040518082815260200191505060405180910390a15b60006002811115611f1357fe5b600a600083815260200190815260200160002060020160149054906101000a900460ff166002811115611f4257fe5b14611f98576040517f08c379a00000000000000000000000000000000000000000000000000000000081526004018080602001828103825260278152602001806123a96027913960400191505060405180910390fd5b8373ffffffffffffffffffffffffffffffffffffffff163373ffffffffffffffffffffffffffffffffffffffff16141561201d576040517f08c379a000000000000000000000000000000000000000000000000000000000815260040180806020018281038252602381526020018061244e6023913960400191505060405180910390fd5b600854600a6000878152602001908152602001600020600301541061208d576040517f08c379a00000000000000000000000000000000000000000000000000000000081526004018080602001828103825260358152602001806123d06035913960400191505060405180910390fd5b6001600a60008781526020019081526020016000206003016000828254019250508190555083600a600087815260200190815260200160002060020160006101000a81548173ffffffffffffffffffffffffffffffffffffffff021916908373ffffffffffffffffffffffffffffffffffffffff1602179055507fa902abd320123b273c7bd81f1dd9dd97613e06b72d7e32e9704801194efb85e8856040518082815260200191505060405180910390a15050505050565b600e6020528060005260406000206000915090505481565b60008160065481106121d7576040517f08c379a000000000000000000000000000000000000000000000000000000000815260040180806020018281038252601c8152602001807f54686973207469636b657420646f6573206e6f7420657869737473210000000081525060200191505060405180910390fd5b600a600084815260200190815260200160002060010154915050919050565b600080600b600086815260200190815260200160002060008573ffffffffffffffffffffffffffffffffffffffff1673ffffffffffffffffffffffffffffffffffffffff1681526020019081526020016000205490506000600160009054906101000a900473ffffffffffffffffffffffffffffffffffffffff1673ffffffffffffffffffffffffffffffffffffffff1663b5180137866040518263ffffffff1660e01b8152600401808273ffffffffffffffffffffffffffffffffffffffff1673ffffffffffffffffffffffffffffffffffffffff16815260200191505060206040518083038186803b1580156122ed57600080fd5b505afa158015612301573d6000803e3d6000fd5b505050506040513d602081101561231757600080fd5b81019080805190602001909291905050509050806003540184830111156123435760009250505061234a565b6001925050505b9392505050565b6040518060c001604052806000815260200160008152602001600073ffffffffffffffffffffffffffffffffffffffff1681526020016000600281111561239457fe5b81526020016000815260200160008152509056fe54686973207469636b657420686173206265656e2075736564206f7220666f726665697465642154686973207469636b65742773206f776e65727368697020686173206265656e206368616e676564206f6e6365206265666f726521496e73756666696369656e742066756e647320746f206275792074686973207469636b6574215573657220646f6573206e6f7420686176652073756666696369656e7420746f6b656e43616e6e6f74207472616e73666572207469636b657420746f20796f757273656c66215468697320757365722068617320686974207468656972207469636b65742069737375616e6365206c696d6974214576656e74206973206e6f7420616374697665206f7220686173206578706972656421a265627a7a72315820aa6ec891961c7477ef90ed3d9eb8733a19a33ec66916ef51a1da51d507bc0c7e64736f6c63430005110032",
  "source": "pragma solidity ^0.5.0;\r\n\r\nimport \"./Event.sol\";\r\nimport \"./TickToken.sol\";\r\nimport \"./BlockTier.sol\";\r\n\r\ncontract Ticket {\r\n    Event eventContract;\r\n    BlockTier blockTierContract;\r\n    TickToken tokenContract;\r\n    uint256 baseIssuanceLimit;\r\n    address admin = msg.sender;\r\n\r\n    // Market address for verification\r\n    address market = address(0);\r\n\r\n    enum ticketState {\r\n        active,\r\n        used,\r\n        forfeited\r\n    }\r\n\r\n    enum userTier {\r\n        bronze,\r\n        silver,\r\n        gold,\r\n        diamond\r\n    }\r\n\r\n    struct ticket {\r\n        uint256 ticketId;\r\n        uint256 eventId;\r\n        address owner;\r\n        ticketState currState;\r\n        uint256 numberOfOwnershipChanges;\r\n        uint256 expiry;\r\n    }\r\n\r\n    constructor(Event eventContractIn, BlockTier blockTierContractIn, TickToken tokenContractIn, uint256 baseIssuanceLimitIn) public {\r\n        eventContract = eventContractIn;\r\n        blockTierContract = blockTierContractIn;\r\n        tokenContract = tokenContractIn;\r\n        baseIssuanceLimit = baseIssuanceLimitIn;\r\n    }\r\n    \r\n    event ticketIssued(uint256 ticketId);\r\n    event ticketUsed(uint256 ticketId);\r\n    event ticketForfeited(uint256 ticketId);\r\n    event ticketTransfered(uint256 ticketId);\r\n    event tokenRedeemed(uint256 token);\r\n    event debug(string str);\r\n\r\n    uint256 numTickets = 0;\r\n    uint256 numDiscounts = 0;\r\n    uint256 limitOfOwnershipChange = 1;\r\n    uint256 baseDiscount = 200;\r\n    mapping(uint256 => ticket) public tickets;\r\n    mapping(uint256 => mapping(address => uint256)) ticketsIssued; // Event ID => User ID => Number of tickets issued\r\n\r\n    mapping(address => uint256) public noOfTransactions; //Tracking how many transactions each user made\r\n    mapping(address => userTier) public userTiers; //Tracking each user's tier\r\n    mapping(uint256 => uint256) public maxMintLimit; //Maximum ticket minting limit for each tier || NEED TO INITIALIZE!!!\r\n\r\n    uint256 oneEth = 1000000000000000000;\r\n\r\n    modifier adminOnly() {\r\n        require(admin == msg.sender, \"Only admins can run this function!\");\r\n        _;\r\n    }\r\n\r\n    modifier ownerOnly(uint256 ticketId) {\r\n        require(tickets[ticketId].owner == msg.sender);\r\n        _;\r\n    }\r\n\r\n    modifier marketTransferCheck() {\r\n        require(market == msg.sender);\r\n        _;\r\n    }\r\n\r\n    modifier validTicket(uint256 ticketId) {\r\n        require(ticketId < numTickets, \"This ticket does not exists!\");\r\n        _;\r\n    }\r\n\r\n    modifier activeTicket(uint256 ticketId) {\r\n        if (eventContract.getExpiry(tickets[ticketId].eventId) < now && tickets[ticketId].currState == ticketState.active) {\r\n            tickets[ticketId].currState = ticketState.forfeited;\r\n            emit ticketForfeited(ticketId);\r\n        }\r\n        require(\r\n            tickets[ticketId].currState == ticketState.active,\r\n            \"This ticket has been used or forfeited!\"\r\n        );\r\n        _;\r\n    }\r\n\r\n    function issueTickets(\r\n        uint256 eventId,\r\n        uint256 quantity,\r\n        uint256 tokenToBeRedeemed\r\n    ) public payable returns (uint256[] memory) {\r\n        require(eventContract.eventIsValid(eventId), \"Event does not exists!\");\r\n        require(eventContract.eventIsActive(eventId), \"Event is not active or has expired!\");\r\n        //require(tokenToBeRedeemed != 0, \"Token to be redeemed cannot be 0\");\r\n        require(tokenContract.checkCredit(msg.sender) >= tokenToBeRedeemed, \"User does not have sufficient token\");\r\n        require(checkTicketsIssued(eventId, msg.sender, quantity), \"This user has hit their ticket issuance limit!\");\r\n        \r\n        uint256 standardPrice = eventContract.getStandardPrice(eventId);\r\n        uint256 totalPrice = standardPrice * quantity;\r\n        \r\n        require(msg.value >= totalPrice * oneEth * (1 - (tokenToBeRedeemed/baseDiscount)), \"Insufficient funds to buy this ticket!\");\r\n\r\n        // Add supply first to \"reserve\" the tickets; minimize potential shenanigans if multiple users buy tickets at the same time\r\n        eventContract.addSupply(eventId, quantity);\r\n        \r\n        // Records additional tickets that have been issued for this user\r\n        ticketsIssued[eventId][msg.sender]+= quantity;\r\n        blockTierContract.addTicketsBought(msg.sender, quantity);\r\n        \r\n        address payable recipient = address(uint160(eventContract.getOrganizer(eventId)));\r\n\r\n        //trfPrice in wei\r\n        uint256 trfPrice = totalPrice * oneEth;\r\n        trfPrice = trfPrice * (1 - (tokenToBeRedeemed/baseDiscount));\r\n\r\n        if (tokenToBeRedeemed > 0) {\r\n             tokenContract.useToken(msg.sender, tokenToBeRedeemed);\r\n            emit tokenRedeemed(tokenToBeRedeemed);\r\n        }\r\n        \r\n        recipient.transfer(trfPrice);\r\n\r\n        uint256[] memory res = new uint256[](quantity);\r\n\r\n        for(uint i = 0; i < quantity; i++) {\r\n            ticket memory newTicket = ticket(\r\n                numTickets,\r\n                eventId,\r\n                msg.sender,\r\n                ticketState.active,\r\n                0,\r\n                eventContract.getExpiry(eventId)\r\n            );\r\n\r\n            tickets[numTickets] = newTicket;\r\n            res[i] = numTickets;\r\n            numTickets++;\r\n        }\r\n\r\n        // Update the # of transactions of the user\r\n        uint256 totalTransactions = noOfTransactions[msg.sender] + quantity;\r\n        noOfTransactions[msg.sender] = totalTransactions;\r\n        \r\n        // Give tokens (part of loyalty program)\r\n        tokenContract.mintToken(msg.sender, quantity);\r\n\r\n        emit ticketIssued(numTickets);\r\n        // Returns array with ticket IDs of all the tickets that have been issued to the requester\r\n        return res;\r\n    }\r\n\r\n    function transfer(uint256 ticketId, address receiver) public ownerOnly(ticketId) validTicket(ticketId) activeTicket(ticketId) {\r\n        require(msg.sender != receiver, \"Cannot transfer ticket to yourself!\");\r\n        require(tickets[ticketId].numberOfOwnershipChanges < limitOfOwnershipChange, \"This ticket's ownership has been changed once before!\");\r\n\r\n        tickets[ticketId].numberOfOwnershipChanges += 1;\r\n        tickets[ticketId].owner = receiver;\r\n        emit ticketTransfered(ticketId);\r\n    }\r\n\r\n    function useTicket(uint256 ticketId) public validTicket(ticketId) activeTicket(ticketId) {\r\n        tickets[ticketId].currState = ticketState.used;\r\n        emit ticketUsed(ticketId);\r\n    }\r\n\r\n    function marketTransfer(uint256 ticketId, address receiver) public marketTransferCheck() validTicket(ticketId) activeTicket(ticketId) {\r\n        tickets[ticketId].numberOfOwnershipChanges += 1;\r\n        tickets[ticketId].owner = receiver;\r\n    }\r\n\r\n    function getTicketOwner(uint256 ticketId) public view validTicket(ticketId) returns (address) {\r\n        return tickets[ticketId].owner;\r\n    }\r\n\r\n    function checkOwnershipChangeValidity(uint256 ticketId) public view validTicket(ticketId) returns (bool) {\r\n        return tickets[ticketId].numberOfOwnershipChanges < limitOfOwnershipChange;\r\n    }\r\n\r\n    // Sets the market address\r\n    function setMarket(address marketIn) public {\r\n        market = marketIn;\r\n    }\r\n\r\n    function getToken(address user) public view returns (uint256) {\r\n        return tokenContract.checkCredit(user);\r\n    }\r\n    \r\n    function checkTicketsIssued(uint256 eventId, address purchaser, uint256 quantity) public view returns (bool) {\r\n        uint256 currentQuantity = ticketsIssued[eventId][purchaser];\r\n        uint256 additionalLimit = blockTierContract.getAdditionalIssuanceLimit(purchaser);\r\n\r\n        if (currentQuantity + quantity > baseIssuanceLimit + additionalLimit) {\r\n            return false;\r\n        }\r\n\r\n        return true;\r\n    }\r\n\r\n    function getEventId(uint256 ticketId) public view validTicket(ticketId) returns (uint256) {\r\n        return tickets[ticketId].eventId;\r\n    }\r\n}\r\n",
  "sourcePath": "C:\\Users\\PRAWIRA SATYA DARMA\\Documents\\Year4Sem2\\IS4302\\BlockPass\\eth-contracts\\contracts\\Ticket.sol",
  "compiler": {
    "name": "solc",
    "version": "0.5.17+commit.d19bba13.Emscripten.clang"
  },
  "schemaVersion": "3.4.11",
  "updatedAt": "2023-04-08T10:21:53.234Z",
  "networkType": "ethereum",
  "devdoc": {
    "methods": {}
  },
  "userdoc": {
    "methods": {}
  }
}