{
  "contractName": "Ticket",
  "abi": [
    {
      "inputs": [
        {
          "internalType": "contract Event",
          "name": "eventContractIn",
          "type": "address"
        },
        {
          "internalType": "contract BlockTier",
          "name": "blockTierContractIn",
          "type": "address"
        },
        {
          "internalType": "contract TickToken",
          "name": "tokenContractIn",
          "type": "address"
        },
        {
          "internalType": "uint256",
          "name": "baseIssuanceLimitIn",
          "type": "uint256"
        }
      ],
      "payable": false,
      "stateMutability": "nonpayable",
      "type": "constructor"
    },
    {
      "anonymous": false,
      "inputs": [
        {
          "indexed": false,
          "internalType": "string",
          "name": "str",
          "type": "string"
        }
      ],
      "name": "debug",
      "type": "event"
    },
    {
      "anonymous": false,
      "inputs": [
        {
          "indexed": false,
          "internalType": "uint256",
          "name": "ticketId",
          "type": "uint256"
        }
      ],
      "name": "ticketForfeited",
      "type": "event"
    },
    {
      "anonymous": false,
      "inputs": [
        {
          "indexed": false,
          "internalType": "uint256",
          "name": "ticketId",
          "type": "uint256"
        }
      ],
      "name": "ticketIssued",
      "type": "event"
    },
    {
      "anonymous": false,
      "inputs": [
        {
          "indexed": false,
          "internalType": "uint256",
          "name": "ticketId",
          "type": "uint256"
        }
      ],
      "name": "ticketTransfered",
      "type": "event"
    },
    {
      "anonymous": false,
      "inputs": [
        {
          "indexed": false,
          "internalType": "uint256",
          "name": "ticketId",
          "type": "uint256"
        }
      ],
      "name": "ticketUsed",
      "type": "event"
    },
    {
      "anonymous": false,
      "inputs": [
        {
          "indexed": false,
          "internalType": "uint256",
          "name": "token",
          "type": "uint256"
        }
      ],
      "name": "tokenRedeemed",
      "type": "event"
    },
    {
      "constant": true,
      "inputs": [
        {
          "internalType": "uint256",
          "name": "",
          "type": "uint256"
        }
      ],
      "name": "maxMintLimit",
      "outputs": [
        {
          "internalType": "uint256",
          "name": "",
          "type": "uint256"
        }
      ],
      "payable": false,
      "stateMutability": "view",
      "type": "function"
    },
    {
      "constant": true,
      "inputs": [
        {
          "internalType": "address",
          "name": "",
          "type": "address"
        }
      ],
      "name": "noOfTransactions",
      "outputs": [
        {
          "internalType": "uint256",
          "name": "",
          "type": "uint256"
        }
      ],
      "payable": false,
      "stateMutability": "view",
      "type": "function"
    },
    {
      "constant": true,
      "inputs": [
        {
          "internalType": "address",
          "name": "",
          "type": "address"
        },
        {
          "internalType": "uint256",
          "name": "",
          "type": "uint256"
        }
      ],
      "name": "ticketOwned",
      "outputs": [
        {
          "internalType": "uint256",
          "name": "",
          "type": "uint256"
        }
      ],
      "payable": false,
      "stateMutability": "view",
      "type": "function"
    },
    {
      "constant": true,
      "inputs": [
        {
          "internalType": "uint256",
          "name": "",
          "type": "uint256"
        }
      ],
      "name": "tickets",
      "outputs": [
        {
          "internalType": "uint256",
          "name": "ticketId",
          "type": "uint256"
        },
        {
          "internalType": "uint256",
          "name": "eventId",
          "type": "uint256"
        },
        {
          "internalType": "address",
          "name": "owner",
          "type": "address"
        },
        {
          "internalType": "enum Ticket.ticketState",
          "name": "currState",
          "type": "uint8"
        },
        {
          "internalType": "uint256",
          "name": "numberOfOwnershipChanges",
          "type": "uint256"
        }
      ],
      "payable": false,
      "stateMutability": "view",
      "type": "function"
    },
    {
      "constant": false,
      "inputs": [
        {
          "internalType": "uint256",
          "name": "eventId",
          "type": "uint256"
        },
        {
          "internalType": "uint256",
          "name": "quantity",
          "type": "uint256"
        },
        {
          "internalType": "uint256",
          "name": "tokenToBeRedeemed",
          "type": "uint256"
        }
      ],
      "name": "issueTickets",
      "outputs": [
        {
          "internalType": "uint256[]",
          "name": "",
          "type": "uint256[]"
        }
      ],
      "payable": true,
      "stateMutability": "payable",
      "type": "function"
    },
    {
      "constant": false,
      "inputs": [
        {
          "internalType": "uint256",
          "name": "ticketId",
          "type": "uint256"
        },
        {
          "internalType": "address",
          "name": "receiver",
          "type": "address"
        }
      ],
      "name": "transfer",
      "outputs": [],
      "payable": false,
      "stateMutability": "nonpayable",
      "type": "function"
    },
    {
      "constant": false,
      "inputs": [
        {
          "internalType": "uint256",
          "name": "ticketId",
          "type": "uint256"
        }
      ],
      "name": "useTicket",
      "outputs": [],
      "payable": false,
      "stateMutability": "nonpayable",
      "type": "function"
    },
    {
      "constant": false,
      "inputs": [
        {
          "internalType": "uint256",
          "name": "ticketId",
          "type": "uint256"
        },
        {
          "internalType": "address",
          "name": "receiver",
          "type": "address"
        }
      ],
      "name": "marketTransfer",
      "outputs": [],
      "payable": false,
      "stateMutability": "nonpayable",
      "type": "function"
    },
    {
      "constant": true,
      "inputs": [
        {
          "internalType": "uint256",
          "name": "ticketId",
          "type": "uint256"
        }
      ],
      "name": "getTicketOwner",
      "outputs": [
        {
          "internalType": "address",
          "name": "",
          "type": "address"
        }
      ],
      "payable": false,
      "stateMutability": "view",
      "type": "function"
    },
    {
      "constant": true,
      "inputs": [
        {
          "internalType": "uint256",
          "name": "ticketId",
          "type": "uint256"
        }
      ],
      "name": "checkOwnershipChangeValidity",
      "outputs": [
        {
          "internalType": "bool",
          "name": "",
          "type": "bool"
        }
      ],
      "payable": false,
      "stateMutability": "view",
      "type": "function"
    },
    {
      "constant": false,
      "inputs": [
        {
          "internalType": "address",
          "name": "marketIn",
          "type": "address"
        }
      ],
      "name": "setMarket",
      "outputs": [],
      "payable": false,
      "stateMutability": "nonpayable",
      "type": "function"
    },
    {
      "constant": true,
      "inputs": [
        {
          "internalType": "address",
          "name": "user",
          "type": "address"
        }
      ],
      "name": "getToken",
      "outputs": [
        {
          "internalType": "uint256",
          "name": "",
          "type": "uint256"
        }
      ],
      "payable": false,
      "stateMutability": "view",
      "type": "function"
    },
    {
      "constant": true,
      "inputs": [
        {
          "internalType": "uint256",
          "name": "eventId",
          "type": "uint256"
        },
        {
          "internalType": "address",
          "name": "purchaser",
          "type": "address"
        },
        {
          "internalType": "uint256",
          "name": "quantity",
          "type": "uint256"
        }
      ],
      "name": "checkTicketsIssued",
      "outputs": [
        {
          "internalType": "bool",
          "name": "",
          "type": "bool"
        }
      ],
      "payable": false,
      "stateMutability": "view",
      "type": "function"
    },
    {
      "constant": true,
      "inputs": [
        {
          "internalType": "uint256",
          "name": "ticketId",
          "type": "uint256"
        }
      ],
      "name": "getEventId",
      "outputs": [
        {
          "internalType": "uint256",
          "name": "",
          "type": "uint256"
        }
      ],
      "payable": false,
      "stateMutability": "view",
      "type": "function"
    },
    {
      "constant": true,
      "inputs": [],
      "name": "getOwnedTickets",
      "outputs": [
        {
          "internalType": "uint256[]",
          "name": "",
          "type": "uint256[]"
        }
      ],
      "payable": false,
      "stateMutability": "view",
      "type": "function"
    }
  ],
  "bytecode": "0x608060405233600460006101000a81548173ffffffffffffffffffffffffffffffffffffffff021916908373ffffffffffffffffffffffffffffffffffffffff1602179055506000600560006101000a81548173ffffffffffffffffffffffffffffffffffffffff021916908373ffffffffffffffffffffffffffffffffffffffff16021790555060006006556000600755600160085560c8600955670de0b6b3a7640000600f553480156100b357600080fd5b506040516126f53803806126f5833981810160405260808110156100d657600080fd5b8101908080519060200190929190805190602001909291908051906020019092919080519060200190929190505050836000806101000a81548173ffffffffffffffffffffffffffffffffffffffff021916908373ffffffffffffffffffffffffffffffffffffffff16021790555082600160006101000a81548173ffffffffffffffffffffffffffffffffffffffff021916908373ffffffffffffffffffffffffffffffffffffffff16021790555081600260006101000a81548173ffffffffffffffffffffffffffffffffffffffff021916908373ffffffffffffffffffffffffffffffffffffffff1602179055508060038190555050505050612514806101e16000396000f3fe6080604052600436106100e85760003560e01c80638aa5a5311161008a578063b7d15fc411610059578063b7d15fc41461056f578063bae8e1d3146105de578063c3be559b1461062d578063cbce308a1461067c576100e8565b80638aa5a531146103e1578063a9ec343314610434578063ad09340914610499578063b7760c8f14610514576100e8565b806350b44712116100c657806350b44712146101ef57806359770438146102945780636dcea85f146102f957806385f3d5bc1461034a576100e8565b806302541897146100ed57806314f041981461014857806326606448146101b4575b600080fd5b3480156100f957600080fd5b506101466004803603604081101561011057600080fd5b8101908080359060200190929190803573ffffffffffffffffffffffffffffffffffffffff1690602001909291905050506106f9565b005b34801561015457600080fd5b5061015d610a5d565b6040518080602001828103825283818151815260200191508051906020019060200280838360005b838110156101a0578082015181840152602081019050610185565b505050509050019250505060405180910390f35b3480156101c057600080fd5b506101ed600480360360208110156101d757600080fd5b8101908080359060200190929190505050610af2565b005b3480156101fb57600080fd5b506102286004803603602081101561021257600080fd5b8101908080359060200190929190505050610df0565b604051808681526020018581526020018473ffffffffffffffffffffffffffffffffffffffff1673ffffffffffffffffffffffffffffffffffffffff16815260200183600281111561027657fe5b60ff1681526020018281526020019550505050505060405180910390f35b3480156102a057600080fd5b506102e3600480360360208110156102b757600080fd5b81019080803573ffffffffffffffffffffffffffffffffffffffff169060200190929190505050610e53565b6040518082815260200191505060405180910390f35b34801561030557600080fd5b506103486004803603602081101561031c57600080fd5b81019080803573ffffffffffffffffffffffffffffffffffffffff169060200190929190505050610f36565b005b61038a6004803603606081101561036057600080fd5b81019080803590602001909291908035906020019092919080359060200190929190505050610f7a565b6040518080602001828103825283818151815260200191508051906020019060200280838360005b838110156103cd5780820151818401526020810190506103b2565b505050509050019250505060405180910390f35b3480156103ed57600080fd5b5061041a6004803603602081101561040457600080fd5b8101908080359060200190929190505050611b4e565b604051808215151515815260200191505060405180910390f35b34801561044057600080fd5b506104836004803603602081101561045757600080fd5b81019080803573ffffffffffffffffffffffffffffffffffffffff169060200190929190505050611beb565b6040518082815260200191505060405180910390f35b3480156104a557600080fd5b506104d2600480360360208110156104bc57600080fd5b8101908080359060200190929190505050611c03565b604051808273ffffffffffffffffffffffffffffffffffffffff1673ffffffffffffffffffffffffffffffffffffffff16815260200191505060405180910390f35b34801561052057600080fd5b5061056d6004803603604081101561053757600080fd5b8101908080359060200190929190803573ffffffffffffffffffffffffffffffffffffffff169060200190929190505050611cbc565b005b34801561057b57600080fd5b506105c86004803603604081101561059257600080fd5b81019080803573ffffffffffffffffffffffffffffffffffffffff16906020019092919080359060200190929190505050612162565b6040518082815260200191505060405180910390f35b3480156105ea57600080fd5b506106176004803603602081101561060157600080fd5b8101908080359060200190929190505050612190565b6040518082815260200191505060405180910390f35b34801561063957600080fd5b506106666004803603602081101561065057600080fd5b81019080803590602001909291905050506121a8565b6040518082815260200191505060405180910390f35b34801561068857600080fd5b506106df6004803603606081101561069f57600080fd5b8101908080359060200190929190803573ffffffffffffffffffffffffffffffffffffffff16906020019092919080359060200190929190505050612241565b604051808215151515815260200191505060405180910390f35b3373ffffffffffffffffffffffffffffffffffffffff16600560009054906101000a900473ffffffffffffffffffffffffffffffffffffffff1673ffffffffffffffffffffffffffffffffffffffff161461075357600080fd5b8160065481106107cb576040517f08c379a000000000000000000000000000000000000000000000000000000000815260040180806020018281038252601c8152602001807f54686973207469636b657420646f6573206e6f7420657869737473210000000081525060200191505060405180910390fd5b82426000809054906101000a900473ffffffffffffffffffffffffffffffffffffffff1673ffffffffffffffffffffffffffffffffffffffff166313c72608600a6000858152602001908152602001600020600101546040518263ffffffff1660e01b81526004018082815260200191505060206040518083038186803b15801561085557600080fd5b505afa158015610869573d6000803e3d6000fd5b505050506040513d602081101561087f57600080fd5b81019080805190602001909291905050501080156108d65750600060028111156108a557fe5b600a600083815260200190815260200160002060020160149054906101000a900460ff1660028111156108d457fe5b145b1561094b576002600a600083815260200190815260200160002060020160146101000a81548160ff0219169083600281111561090e57fe5b02179055507f706b79b4efc34ed95c8bf8b872fc91fce8f36a27d805328117a92a2745c89c47816040518082815260200191505060405180910390a15b6000600281111561095857fe5b600a600083815260200190815260200160002060020160149054906101000a900460ff16600281111561098757fe5b146109dd576040517f08c379a00000000000000000000000000000000000000000000000000000000081526004018080602001828103825260278152602001806123ed6027913960400191505060405180910390fd5b6001600a60008681526020019081526020016000206003016000828254019250508190555082600a600086815260200190815260200160002060020160006101000a81548173ffffffffffffffffffffffffffffffffffffffff021916908373ffffffffffffffffffffffffffffffffffffffff16021790555050505050565b6060600c60003373ffffffffffffffffffffffffffffffffffffffff1673ffffffffffffffffffffffffffffffffffffffff168152602001908152602001600020805480602002602001604051908101604052809291908181526020018280548015610ae857602002820191906000526020600020905b815481526020019060010190808311610ad4575b5050505050905090565b806006548110610b6a576040517f08c379a000000000000000000000000000000000000000000000000000000000815260040180806020018281038252601c8152602001807f54686973207469636b657420646f6573206e6f7420657869737473210000000081525060200191505060405180910390fd5b81426000809054906101000a900473ffffffffffffffffffffffffffffffffffffffff1673ffffffffffffffffffffffffffffffffffffffff166313c72608600a6000858152602001908152602001600020600101546040518263ffffffff1660e01b81526004018082815260200191505060206040518083038186803b158015610bf457600080fd5b505afa158015610c08573d6000803e3d6000fd5b505050506040513d6020811015610c1e57600080fd5b8101908080519060200190929190505050108015610c75575060006002811115610c4457fe5b600a600083815260200190815260200160002060020160149054906101000a900460ff166002811115610c7357fe5b145b15610cea576002600a600083815260200190815260200160002060020160146101000a81548160ff02191690836002811115610cad57fe5b02179055507f706b79b4efc34ed95c8bf8b872fc91fce8f36a27d805328117a92a2745c89c47816040518082815260200191505060405180910390a15b60006002811115610cf757fe5b600a600083815260200190815260200160002060020160149054906101000a900460ff166002811115610d2657fe5b14610d7c576040517f08c379a00000000000000000000000000000000000000000000000000000000081526004018080602001828103825260278152602001806123ed6027913960400191505060405180910390fd5b6001600a600085815260200190815260200160002060020160146101000a81548160ff02191690836002811115610daf57fe5b02179055507f642b5f9b9ffd8c37a03b8059ad4e457d78385d2e9c3ec411c9bd699f7cc979ed836040518082815260200191505060405180910390a1505050565b600a6020528060005260406000206000915090508060000154908060010154908060020160009054906101000a900473ffffffffffffffffffffffffffffffffffffffff16908060020160149054906101000a900460ff16908060030154905085565b6000600260009054906101000a900473ffffffffffffffffffffffffffffffffffffffff1673ffffffffffffffffffffffffffffffffffffffff166329851d6b836040518263ffffffff1660e01b8152600401808273ffffffffffffffffffffffffffffffffffffffff1673ffffffffffffffffffffffffffffffffffffffff16815260200191505060206040518083038186803b158015610ef457600080fd5b505afa158015610f08573d6000803e3d6000fd5b505050506040513d6020811015610f1e57600080fd5b81019080805190602001909291905050509050919050565b80600560006101000a81548173ffffffffffffffffffffffffffffffffffffffff021916908373ffffffffffffffffffffffffffffffffffffffff16021790555050565b60606000809054906101000a900473ffffffffffffffffffffffffffffffffffffffff1673ffffffffffffffffffffffffffffffffffffffff166374e10670856040518263ffffffff1660e01b81526004018082815260200191505060206040518083038186803b158015610fee57600080fd5b505afa158015611002573d6000803e3d6000fd5b505050506040513d602081101561101857600080fd5b810190808051906020019092919050505061109b576040517f08c379a00000000000000000000000000000000000000000000000000000000081526004018080602001828103825260168152602001807f4576656e7420646f6573206e6f7420657869737473210000000000000000000081525060200191505060405180910390fd5b6000809054906101000a900473ffffffffffffffffffffffffffffffffffffffff1673ffffffffffffffffffffffffffffffffffffffff16631ff67bcb856040518263ffffffff1660e01b81526004018082815260200191505060206040518083038186803b15801561110d57600080fd5b505afa158015611121573d6000803e3d6000fd5b505050506040513d602081101561113757600080fd5b810190808051906020019092919050505061119d576040517f08c379a00000000000000000000000000000000000000000000000000000000081526004018080602001828103825260238152602001806124bd6023913960400191505060405180910390fd5b81600260009054906101000a900473ffffffffffffffffffffffffffffffffffffffff1673ffffffffffffffffffffffffffffffffffffffff166329851d6b336040518263ffffffff1660e01b8152600401808273ffffffffffffffffffffffffffffffffffffffff1673ffffffffffffffffffffffffffffffffffffffff16815260200191505060206040518083038186803b15801561123d57600080fd5b505afa158015611251573d6000803e3d6000fd5b505050506040513d602081101561126757600080fd5b810190808051906020019092919050505010156112cf576040517f08c379a00000000000000000000000000000000000000000000000000000000081526004018080602001828103825260238152602001806124496023913960400191505060405180910390fd5b6112da843385612241565b61132f576040517f08c379a000000000000000000000000000000000000000000000000000000000815260040180806020018281038252602e81526020018061248f602e913960400191505060405180910390fd5b60008060009054906101000a900473ffffffffffffffffffffffffffffffffffffffff1673ffffffffffffffffffffffffffffffffffffffff1663419c0067866040518263ffffffff1660e01b81526004018082815260200191505060206040518083038186803b1580156113a357600080fd5b505afa1580156113b7573d6000803e3d6000fd5b505050506040513d60208110156113cd57600080fd5b81019080805190602001909291905050509050600084820290506000809054906101000a900473ffffffffffffffffffffffffffffffffffffffff1673ffffffffffffffffffffffffffffffffffffffff1663c37845b287876040518363ffffffff1660e01b81526004018083815260200182815260200192505050600060405180830381600087803b15801561146357600080fd5b505af1158015611477573d6000803e3d6000fd5b5050505084600b600088815260200190815260200160002060003373ffffffffffffffffffffffffffffffffffffffff1673ffffffffffffffffffffffffffffffffffffffff16815260200190815260200160002060008282540192505081905550600160009054906101000a900473ffffffffffffffffffffffffffffffffffffffff1673ffffffffffffffffffffffffffffffffffffffff1663a1a25f8a33876040518363ffffffff1660e01b8152600401808373ffffffffffffffffffffffffffffffffffffffff1673ffffffffffffffffffffffffffffffffffffffff16815260200182815260200192505050600060405180830381600087803b15801561158257600080fd5b505af1158015611596573d6000803e3d6000fd5b5050505060008060009054906101000a900473ffffffffffffffffffffffffffffffffffffffff1673ffffffffffffffffffffffffffffffffffffffff1663524c15a2886040518263ffffffff1660e01b81526004018082815260200191505060206040518083038186803b15801561160e57600080fd5b505afa158015611622573d6000803e3d6000fd5b505050506040513d602081101561163857600080fd5b810190808051906020019092919050505090506000600f5483029050600954868161165f57fe5b0460010381029050600086111561176957600260009054906101000a900473ffffffffffffffffffffffffffffffffffffffff1673ffffffffffffffffffffffffffffffffffffffff1663519888e433886040518363ffffffff1660e01b8152600401808373ffffffffffffffffffffffffffffffffffffffff1673ffffffffffffffffffffffffffffffffffffffff16815260200182815260200192505050600060405180830381600087803b15801561171957600080fd5b505af115801561172d573d6000803e3d6000fd5b505050507fb0954dee876a25d82d3a0b3a500c1a677f335882b4dcacbe0fb1c2722f24e2dd866040518082815260200191505060405180910390a15b8173ffffffffffffffffffffffffffffffffffffffff166108fc829081150290604051600060405180830381858888f193505050501580156117af573d6000803e3d6000fd5b506060876040519080825280602002602001820160405280156117e15781602001602082028038833980820191505090505b50905060008090505b88811015611995576117fa61239c565b6040518060a0016040528060065481526020018c81526020013373ffffffffffffffffffffffffffffffffffffffff1681526020016000600281111561183c57fe5b815260200160008152509050600c60003373ffffffffffffffffffffffffffffffffffffffff1673ffffffffffffffffffffffffffffffffffffffff168152602001908152602001600020600654908060018154018082558091505090600182039060005260206000200160009091929091909150555080600a60006006548152602001908152602001600020600082015181600001556020820151816001015560408201518160020160006101000a81548173ffffffffffffffffffffffffffffffffffffffff021916908373ffffffffffffffffffffffffffffffffffffffff16021790555060608201518160020160146101000a81548160ff0219169083600281111561194857fe5b02179055506080820151816003015590505060065483838151811061196957fe5b6020026020010181815250506006600081548092919060010191905055505080806001019150506117ea565b50600088600d60003373ffffffffffffffffffffffffffffffffffffffff1673ffffffffffffffffffffffffffffffffffffffff1681526020019081526020016000205401905080600d60003373ffffffffffffffffffffffffffffffffffffffff1673ffffffffffffffffffffffffffffffffffffffff16815260200190815260200160002081905550600260009054906101000a900473ffffffffffffffffffffffffffffffffffffffff1673ffffffffffffffffffffffffffffffffffffffff166379c65068338b6040518363ffffffff1660e01b8152600401808373ffffffffffffffffffffffffffffffffffffffff1673ffffffffffffffffffffffffffffffffffffffff16815260200182815260200192505050602060405180830381600087803b158015611ac957600080fd5b505af1158015611add573d6000803e3d6000fd5b505050506040513d6020811015611af357600080fd5b8101908080519060200190929190505050507f72ce3fa302456ba3fbc162dc271f38b4553e48a165af340569d048ea536046016006546040518082815260200191505060405180910390a18196505050505050509392505050565b6000816006548110611bc8576040517f08c379a000000000000000000000000000000000000000000000000000000000815260040180806020018281038252601c8152602001807f54686973207469636b657420646f6573206e6f7420657869737473210000000081525060200191505060405180910390fd5b600854600a60008581526020019081526020016000206003015410915050919050565b600d6020528060005260406000206000915090505481565b6000816006548110611c7d576040517f08c379a000000000000000000000000000000000000000000000000000000000815260040180806020018281038252601c8152602001807f54686973207469636b657420646f6573206e6f7420657869737473210000000081525060200191505060405180910390fd5b600a600084815260200190815260200160002060020160009054906101000a900473ffffffffffffffffffffffffffffffffffffffff16915050919050565b813373ffffffffffffffffffffffffffffffffffffffff16600a600083815260200190815260200160002060020160009054906101000a900473ffffffffffffffffffffffffffffffffffffffff1673ffffffffffffffffffffffffffffffffffffffff1614611d2b57600080fd5b826006548110611da3576040517f08c379a000000000000000000000000000000000000000000000000000000000815260040180806020018281038252601c8152602001807f54686973207469636b657420646f6573206e6f7420657869737473210000000081525060200191505060405180910390fd5b83426000809054906101000a900473ffffffffffffffffffffffffffffffffffffffff1673ffffffffffffffffffffffffffffffffffffffff166313c72608600a6000858152602001908152602001600020600101546040518263ffffffff1660e01b81526004018082815260200191505060206040518083038186803b158015611e2d57600080fd5b505afa158015611e41573d6000803e3d6000fd5b505050506040513d6020811015611e5757600080fd5b8101908080519060200190929190505050108015611eae575060006002811115611e7d57fe5b600a600083815260200190815260200160002060020160149054906101000a900460ff166002811115611eac57fe5b145b15611f23576002600a600083815260200190815260200160002060020160146101000a81548160ff02191690836002811115611ee657fe5b02179055507f706b79b4efc34ed95c8bf8b872fc91fce8f36a27d805328117a92a2745c89c47816040518082815260200191505060405180910390a15b60006002811115611f3057fe5b600a600083815260200190815260200160002060020160149054906101000a900460ff166002811115611f5f57fe5b14611fb5576040517f08c379a00000000000000000000000000000000000000000000000000000000081526004018080602001828103825260278152602001806123ed6027913960400191505060405180910390fd5b8373ffffffffffffffffffffffffffffffffffffffff163373ffffffffffffffffffffffffffffffffffffffff16141561203a576040517f08c379a000000000000000000000000000000000000000000000000000000000815260040180806020018281038252602381526020018061246c6023913960400191505060405180910390fd5b600854600a600087815260200190815260200160002060030154106120aa576040517f08c379a00000000000000000000000000000000000000000000000000000000081526004018080602001828103825260358152602001806124146035913960400191505060405180910390fd5b6001600a60008781526020019081526020016000206003016000828254019250508190555083600a600087815260200190815260200160002060020160006101000a81548173ffffffffffffffffffffffffffffffffffffffff021916908373ffffffffffffffffffffffffffffffffffffffff1602179055507fa902abd320123b273c7bd81f1dd9dd97613e06b72d7e32e9704801194efb85e8856040518082815260200191505060405180910390a15050505050565b600c602052816000526040600020818154811061217b57fe5b90600052602060002001600091509150505481565b600e6020528060005260406000206000915090505481565b6000816006548110612222576040517f08c379a000000000000000000000000000000000000000000000000000000000815260040180806020018281038252601c8152602001807f54686973207469636b657420646f6573206e6f7420657869737473210000000081525060200191505060405180910390fd5b600a600084815260200190815260200160002060010154915050919050565b600080600b600086815260200190815260200160002060008573ffffffffffffffffffffffffffffffffffffffff1673ffffffffffffffffffffffffffffffffffffffff1681526020019081526020016000205490506000600160009054906101000a900473ffffffffffffffffffffffffffffffffffffffff1673ffffffffffffffffffffffffffffffffffffffff1663b5180137866040518263ffffffff1660e01b8152600401808273ffffffffffffffffffffffffffffffffffffffff1673ffffffffffffffffffffffffffffffffffffffff16815260200191505060206040518083038186803b15801561233857600080fd5b505afa15801561234c573d6000803e3d6000fd5b505050506040513d602081101561236257600080fd5b810190808051906020019092919050505090508060035401848301111561238e57600092505050612395565b6001925050505b9392505050565b6040518060a001604052806000815260200160008152602001600073ffffffffffffffffffffffffffffffffffffffff168152602001600060028111156123df57fe5b815260200160008152509056fe54686973207469636b657420686173206265656e2075736564206f7220666f726665697465642154686973207469636b65742773206f776e65727368697020686173206265656e206368616e676564206f6e6365206265666f7265215573657220646f6573206e6f7420686176652073756666696369656e7420746f6b656e43616e6e6f74207472616e73666572207469636b657420746f20796f757273656c66215468697320757365722068617320686974207468656972207469636b65742069737375616e6365206c696d6974214576656e74206973206e6f7420616374697665206f7220686173206578706972656421a265627a7a72315820defa7861074e38ff8d02417d8d00eb42a5516132980ec0feee065069aff768db64736f6c63430005110032",
  "source": "pragma solidity ^0.5.0;\r\n\r\nimport \"./Event.sol\";\r\nimport \"./TickToken.sol\";\r\nimport \"./BlockTier.sol\";\r\n\r\n/* \r\n    This contract encapsulates the full ticket lifecycle.\r\n\r\n    Flow:\r\n    1. User waits until an event has been created and activated\r\n    2. User buys the ticket for that event using the issueTicket() function, initially the state of the ticket is 'active'\r\n    3. User presents the ticket at the venue, after which the ticket's state will be set to 'used'\r\n    4. If the user does not attend the event, the ticket will be set as 'forfeited'\r\n\r\n    There is a max number of ticket that any user can buy. This is set to 2 by default. The number can be increased through the\r\n    BlockTier loyalty program. Users can also redeem TickTokens to get discounts for their ticket purchases.\r\n\r\n    A ticket can only change its ownership once - regardless of whether it changes through a direct ticket transfer or through\r\n    a transaction in the secondary market.\r\n*/\r\ncontract Ticket {\r\n    Event eventContract;\r\n    BlockTier blockTierContract;\r\n    TickToken tokenContract;\r\n    uint256 baseIssuanceLimit;\r\n    address admin = msg.sender;\r\n\r\n    // Market address for verification\r\n    address market = address(0);\r\n\r\n    enum ticketState {\r\n        active,\r\n        used,\r\n        forfeited\r\n    }\r\n\r\n    struct ticket {\r\n        uint256 ticketId;\r\n        uint256 eventId;\r\n        address owner;\r\n        ticketState currState;\r\n        uint256 numberOfOwnershipChanges;\r\n    }\r\n\r\n    constructor(Event eventContractIn, BlockTier blockTierContractIn, TickToken tokenContractIn, uint256 baseIssuanceLimitIn) public {\r\n        eventContract = eventContractIn;\r\n        blockTierContract = blockTierContractIn;\r\n        tokenContract = tokenContractIn;\r\n        baseIssuanceLimit = baseIssuanceLimitIn;\r\n    }\r\n    \r\n    event ticketIssued(uint256 ticketId);\r\n    event ticketUsed(uint256 ticketId);\r\n    event ticketForfeited(uint256 ticketId);\r\n    event ticketTransfered(uint256 ticketId);\r\n    event tokenRedeemed(uint256 token);\r\n    event debug(string str);\r\n\r\n    uint256 numTickets = 0;\r\n    uint256 numDiscounts = 0;\r\n    uint256 limitOfOwnershipChange = 1;\r\n\r\n    /* \r\n        The standard exchange rate for the TickTokens = 1/200 = 0.005 = 0.5%\r\n        In other words, one TickToken can be redeemed for a 0.5% discount on any tickets purchase\r\n    */\r\n    uint256 baseDiscount = 200;\r\n\r\n    mapping(uint256 => ticket) public tickets;\r\n    mapping(uint256 => mapping(address => uint256)) ticketsIssued; // Event ID => User ID => Number of tickets issued\r\n    mapping(address => uint256[]) public ticketOwned; // Ticket owned for each address\r\n    mapping(address => uint256) public noOfTransactions; //Tracking how many transactions each user made\r\n    mapping(uint256 => uint256) public maxMintLimit; //Maximum ticket minting limit for each tier || NEED TO INITIALIZE!!!\r\n\r\n    uint256 oneEth = 1000000000000000000;\r\n\r\n    modifier adminOnly() {\r\n        require(admin == msg.sender, \"Only admins can run this function!\");\r\n        _;\r\n    }\r\n\r\n    modifier ownerOnly(uint256 ticketId) {\r\n        require(tickets[ticketId].owner == msg.sender);\r\n        _;\r\n    }\r\n\r\n    modifier marketTransferCheck() {\r\n        require(market == msg.sender);\r\n        _;\r\n    }\r\n\r\n    modifier validTicket(uint256 ticketId) {\r\n        require(ticketId < numTickets, \"This ticket does not exists!\");\r\n        _;\r\n    }\r\n\r\n    modifier activeTicket(uint256 ticketId) {\r\n        if (eventContract.getExpiry(tickets[ticketId].eventId) < now && tickets[ticketId].currState == ticketState.active) {\r\n            tickets[ticketId].currState = ticketState.forfeited;\r\n            emit ticketForfeited(ticketId);\r\n        }\r\n        require(\r\n            tickets[ticketId].currState == ticketState.active,\r\n            \"This ticket has been used or forfeited!\"\r\n        );\r\n        _;\r\n    }\r\n\r\n    function issueTickets(\r\n        uint256 eventId,\r\n        uint256 quantity,\r\n        uint256 tokenToBeRedeemed\r\n    ) public payable returns (uint256[] memory) {\r\n        require(eventContract.eventIsValid(eventId), \"Event does not exists!\");\r\n        require(eventContract.eventIsActive(eventId), \"Event is not active or has expired!\");\r\n        //require(tokenToBeRedeemed != 0, \"Token to be redeemed cannot be 0\");\r\n        require(tokenContract.checkCredit(msg.sender) >= tokenToBeRedeemed, \"User does not have sufficient token\");\r\n        require(checkTicketsIssued(eventId, msg.sender, quantity), \"This user has hit their ticket issuance limit!\");\r\n        \r\n        uint256 standardPrice = eventContract.getStandardPrice(eventId);\r\n        uint256 totalPrice = standardPrice * quantity;\r\n        \r\n        // require(msg.value >= totalPrice * (1 - (tokenToBeRedeemed/baseDiscount)), \"Insufficient funds to buy this ticket!\");\r\n\r\n        // Add supply first to \"reserve\" the tickets; minimize potential shenanigans if multiple users buy tickets at the same time\r\n        eventContract.addSupply(eventId, quantity);\r\n        \r\n        // Records additional tickets that have been issued for this user\r\n        ticketsIssued[eventId][msg.sender]+= quantity;\r\n        blockTierContract.addTicketsBought(msg.sender, quantity);\r\n        \r\n        address payable recipient = address(uint160(eventContract.getOrganizer(eventId)));\r\n\r\n        //trfPrice in wei\r\n        uint256 trfPrice = totalPrice * oneEth;\r\n        trfPrice = trfPrice * (1 - (tokenToBeRedeemed/baseDiscount));\r\n\r\n        if (tokenToBeRedeemed > 0) {\r\n             tokenContract.useToken(msg.sender, tokenToBeRedeemed);\r\n            emit tokenRedeemed(tokenToBeRedeemed);\r\n        }\r\n        \r\n        recipient.transfer(trfPrice);\r\n\r\n        uint256[] memory res = new uint256[](quantity);\r\n\r\n        for(uint i = 0; i < quantity; i++) {\r\n            ticket memory newTicket = ticket(\r\n                numTickets,\r\n                eventId,\r\n                msg.sender,\r\n                ticketState.active,\r\n                0\r\n            );\r\n            ticketOwned[msg.sender].push(numTickets);\r\n            tickets[numTickets] = newTicket;\r\n            res[i] = numTickets;\r\n            numTickets++;\r\n        }\r\n\r\n        // Update the # of transactions for the user (for loyalty programs)\r\n        uint256 totalTransactions = noOfTransactions[msg.sender] + quantity;\r\n        noOfTransactions[msg.sender] = totalTransactions;\r\n        \r\n        // Give TickTokens (part of loyalty program)\r\n        tokenContract.mintToken(msg.sender, quantity);\r\n\r\n        emit ticketIssued(numTickets);\r\n        // Returns array with ticket IDs of all the tickets that have been issued to the requester\r\n        return res;\r\n    }\r\n\r\n    function transfer(uint256 ticketId, address receiver) public ownerOnly(ticketId) validTicket(ticketId) activeTicket(ticketId) {\r\n        require(msg.sender != receiver, \"Cannot transfer ticket to yourself!\");\r\n        require(tickets[ticketId].numberOfOwnershipChanges < limitOfOwnershipChange, \"This ticket's ownership has been changed once before!\");\r\n\r\n        tickets[ticketId].numberOfOwnershipChanges += 1;\r\n        tickets[ticketId].owner = receiver;\r\n        emit ticketTransfered(ticketId);\r\n    }\r\n\r\n    function useTicket(uint256 ticketId) public validTicket(ticketId) activeTicket(ticketId) {\r\n        tickets[ticketId].currState = ticketState.used;\r\n        emit ticketUsed(ticketId);\r\n    }\r\n\r\n    function marketTransfer(uint256 ticketId, address receiver) public marketTransferCheck() validTicket(ticketId) activeTicket(ticketId) {\r\n        tickets[ticketId].numberOfOwnershipChanges += 1;\r\n        tickets[ticketId].owner = receiver;\r\n    }\r\n\r\n    function getTicketOwner(uint256 ticketId) public view validTicket(ticketId) returns (address) {\r\n        return tickets[ticketId].owner;\r\n    }\r\n\r\n    function checkOwnershipChangeValidity(uint256 ticketId) public view validTicket(ticketId) returns (bool) {\r\n        return tickets[ticketId].numberOfOwnershipChanges < limitOfOwnershipChange;\r\n    }\r\n\r\n    // Sets the address of the secondary market\r\n    function setMarket(address marketIn) public {\r\n        market = marketIn;\r\n    }\r\n\r\n    function getToken(address user) public view returns (uint256) {\r\n        return tokenContract.checkCredit(user);\r\n    }\r\n    \r\n    function checkTicketsIssued(uint256 eventId, address purchaser, uint256 quantity) public view returns (bool) {\r\n        uint256 currentQuantity = ticketsIssued[eventId][purchaser];\r\n        uint256 additionalLimit = blockTierContract.getAdditionalIssuanceLimit(purchaser);\r\n\r\n        if (currentQuantity + quantity > baseIssuanceLimit + additionalLimit) {\r\n            return false;\r\n        }\r\n\r\n        return true;\r\n    }\r\n\r\n    function getEventId(uint256 ticketId) public view validTicket(ticketId) returns (uint256) {\r\n        return tickets[ticketId].eventId;\r\n    }\r\n\r\n    function getOwnedTickets() public view returns (uint256[] memory) {\r\n        return ticketOwned[msg.sender];\r\n    }\r\n}\r\n",
  "sourcePath": "C:\\NUS\\IS4302\\BlockPass\\eth-contracts\\contracts\\Ticket.sol",
  "compiler": {
    "name": "solc",
    "version": "0.5.17+commit.d19bba13.Emscripten.clang"
  },
  "schemaVersion": "3.4.11",
  "updatedAt": "2023-04-14T11:30:39.818Z",
  "networkType": "ethereum",
  "devdoc": {
    "methods": {}
  },
  "userdoc": {
    "methods": {}
  }
}