{
  "contractName": "TickToken",
  "abi": [
    {
      "inputs": [],
      "payable": false,
      "stateMutability": "nonpayable",
      "type": "constructor"
    },
    {
      "anonymous": false,
      "inputs": [
        {
          "indexed": false,
          "internalType": "uint256",
          "name": "amt",
          "type": "uint256"
        }
      ],
      "name": "tokenUsed",
      "type": "event"
    },
    {
      "constant": true,
      "inputs": [
        {
          "internalType": "address",
          "name": "",
          "type": "address"
        }
      ],
      "name": "balances",
      "outputs": [
        {
          "internalType": "uint256",
          "name": "",
          "type": "uint256"
        }
      ],
      "payable": false,
      "stateMutability": "view",
      "type": "function"
    },
    {
      "constant": false,
      "inputs": [
        {
          "internalType": "address",
          "name": "recipient",
          "type": "address"
        },
        {
          "internalType": "uint256",
          "name": "amt",
          "type": "uint256"
        }
      ],
      "name": "mintToken",
      "outputs": [
        {
          "internalType": "uint256",
          "name": "",
          "type": "uint256"
        }
      ],
      "payable": false,
      "stateMutability": "nonpayable",
      "type": "function"
    },
    {
      "constant": true,
      "inputs": [
        {
          "internalType": "address",
          "name": "ad",
          "type": "address"
        }
      ],
      "name": "checkCredit",
      "outputs": [
        {
          "internalType": "uint256",
          "name": "",
          "type": "uint256"
        }
      ],
      "payable": false,
      "stateMutability": "view",
      "type": "function"
    },
    {
      "constant": false,
      "inputs": [
        {
          "internalType": "address",
          "name": "sender",
          "type": "address"
        },
        {
          "internalType": "uint256",
          "name": "amt",
          "type": "uint256"
        }
      ],
      "name": "useToken",
      "outputs": [],
      "payable": false,
      "stateMutability": "nonpayable",
      "type": "function"
    }
  ],
  "bytecode": "0x608060405234801561001057600080fd5b50336000806101000a81548173ffffffffffffffffffffffffffffffffffffffff021916908373ffffffffffffffffffffffffffffffffffffffff1602179055506103a5806100606000396000f3fe608060405234801561001057600080fd5b506004361061004c5760003560e01c806327e235e31461005157806329851d6b146100a9578063519888e41461010157806379c650681461014f575b600080fd5b6100936004803603602081101561006757600080fd5b81019080803573ffffffffffffffffffffffffffffffffffffffff1690602001909291905050506101b1565b6040518082815260200191505060405180910390f35b6100eb600480360360208110156100bf57600080fd5b81019080803573ffffffffffffffffffffffffffffffffffffffff1690602001909291905050506101c9565b6040518082815260200191505060405180910390f35b61014d6004803603604081101561011757600080fd5b81019080803573ffffffffffffffffffffffffffffffffffffffff16906020019092919080359060200190929190505050610217565b005b61019b6004803603604081101561016557600080fd5b81019080803573ffffffffffffffffffffffffffffffffffffffff169060200190929190803590602001909291905050506102e0565b6040518082815260200191505060405180910390f35b60016020528060005260406000206000915090505481565b600080600160008473ffffffffffffffffffffffffffffffffffffffff1673ffffffffffffffffffffffffffffffffffffffff16815260200190815260200160002054905080915050919050565b6000600160008473ffffffffffffffffffffffffffffffffffffffff1673ffffffffffffffffffffffffffffffffffffffff168152602001908152602001600020549050818103905080600160008573ffffffffffffffffffffffffffffffffffffffff1673ffffffffffffffffffffffffffffffffffffffff168152602001908152602001600020819055507fc8eb449e558caf40baa29d1b8cf0969551f0f5e57a0d47198edb48d638621115826040518082815260200191505060405180910390a1505050565b600081600160008573ffffffffffffffffffffffffffffffffffffffff1673ffffffffffffffffffffffffffffffffffffffff1681526020019081526020016000205401600160008573ffffffffffffffffffffffffffffffffffffffff1673ffffffffffffffffffffffffffffffffffffffff168152602001908152602001600020819055508190509291505056fea265627a7a72315820fd237937bb9ead256cb8a9b17bc1a73bca41d5f6f2243f552f3cf2073d37330364736f6c63430005110032",
  "source": "pragma solidity ^0.5.0;\r\n\r\n/* \r\n    TickToken is one of two components that make up the loyalty program.\r\n    A token is rewarded to users for every ticket they buy.\r\n    Users can redeem tokens to get discounts for ticket purchases.\r\n\r\n    The default exchange rate for a TickToken is 0.005; see the Ticket.sol contract for more details.\r\n\r\n    A TickToken has an unidirectional flow - it can be created and given through\r\n    ticket purchases, but it cannot be exchanged directly into ETH.\r\n*/\r\ncontract TickToken {\r\n    address owner;\r\n\r\n    mapping(address => uint256) public balances;\r\n    event tokenUsed(uint256 amt);\r\n\r\n    constructor() public {\r\n        owner = msg.sender;\r\n    }\r\n\r\n    function mintToken(address recipient, uint256 amt) public returns (uint256) {\r\n        balances[recipient] = balances[recipient] + amt;\r\n        return amt;\r\n    }\r\n\r\n    function checkCredit(address ad) public view returns (uint256) {\r\n        uint256 credit = balances[ad];\r\n        return credit;\r\n    }\r\n\r\n    function useToken(address sender, uint256 amt) public {\r\n        uint256 senderBalance = balances[sender];\r\n        senderBalance -= amt;\r\n        balances[sender] = senderBalance;\r\n        emit tokenUsed(amt);\r\n    }\r\n}\r\n",
  "sourcePath": "C:\\Users\\Kenny H\\Documents\\NUS\\Year 4\\Semester 2\\IS4302\\BlockPass\\eth-contracts\\contracts\\TickToken.sol",
  "compiler": {
    "name": "solc",
    "version": "0.5.17+commit.d19bba13.Emscripten.clang"
  },
  "schemaVersion": "3.4.11",
  "updatedAt": "2023-04-09T11:19:41.502Z",
  "devdoc": {
    "methods": {}
  },
  "userdoc": {
    "methods": {}
  }
}