{
  "contractName": "Ticket",
  "abi": [
    {
      "inputs": [
        {
          "internalType": "contract Event",
          "name": "eventContractIn",
          "type": "address"
        },
        {
          "internalType": "contract BlockTier",
          "name": "blockTierContractIn",
          "type": "address"
        },
        {
          "internalType": "contract TickToken",
          "name": "tokenContractIn",
          "type": "address"
        },
        {
          "internalType": "uint256",
          "name": "baseIssuanceLimitIn",
          "type": "uint256"
        }
      ],
      "payable": false,
      "stateMutability": "nonpayable",
      "type": "constructor"
    },
    {
      "anonymous": false,
      "inputs": [
        {
          "indexed": false,
          "internalType": "string",
          "name": "str",
          "type": "string"
        }
      ],
      "name": "debug",
      "type": "event"
    },
    {
      "anonymous": false,
      "inputs": [
        {
          "indexed": false,
          "internalType": "uint256",
          "name": "ticketId",
          "type": "uint256"
        }
      ],
      "name": "ticketExpired",
      "type": "event"
    },
    {
      "anonymous": false,
      "inputs": [
        {
          "indexed": false,
          "internalType": "uint256",
          "name": "ticketId",
          "type": "uint256"
        }
      ],
      "name": "ticketIssued",
      "type": "event"
    },
    {
      "anonymous": false,
      "inputs": [
        {
          "indexed": false,
          "internalType": "uint256",
          "name": "ticketId",
          "type": "uint256"
        }
      ],
      "name": "ticketTransfered",
      "type": "event"
    },
    {
      "anonymous": false,
      "inputs": [
        {
          "indexed": false,
          "internalType": "uint256",
          "name": "token",
          "type": "uint256"
        }
      ],
      "name": "tokenRedeemed",
      "type": "event"
    },
    {
      "constant": true,
      "inputs": [
        {
          "internalType": "uint256",
          "name": "",
          "type": "uint256"
        }
      ],
      "name": "maxMintLimit",
      "outputs": [
        {
          "internalType": "uint256",
          "name": "",
          "type": "uint256"
        }
      ],
      "payable": false,
      "stateMutability": "view",
      "type": "function"
    },
    {
      "constant": true,
      "inputs": [
        {
          "internalType": "address",
          "name": "",
          "type": "address"
        }
      ],
      "name": "noOfTransactions",
      "outputs": [
        {
          "internalType": "uint256",
          "name": "",
          "type": "uint256"
        }
      ],
      "payable": false,
      "stateMutability": "view",
      "type": "function"
    },
    {
      "constant": true,
      "inputs": [
        {
          "internalType": "uint256",
          "name": "",
          "type": "uint256"
        }
      ],
      "name": "tickets",
      "outputs": [
        {
          "internalType": "uint256",
          "name": "ticketId",
          "type": "uint256"
        },
        {
          "internalType": "uint256",
          "name": "eventId",
          "type": "uint256"
        },
        {
          "internalType": "address",
          "name": "owner",
          "type": "address"
        },
        {
          "internalType": "enum Ticket.ticketState",
          "name": "currState",
          "type": "uint8"
        },
        {
          "internalType": "uint256",
          "name": "numberOfOwnershipChanges",
          "type": "uint256"
        },
        {
          "internalType": "uint256",
          "name": "expiry",
          "type": "uint256"
        }
      ],
      "payable": false,
      "stateMutability": "view",
      "type": "function"
    },
    {
      "constant": true,
      "inputs": [
        {
          "internalType": "address",
          "name": "",
          "type": "address"
        }
      ],
      "name": "userTiers",
      "outputs": [
        {
          "internalType": "enum Ticket.userTier",
          "name": "",
          "type": "uint8"
        }
      ],
      "payable": false,
      "stateMutability": "view",
      "type": "function"
    },
    {
      "constant": false,
      "inputs": [
        {
          "internalType": "uint256",
          "name": "eventId",
          "type": "uint256"
        },
        {
          "internalType": "uint256",
          "name": "quantity",
          "type": "uint256"
        },
        {
          "internalType": "bool",
          "name": "redeem",
          "type": "bool"
        },
        {
          "internalType": "uint256",
          "name": "tokenToBeRedeemed",
          "type": "uint256"
        }
      ],
      "name": "issueTickets",
      "outputs": [
        {
          "internalType": "uint256[]",
          "name": "",
          "type": "uint256[]"
        }
      ],
      "payable": true,
      "stateMutability": "payable",
      "type": "function"
    },
    {
      "constant": false,
      "inputs": [
        {
          "internalType": "uint256",
          "name": "ticketId",
          "type": "uint256"
        },
        {
          "internalType": "address",
          "name": "receiver",
          "type": "address"
        }
      ],
      "name": "transfer",
      "outputs": [],
      "payable": false,
      "stateMutability": "nonpayable",
      "type": "function"
    },
    {
      "constant": false,
      "inputs": [
        {
          "internalType": "uint256",
          "name": "ticketId",
          "type": "uint256"
        }
      ],
      "name": "useTicket",
      "outputs": [],
      "payable": false,
      "stateMutability": "nonpayable",
      "type": "function"
    },
    {
      "constant": false,
      "inputs": [
        {
          "internalType": "uint256",
          "name": "ticketId",
          "type": "uint256"
        },
        {
          "internalType": "address",
          "name": "receiver",
          "type": "address"
        }
      ],
      "name": "marketTransfer",
      "outputs": [],
      "payable": false,
      "stateMutability": "nonpayable",
      "type": "function"
    },
    {
      "constant": true,
      "inputs": [
        {
          "internalType": "uint256",
          "name": "ticketId",
          "type": "uint256"
        }
      ],
      "name": "getTicketOwner",
      "outputs": [
        {
          "internalType": "address",
          "name": "",
          "type": "address"
        }
      ],
      "payable": false,
      "stateMutability": "view",
      "type": "function"
    },
    {
      "constant": true,
      "inputs": [
        {
          "internalType": "uint256",
          "name": "ticketId",
          "type": "uint256"
        }
      ],
      "name": "checkOwnershipChangeValidity",
      "outputs": [
        {
          "internalType": "bool",
          "name": "",
          "type": "bool"
        }
      ],
      "payable": false,
      "stateMutability": "view",
      "type": "function"
    },
    {
      "constant": false,
      "inputs": [
        {
          "internalType": "address",
          "name": "marketIn",
          "type": "address"
        }
      ],
      "name": "setMarket",
      "outputs": [],
      "payable": false,
      "stateMutability": "nonpayable",
      "type": "function"
    },
    {
      "constant": true,
      "inputs": [
        {
          "internalType": "address",
          "name": "user",
          "type": "address"
        }
      ],
      "name": "getToken",
      "outputs": [
        {
          "internalType": "uint256",
          "name": "",
          "type": "uint256"
        }
      ],
      "payable": false,
      "stateMutability": "view",
      "type": "function"
    },
    {
      "constant": true,
      "inputs": [
        {
          "internalType": "uint256",
          "name": "eventId",
          "type": "uint256"
        },
        {
          "internalType": "address",
          "name": "purchaser",
          "type": "address"
        },
        {
          "internalType": "uint256",
          "name": "quantity",
          "type": "uint256"
        }
      ],
      "name": "checkTicketsIssued",
      "outputs": [
        {
          "internalType": "bool",
          "name": "",
          "type": "bool"
        }
      ],
      "payable": false,
      "stateMutability": "view",
      "type": "function"
    }
  ],
  "bytecode": "0x608060405233600460006101000a81548173ffffffffffffffffffffffffffffffffffffffff021916908373ffffffffffffffffffffffffffffffffffffffff1602179055506000600560006101000a81548173ffffffffffffffffffffffffffffffffffffffff021916908373ffffffffffffffffffffffffffffffffffffffff16021790555060006006556000600755600160085560c8600955670de0b6b3a7640000600f553480156100b357600080fd5b5060405161286e38038061286e833981810160405260808110156100d657600080fd5b8101908080519060200190929190805190602001909291908051906020019092919080519060200190929190505050836000806101000a81548173ffffffffffffffffffffffffffffffffffffffff021916908373ffffffffffffffffffffffffffffffffffffffff16021790555082600160006101000a81548173ffffffffffffffffffffffffffffffffffffffff021916908373ffffffffffffffffffffffffffffffffffffffff16021790555081600260006101000a81548173ffffffffffffffffffffffffffffffffffffffff021916908373ffffffffffffffffffffffffffffffffffffffff160217905550806003819055505050505061268d806101e16000396000f3fe6080604052600436106100c25760003560e01c80636dcea85f1161007f578063ad09340911610059578063ad0934091461048d578063b7760c8f14610508578063bae8e1d314610563578063cbce308a146105b2576100c2565b80636dcea85f146103845780638aa5a531146103d5578063a9ec343314610428576100c2565b806302541897146100c75780632108ede31461012257806324063c82146101c5578063266064481461023857806350b4471214610273578063597704381461031f575b600080fd5b3480156100d357600080fd5b50610120600480360360408110156100ea57600080fd5b8101908080359060200190929190803573ffffffffffffffffffffffffffffffffffffffff16906020019092919050505061062f565b005b61016e6004803603608081101561013857600080fd5b8101908080359060200190929190803590602001909291908035151590602001909291908035906020019092919050505061096b565b6040518080602001828103825283818151815260200191508051906020019060200280838360005b838110156101b1578082015181840152602081019050610196565b505050509050019250505060405180910390f35b3480156101d157600080fd5b50610214600480360360208110156101e857600080fd5b81019080803573ffffffffffffffffffffffffffffffffffffffff16906020019092919050505061192a565b6040518082600381111561022457fe5b60ff16815260200191505060405180910390f35b34801561024457600080fd5b506102716004803603602081101561025b57600080fd5b810190808035906020019092919050505061194a565b005b34801561027f57600080fd5b506102ac6004803603602081101561029657600080fd5b8101908080359060200190929190505050611c20565b604051808781526020018681526020018573ffffffffffffffffffffffffffffffffffffffff1673ffffffffffffffffffffffffffffffffffffffff1681526020018460018111156102fa57fe5b60ff168152602001838152602001828152602001965050505050505060405180910390f35b34801561032b57600080fd5b5061036e6004803603602081101561034257600080fd5b81019080803573ffffffffffffffffffffffffffffffffffffffff169060200190929190505050611c89565b6040518082815260200191505060405180910390f35b34801561039057600080fd5b506103d3600480360360208110156103a757600080fd5b81019080803573ffffffffffffffffffffffffffffffffffffffff169060200190929190505050611d6c565b005b3480156103e157600080fd5b5061040e600480360360208110156103f857600080fd5b8101908080359060200190929190505050611db0565b604051808215151515815260200191505060405180910390f35b34801561043457600080fd5b506104776004803603602081101561044b57600080fd5b81019080803573ffffffffffffffffffffffffffffffffffffffff169060200190929190505050611e4d565b6040518082815260200191505060405180910390f35b34801561049957600080fd5b506104c6600480360360208110156104b057600080fd5b8101908080359060200190929190505050611e65565b604051808273ffffffffffffffffffffffffffffffffffffffff1673ffffffffffffffffffffffffffffffffffffffff16815260200191505060405180910390f35b34801561051457600080fd5b506105616004803603604081101561052b57600080fd5b8101908080359060200190929190803573ffffffffffffffffffffffffffffffffffffffff169060200190929190505050611f1e565b005b34801561056f57600080fd5b5061059c6004803603602081101561058657600080fd5b810190808035906020019092919050505061239c565b6040518082815260200191505060405180910390f35b3480156105be57600080fd5b50610615600480360360608110156105d557600080fd5b8101908080359060200190929190803573ffffffffffffffffffffffffffffffffffffffff169060200190929190803590602001909291905050506123b4565b604051808215151515815260200191505060405180910390f35b3373ffffffffffffffffffffffffffffffffffffffff16600560009054906101000a900473ffffffffffffffffffffffffffffffffffffffff1673ffffffffffffffffffffffffffffffffffffffff161461068957600080fd5b816006548110610701576040517f08c379a000000000000000000000000000000000000000000000000000000000815260040180806020018281038252601c8152602001807f54686973207469636b657420646f6573206e6f7420657869737473210000000081525060200191505060405180910390fd5b82426000809054906101000a900473ffffffffffffffffffffffffffffffffffffffff1673ffffffffffffffffffffffffffffffffffffffff166313c72608600a6000858152602001908152602001600020600101546040518263ffffffff1660e01b81526004018082815260200191505060206040518083038186803b15801561078b57600080fd5b505afa15801561079f573d6000803e3d6000fd5b505050506040513d60208110156107b557600080fd5b8101908080519060200190929190505050101561083c576001600a600083815260200190815260200160002060020160146101000a81548160ff021916908360018111156107ff57fe5b02179055507f47c1ce120fbdfd2565cc8cdcca2bfbf45974ca28d015fa5c9ed855a2a5667f19816040518082815260200191505060405180910390a15b6000600181111561084957fe5b600a600083815260200190815260200160002060020160149054906101000a900460ff16600181111561087857fe5b146108eb576040517f08c379a00000000000000000000000000000000000000000000000000000000081526004018080602001828103825260188152602001807f54686973207469636b657420686173206578706972656421000000000000000081525060200191505060405180910390fd5b6001600a60008681526020019081526020016000206003016000828254019250508190555082600a600086815260200190815260200160002060020160006101000a81548173ffffffffffffffffffffffffffffffffffffffff021916908373ffffffffffffffffffffffffffffffffffffffff16021790555050505050565b60606000809054906101000a900473ffffffffffffffffffffffffffffffffffffffff1673ffffffffffffffffffffffffffffffffffffffff166374e10670866040518263ffffffff1660e01b81526004018082815260200191505060206040518083038186803b1580156109df57600080fd5b505afa1580156109f3573d6000803e3d6000fd5b505050506040513d6020811015610a0957600080fd5b8101908080519060200190929190505050610a8c576040517f08c379a00000000000000000000000000000000000000000000000000000000081526004018080602001828103825260168152602001807f4576656e7420646f6573206e6f7420657869737473210000000000000000000081525060200191505060405180910390fd5b6000809054906101000a900473ffffffffffffffffffffffffffffffffffffffff1673ffffffffffffffffffffffffffffffffffffffff16631ff67bcb866040518263ffffffff1660e01b81526004018082815260200191505060206040518083038186803b158015610afe57600080fd5b505afa158015610b12573d6000803e3d6000fd5b505050506040513d6020811015610b2857600080fd5b8101908080519060200190929190505050610b8e576040517f08c379a00000000000000000000000000000000000000000000000000000000081526004018080602001828103825260238152602001806126366023913960400191505060405180910390fd5b821580610ba55750828015610ba4575060008214155b5b610c17576040517f08c379a00000000000000000000000000000000000000000000000000000000081526004018080602001828103825260208152602001807f546f6b656e20746f2062652072656465656d65642063616e6e6f74206265203081525060200191505060405180910390fd5b821580610d065750828015610d05575081600260009054906101000a900473ffffffffffffffffffffffffffffffffffffffff1673ffffffffffffffffffffffffffffffffffffffff166329851d6b336040518263ffffffff1660e01b8152600401808273ffffffffffffffffffffffffffffffffffffffff1673ffffffffffffffffffffffffffffffffffffffff16815260200191505060206040518083038186803b158015610cc757600080fd5b505afa158015610cdb573d6000803e3d6000fd5b505050506040513d6020811015610cf157600080fd5b810190808051906020019092919050505010155b5b610d5b576040517f08c379a00000000000000000000000000000000000000000000000000000000081526004018080602001828103825260238152602001806125c26023913960400191505060405180910390fd5b610d668533866123b4565b610dbb576040517f08c379a000000000000000000000000000000000000000000000000000000000815260040180806020018281038252602e815260200180612608602e913960400191505060405180910390fd5b7f2f50fbfa89e10026c273a59cb3202a86c6c09a4116d874b4ad412c42d90424686040518080602001828103825260078152602001807f726571756972650000000000000000000000000000000000000000000000000081525060200191505060405180910390a160008060009054906101000a900473ffffffffffffffffffffffffffffffffffffffff1673ffffffffffffffffffffffffffffffffffffffff1663419c0067876040518263ffffffff1660e01b81526004018082815260200191505060206040518083038186803b158015610e9757600080fd5b505afa158015610eab573d6000803e3d6000fd5b505050506040513d6020811015610ec157600080fd5b81019080805190602001909291905050509050600085820290507f2f50fbfa89e10026c273a59cb3202a86c6c09a4116d874b4ad412c42d90424686040518080602001828103825260088152602001807f7374616e6461726400000000000000000000000000000000000000000000000081525060200191505060405180910390a1600f548102341015610fa0576040517f08c379a000000000000000000000000000000000000000000000000000000000815260040180806020018281038252602681526020018061259c6026913960400191505060405180910390fd5b6000809054906101000a900473ffffffffffffffffffffffffffffffffffffffff1673ffffffffffffffffffffffffffffffffffffffff1663c37845b288886040518363ffffffff1660e01b81526004018083815260200182815260200192505050600060405180830381600087803b15801561101c57600080fd5b505af1158015611030573d6000803e3d6000fd5b505050507f2f50fbfa89e10026c273a59cb3202a86c6c09a4116d874b4ad412c42d904246860405180806020018281038252600a8152602001807f61646420737570706c790000000000000000000000000000000000000000000081525060200191505060405180910390a185600b600089815260200190815260200160002060003373ffffffffffffffffffffffffffffffffffffffff1673ffffffffffffffffffffffffffffffffffffffff16815260200190815260200160002060008282540192505081905550600160009054906101000a900473ffffffffffffffffffffffffffffffffffffffff1673ffffffffffffffffffffffffffffffffffffffff1663a1a25f8a33886040518363ffffffff1660e01b8152600401808373ffffffffffffffffffffffffffffffffffffffff1673ffffffffffffffffffffffffffffffffffffffff16815260200182815260200192505050600060405180830381600087803b1580156111a357600080fd5b505af11580156111b7573d6000803e3d6000fd5b505050507f2f50fbfa89e10026c273a59cb3202a86c6c09a4116d874b4ad412c42d90424686040518080602001828103825260108152602001807f616464207469636b6574626f756768740000000000000000000000000000000081525060200191505060405180910390a160008060009054906101000a900473ffffffffffffffffffffffffffffffffffffffff1673ffffffffffffffffffffffffffffffffffffffff1663524c15a2896040518263ffffffff1660e01b81526004018082815260200191505060206040518083038186803b15801561129757600080fd5b505afa1580156112ab573d6000803e3d6000fd5b505050506040513d60208110156112c157600080fd5b810190808051906020019092919050505090506000600f548302905086156114235760095486816112ee57fe5b0460010381029050600260009054906101000a900473ffffffffffffffffffffffffffffffffffffffff1673ffffffffffffffffffffffffffffffffffffffff16634aedbd7c3384896040518463ffffffff1660e01b8152600401808473ffffffffffffffffffffffffffffffffffffffff1673ffffffffffffffffffffffffffffffffffffffff1681526020018373ffffffffffffffffffffffffffffffffffffffff1673ffffffffffffffffffffffffffffffffffffffff1681526020018281526020019350505050600060405180830381600087803b1580156113d357600080fd5b505af11580156113e7573d6000803e3d6000fd5b505050507fb0954dee876a25d82d3a0b3a500c1a677f335882b4dcacbe0fb1c2722f24e2dd866040518082815260200191505060405180910390a15b8173ffffffffffffffffffffffffffffffffffffffff166108fc829081150290604051600060405180830381858888f19350505050158015611469573d6000803e3d6000fd5b507f2f50fbfa89e10026c273a59cb3202a86c6c09a4116d874b4ad412c42d90424686040518080602001828103825260088152602001807f7472616e7366657200000000000000000000000000000000000000000000000081525060200191505060405180910390a16060886040519080825280602002602001820160405280156115035781602001602082028038833980820191505090505b50905060008090505b898110156117085761151c61250f565b6040518060c0016040528060065481526020018d81526020013373ffffffffffffffffffffffffffffffffffffffff1681526020016000600181111561155e57fe5b8152602001600081526020016000809054906101000a900473ffffffffffffffffffffffffffffffffffffffff1673ffffffffffffffffffffffffffffffffffffffff166313c726088f6040518263ffffffff1660e01b81526004018082815260200191505060206040518083038186803b1580156115dc57600080fd5b505afa1580156115f0573d6000803e3d6000fd5b505050506040513d602081101561160657600080fd5b8101908080519060200190929190505050815250905080600a60006006548152602001908152602001600020600082015181600001556020820151816001015560408201518160020160006101000a81548173ffffffffffffffffffffffffffffffffffffffff021916908373ffffffffffffffffffffffffffffffffffffffff16021790555060608201518160020160146101000a81548160ff021916908360018111156116b157fe5b02179055506080820151816003015560a082015181600401559050506006548383815181106116dc57fe5b60200260200101818152505060066000815480929190600101919050555050808060010191505061150c565b50600089600c60003373ffffffffffffffffffffffffffffffffffffffff1673ffffffffffffffffffffffffffffffffffffffff1681526020019081526020016000205401905080600c60003373ffffffffffffffffffffffffffffffffffffffff1673ffffffffffffffffffffffffffffffffffffffff168152602001908152602001600020819055507f2f50fbfa89e10026c273a59cb3202a86c6c09a4116d874b4ad412c42d90424686040518080602001828103825260068152602001807f757064617465000000000000000000000000000000000000000000000000000081525060200191505060405180910390a1600260009054906101000a900473ffffffffffffffffffffffffffffffffffffffff1673ffffffffffffffffffffffffffffffffffffffff166379c65068338c6040518363ffffffff1660e01b8152600401808373ffffffffffffffffffffffffffffffffffffffff1673ffffffffffffffffffffffffffffffffffffffff16815260200182815260200192505050602060405180830381600087803b1580156118a457600080fd5b505af11580156118b8573d6000803e3d6000fd5b505050506040513d60208110156118ce57600080fd5b8101908080519060200190929190505050507f72ce3fa302456ba3fbc162dc271f38b4553e48a165af340569d048ea536046016006546040518082815260200191505060405180910390a1819650505050505050949350505050565b600d6020528060005260406000206000915054906101000a900460ff1681565b8060065481106119c2576040517f08c379a000000000000000000000000000000000000000000000000000000000815260040180806020018281038252601c8152602001807f54686973207469636b657420646f6573206e6f7420657869737473210000000081525060200191505060405180910390fd5b81426000809054906101000a900473ffffffffffffffffffffffffffffffffffffffff1673ffffffffffffffffffffffffffffffffffffffff166313c72608600a6000858152602001908152602001600020600101546040518263ffffffff1660e01b81526004018082815260200191505060206040518083038186803b158015611a4c57600080fd5b505afa158015611a60573d6000803e3d6000fd5b505050506040513d6020811015611a7657600080fd5b81019080805190602001909291905050501015611afd576001600a600083815260200190815260200160002060020160146101000a81548160ff02191690836001811115611ac057fe5b02179055507f47c1ce120fbdfd2565cc8cdcca2bfbf45974ca28d015fa5c9ed855a2a5667f19816040518082815260200191505060405180910390a15b60006001811115611b0a57fe5b600a600083815260200190815260200160002060020160149054906101000a900460ff166001811115611b3957fe5b14611bac576040517f08c379a00000000000000000000000000000000000000000000000000000000081526004018080602001828103825260188152602001807f54686973207469636b657420686173206578706972656421000000000000000081525060200191505060405180910390fd5b6001600a600085815260200190815260200160002060020160146101000a81548160ff02191690836001811115611bdf57fe5b02179055507f47c1ce120fbdfd2565cc8cdcca2bfbf45974ca28d015fa5c9ed855a2a5667f19836040518082815260200191505060405180910390a1505050565b600a6020528060005260406000206000915090508060000154908060010154908060020160009054906101000a900473ffffffffffffffffffffffffffffffffffffffff16908060020160149054906101000a900460ff16908060030154908060040154905086565b6000600260009054906101000a900473ffffffffffffffffffffffffffffffffffffffff1673ffffffffffffffffffffffffffffffffffffffff166329851d6b836040518263ffffffff1660e01b8152600401808273ffffffffffffffffffffffffffffffffffffffff1673ffffffffffffffffffffffffffffffffffffffff16815260200191505060206040518083038186803b158015611d2a57600080fd5b505afa158015611d3e573d6000803e3d6000fd5b505050506040513d6020811015611d5457600080fd5b81019080805190602001909291905050509050919050565b80600560006101000a81548173ffffffffffffffffffffffffffffffffffffffff021916908373ffffffffffffffffffffffffffffffffffffffff16021790555050565b6000816006548110611e2a576040517f08c379a000000000000000000000000000000000000000000000000000000000815260040180806020018281038252601c8152602001807f54686973207469636b657420646f6573206e6f7420657869737473210000000081525060200191505060405180910390fd5b600854600a60008581526020019081526020016000206003015410915050919050565b600c6020528060005260406000206000915090505481565b6000816006548110611edf576040517f08c379a000000000000000000000000000000000000000000000000000000000815260040180806020018281038252601c8152602001807f54686973207469636b657420646f6573206e6f7420657869737473210000000081525060200191505060405180910390fd5b600a600084815260200190815260200160002060020160009054906101000a900473ffffffffffffffffffffffffffffffffffffffff16915050919050565b813373ffffffffffffffffffffffffffffffffffffffff16600a600083815260200190815260200160002060020160009054906101000a900473ffffffffffffffffffffffffffffffffffffffff1673ffffffffffffffffffffffffffffffffffffffff1614611f8d57600080fd5b826006548110612005576040517f08c379a000000000000000000000000000000000000000000000000000000000815260040180806020018281038252601c8152602001807f54686973207469636b657420646f6573206e6f7420657869737473210000000081525060200191505060405180910390fd5b83426000809054906101000a900473ffffffffffffffffffffffffffffffffffffffff1673ffffffffffffffffffffffffffffffffffffffff166313c72608600a6000858152602001908152602001600020600101546040518263ffffffff1660e01b81526004018082815260200191505060206040518083038186803b15801561208f57600080fd5b505afa1580156120a3573d6000803e3d6000fd5b505050506040513d60208110156120b957600080fd5b81019080805190602001909291905050501015612140576001600a600083815260200190815260200160002060020160146101000a81548160ff0219169083600181111561210357fe5b02179055507f47c1ce120fbdfd2565cc8cdcca2bfbf45974ca28d015fa5c9ed855a2a5667f19816040518082815260200191505060405180910390a15b6000600181111561214d57fe5b600a600083815260200190815260200160002060020160149054906101000a900460ff16600181111561217c57fe5b146121ef576040517f08c379a00000000000000000000000000000000000000000000000000000000081526004018080602001828103825260188152602001807f54686973207469636b657420686173206578706972656421000000000000000081525060200191505060405180910390fd5b8373ffffffffffffffffffffffffffffffffffffffff163373ffffffffffffffffffffffffffffffffffffffff161415612274576040517f08c379a00000000000000000000000000000000000000000000000000000000081526004018080602001828103825260238152602001806125e56023913960400191505060405180910390fd5b600854600a600087815260200190815260200160002060030154106122e4576040517f08c379a00000000000000000000000000000000000000000000000000000000081526004018080602001828103825260358152602001806125676035913960400191505060405180910390fd5b6001600a60008781526020019081526020016000206003016000828254019250508190555083600a600087815260200190815260200160002060020160006101000a81548173ffffffffffffffffffffffffffffffffffffffff021916908373ffffffffffffffffffffffffffffffffffffffff1602179055507fa902abd320123b273c7bd81f1dd9dd97613e06b72d7e32e9704801194efb85e8856040518082815260200191505060405180910390a15050505050565b600e6020528060005260406000206000915090505481565b600080600b600086815260200190815260200160002060008573ffffffffffffffffffffffffffffffffffffffff1673ffffffffffffffffffffffffffffffffffffffff1681526020019081526020016000205490506000600160009054906101000a900473ffffffffffffffffffffffffffffffffffffffff1673ffffffffffffffffffffffffffffffffffffffff1663b5180137866040518263ffffffff1660e01b8152600401808273ffffffffffffffffffffffffffffffffffffffff1673ffffffffffffffffffffffffffffffffffffffff16815260200191505060206040518083038186803b1580156124ab57600080fd5b505afa1580156124bf573d6000803e3d6000fd5b505050506040513d60208110156124d557600080fd5b810190808051906020019092919050505090508060035401848301111561250157600092505050612508565b6001925050505b9392505050565b6040518060c001604052806000815260200160008152602001600073ffffffffffffffffffffffffffffffffffffffff1681526020016000600181111561255257fe5b81526020016000815260200160008152509056fe54686973207469636b65742773206f776e65727368697020686173206265656e206368616e676564206f6e6365206265666f726521496e73756666696369656e742066756e647320746f206275792074686973207469636b6574215573657220646f6573206e6f7420686176652073756666696369656e7420746f6b656e43616e6e6f74207472616e73666572207469636b657420746f20796f757273656c66215468697320757365722068617320686974207468656972207469636b65742069737375616e6365206c696d6974214576656e74206973206e6f7420616374697665206f7220686173206578706972656421a265627a7a72315820c2bfb6c93c11948d090d453afefcf1a70d7a5e37ceb53d7cbcfd411b0c5b7f5364736f6c63430005110032",
  "source": "pragma solidity ^0.5.0;\r\n\r\nimport \"./Event.sol\";\r\nimport \"./TickToken.sol\";\r\nimport \"./BlockTier.sol\";\r\n\r\ncontract Ticket {\r\n    Event eventContract;\r\n    BlockTier blockTierContract;\r\n    TickToken tokenContract;\r\n    uint256 baseIssuanceLimit;\r\n    address admin = msg.sender;\r\n\r\n    // Market address for verification\r\n    address market = address(0);\r\n\r\n    enum ticketState {\r\n        active,\r\n        expired\r\n    }\r\n\r\n    enum userTier {\r\n        bronze,\r\n        silver,\r\n        gold,\r\n        diamond\r\n    }\r\n\r\n    struct ticket {\r\n        uint256 ticketId;\r\n        uint256 eventId;\r\n        address owner;\r\n        ticketState currState;\r\n        uint256 numberOfOwnershipChanges;\r\n        uint256 expiry;\r\n    }\r\n\r\n    constructor(Event eventContractIn, BlockTier blockTierContractIn, TickToken tokenContractIn, uint256 baseIssuanceLimitIn) public {\r\n        eventContract = eventContractIn;\r\n        blockTierContract = blockTierContractIn;\r\n        tokenContract = tokenContractIn;\r\n        baseIssuanceLimit = baseIssuanceLimitIn;\r\n    }\r\n    \r\n    event ticketIssued(uint256 ticketId);\r\n    event ticketExpired(uint256 ticketId);\r\n    event ticketTransfered(uint256 ticketId);\r\n    event tokenRedeemed(uint256 token);\r\n    event debug(string str);\r\n\r\n    uint256 numTickets = 0;\r\n    uint256 numDiscounts = 0;\r\n    uint256 limitOfOwnershipChange = 1;\r\n    uint256 baseDiscount = 200;\r\n    mapping(uint256 => ticket) public tickets;\r\n    mapping(uint256 => mapping(address => uint256)) ticketsIssued; // Event ID => User ID => Number of tickets issued\r\n\r\n    mapping(address => uint256) public noOfTransactions; //Tracking how many transactions each user made\r\n    mapping(address => userTier) public userTiers; //Tracking each user's tier\r\n    mapping(uint256 => uint256) public maxMintLimit; //Maximum ticket minting limit for each tier || NEED TO INITIALIZE!!!\r\n\r\n    uint256 oneEth = 1000000000000000000;\r\n\r\n    modifier adminOnly() {\r\n        require(admin == msg.sender, \"Only admins can run this function!\");\r\n        _;\r\n    }\r\n\r\n    modifier ownerOnly(uint256 ticketId) {\r\n        require(tickets[ticketId].owner == msg.sender);\r\n        _;\r\n    }\r\n\r\n    modifier marketTransferCheck() {\r\n        require(market == msg.sender);\r\n        _;\r\n    }\r\n\r\n    modifier validTicket(uint256 ticketId) {\r\n        require(ticketId < numTickets, \"This ticket does not exists!\");\r\n        _;\r\n    }\r\n\r\n    modifier activeTicket(uint256 ticketId) {\r\n        if (eventContract.getExpiry(tickets[ticketId].eventId) < now) {\r\n            tickets[ticketId].currState = ticketState.expired;\r\n            emit ticketExpired(ticketId);\r\n        }\r\n        require(\r\n            tickets[ticketId].currState == ticketState.active,\r\n            \"This ticket has expired!\"\r\n        );\r\n        _;\r\n    }\r\n\r\n    function issueTickets(\r\n        uint256 eventId,\r\n        uint256 quantity,\r\n        bool redeem,\r\n        uint256 tokenToBeRedeemed\r\n    ) public payable returns (uint256[] memory) {\r\n        require(eventContract.eventIsValid(eventId), \"Event does not exists!\");\r\n        require(eventContract.eventIsActive(eventId), \"Event is not active or has expired!\");\r\n        require(!redeem || (redeem && tokenToBeRedeemed != 0), \"Token to be redeemed cannot be 0\");\r\n        require(!redeem || (redeem && (tokenContract.checkCredit(msg.sender) >= tokenToBeRedeemed)), \"User does not have sufficient token\");\r\n        require(checkTicketsIssued(eventId, msg.sender, quantity), \"This user has hit their ticket issuance limit!\");\r\n        emit debug(\"require\");\r\n        uint256 standardPrice = eventContract.getStandardPrice(eventId);\r\n        uint256 totalPrice = standardPrice * quantity;\r\n        emit debug(\"standard\");\r\n        require(msg.value >= totalPrice * oneEth, \"Insufficient funds to buy this ticket!\");\r\n\r\n        // Add supply first to \"reserve\" the tickets; minimize potential shenanigans if multiple users buy tickets at the same time\r\n        eventContract.addSupply(eventId, quantity);\r\n        emit debug(\"add supply\");\r\n        // Records additional tickets that have been issued for this user\r\n        ticketsIssued[eventId][msg.sender]+= quantity;\r\n        blockTierContract.addTicketsBought(msg.sender, quantity);\r\n        emit debug(\"add ticketbought\");\r\n        address payable recipient = address(uint160(eventContract.getOrganizer(eventId)));\r\n        uint256 price = totalPrice * oneEth;\r\n        if (redeem) {\r\n            price = price * (1 - (tokenToBeRedeemed/baseDiscount));\r\n            tokenContract.transferCredit(msg.sender, recipient, tokenToBeRedeemed);\r\n            emit tokenRedeemed(tokenToBeRedeemed);\r\n        }\r\n        recipient.transfer(price);\r\n        emit debug(\"transfer\");\r\n        //Commission fee for ticket sales?\r\n\r\n        uint256[] memory res = new uint256[](quantity);\r\n\r\n        for(uint i = 0; i < quantity; i++) {\r\n            ticket memory newTicket = ticket(\r\n                numTickets,\r\n                eventId,\r\n                msg.sender,\r\n                ticketState.active,\r\n                0,\r\n                eventContract.getExpiry(eventId)\r\n            );\r\n\r\n            tickets[numTickets] = newTicket;\r\n            res[i] = numTickets;\r\n            numTickets++;\r\n        }\r\n\r\n        // Update the #transactions of the user\r\n        uint256 totalTransactions = noOfTransactions[msg.sender] + quantity;\r\n        noOfTransactions[msg.sender] = totalTransactions;\r\n        emit debug(\"update\");\r\n        // Give tokens (part of loyalty program)\r\n        tokenContract.mintToken(msg.sender, quantity);\r\n\r\n        emit ticketIssued(numTickets);\r\n        // Returns array with ticket IDs of all the tickets that have been issued to the requester\r\n        return res;\r\n    }\r\n\r\n    function transfer(uint256 ticketId, address receiver) public ownerOnly(ticketId) validTicket(ticketId) activeTicket(ticketId) {\r\n        require(msg.sender != receiver, \"Cannot transfer ticket to yourself!\");\r\n        require(tickets[ticketId].numberOfOwnershipChanges < limitOfOwnershipChange, \"This ticket's ownership has been changed once before!\");\r\n\r\n        tickets[ticketId].numberOfOwnershipChanges += 1;\r\n        tickets[ticketId].owner = receiver;\r\n        emit ticketTransfered(ticketId);\r\n    }\r\n\r\n    function useTicket(uint256 ticketId) public validTicket(ticketId) activeTicket(ticketId) {\r\n        tickets[ticketId].currState = ticketState.expired;\r\n        emit ticketExpired(ticketId);\r\n    }\r\n\r\n    function marketTransfer(uint256 ticketId, address receiver) public marketTransferCheck() validTicket(ticketId) activeTicket(ticketId) {\r\n        tickets[ticketId].numberOfOwnershipChanges += 1;\r\n        tickets[ticketId].owner = receiver;\r\n    }\r\n\r\n    function getTicketOwner(uint256 ticketId) public view validTicket(ticketId) returns (address) {\r\n        return tickets[ticketId].owner;\r\n    }\r\n\r\n    function checkOwnershipChangeValidity(uint256 ticketId) public view validTicket(ticketId) returns (bool) {\r\n        return tickets[ticketId].numberOfOwnershipChanges < limitOfOwnershipChange;\r\n    }\r\n\r\n    // Sets the market address\r\n    function setMarket(address marketIn) public {\r\n        market = marketIn;\r\n    }\r\n\r\n    function getToken(address user) public view returns (uint256) {\r\n        return tokenContract.checkCredit(user);\r\n    }\r\n    \r\n    function checkTicketsIssued(uint256 eventId, address purchaser, uint256 quantity) public view returns (bool) {\r\n        uint256 currentQuantity = ticketsIssued[eventId][purchaser];\r\n        uint256 additionalLimit = blockTierContract.getAdditionalIssuanceLimit(purchaser);\r\n\r\n        if (currentQuantity + quantity > baseIssuanceLimit + additionalLimit) {\r\n            return false;\r\n        }\r\n\r\n        return true;\r\n    }\r\n}\r\n",
  "sourcePath": "C:\\NUS\\IS4302\\BlockPass\\eth-contracts\\contracts\\Ticket.sol",
  "compiler": {
    "name": "solc",
    "version": "0.5.17+commit.d19bba13.Emscripten.clang"
  },
  "schemaVersion": "3.4.11",
  "updatedAt": "2023-04-05T13:41:22.506Z",
  "networkType": "ethereum",
  "devdoc": {
    "methods": {}
  },
  "userdoc": {
    "methods": {}
  }
}