{
  "contractName": "Event",
  "abi": [
    {
      "anonymous": false,
      "inputs": [
        {
          "indexed": false,
          "internalType": "uint256",
          "name": "eventId",
          "type": "uint256"
        }
      ],
      "name": "activated",
      "type": "event"
    },
    {
      "anonymous": false,
      "inputs": [
        {
          "indexed": false,
          "internalType": "uint256",
          "name": "eventId",
          "type": "uint256"
        }
      ],
      "name": "expired",
      "type": "event"
    },
    {
      "constant": true,
      "inputs": [
        {
          "internalType": "uint256",
          "name": "",
          "type": "uint256"
        }
      ],
      "name": "events",
      "outputs": [
        {
          "internalType": "uint256",
          "name": "eventId",
          "type": "uint256"
        },
        {
          "internalType": "string",
          "name": "title",
          "type": "string"
        },
        {
          "internalType": "address",
          "name": "organizer",
          "type": "address"
        },
        {
          "internalType": "uint256",
          "name": "maxTicketSupply",
          "type": "uint256"
        },
        {
          "internalType": "uint256",
          "name": "currTicketSupply",
          "type": "uint256"
        },
        {
          "internalType": "enum Event.eventState",
          "name": "currState",
          "type": "uint8"
        }
      ],
      "payable": false,
      "stateMutability": "view",
      "type": "function"
    },
    {
      "constant": false,
      "inputs": [
        {
          "internalType": "string",
          "name": "title",
          "type": "string"
        },
        {
          "internalType": "uint256",
          "name": "maxTicketSupply",
          "type": "uint256"
        }
      ],
      "name": "add",
      "outputs": [
        {
          "internalType": "uint256",
          "name": "",
          "type": "uint256"
        }
      ],
      "payable": false,
      "stateMutability": "nonpayable",
      "type": "function"
    },
    {
      "constant": false,
      "inputs": [
        {
          "internalType": "uint256",
          "name": "eventId",
          "type": "uint256"
        }
      ],
      "name": "activateEvent",
      "outputs": [],
      "payable": false,
      "stateMutability": "nonpayable",
      "type": "function"
    },
    {
      "constant": false,
      "inputs": [
        {
          "internalType": "uint256",
          "name": "eventId",
          "type": "uint256"
        }
      ],
      "name": "expireEvent",
      "outputs": [],
      "payable": false,
      "stateMutability": "nonpayable",
      "type": "function"
    }
  ],
  "bytecode": "0x60806040526000805534801561001457600080fd5b506108fc806100246000396000f3fe608060405234801561001057600080fd5b506004361061004c5760003560e01c80630b7914301461005157806336555b8514610155578063ce0f0c911461022e578063ebf03feb1461025c575b600080fd5b61007d6004803603602081101561006757600080fd5b810190808035906020019092919050505061028a565b60405180878152602001806020018673ffffffffffffffffffffffffffffffffffffffff1673ffffffffffffffffffffffffffffffffffffffff1681526020018581526020018481526020018360028111156100d557fe5b60ff168152602001828103825287818151815260200191508051906020019080838360005b838110156101155780820151818401526020810190506100fa565b50505050905090810190601f1680156101425780820380516001836020036101000a031916815260200191505b5097505050505050505060405180910390f35b6102186004803603604081101561016b57600080fd5b810190808035906020019064010000000081111561018857600080fd5b82018360208201111561019a57600080fd5b803590602001918460018302840111640100000000831117156101bc57600080fd5b91908080601f016020809104026020016040519081016040528093929190818152602001838380828437600081840152601f19601f8201169050808301925050505050505091929192908035906020019092919050505061038b565b6040518082815260200191505060405180910390f35b61025a6004803603602081101561024457600080fd5b810190808035906020019092919050505061062c565b005b6102886004803603602081101561027257600080fd5b81019080803590602001909291905050506106e7565b005b6001602052806000526040600020600091509050806000015490806001018054600181600116156101000203166002900480601f01602080910402602001604051908101604052809291908181526020018280546001816001161561010002031660029004801561033c5780601f106103115761010080835404028352916020019161033c565b820191906000526020600020905b81548152906001019060200180831161031f57829003601f168201915b5050505050908060020160009054906101000a900473ffffffffffffffffffffffffffffffffffffffff16908060030154908060040154908060050160009054906101000a900460ff16905086565b600060405160200180600001905060405160208183030381529060405280519060200120836040516020018082805190602001908083835b602083106103e657805182526020820191506020810190506020830392506103c3565b6001836020036101000a038019825116818451168082178552505050505050905001915050604051602081830303815290604052805190602001201415610495576040517f08c379a00000000000000000000000000000000000000000000000000000000081526004018080602001828103825260208152602001807f4576656e74207469746c652063616e6e6f74206e6f7420626520656d7074792181525060200191505060405180910390fd5b600082116104ee576040517f08c379a000000000000000000000000000000000000000000000000000000000815260040180806020018281038252602a81526020018061089e602a913960400191505060405180910390fd5b6104f66107a1565b6040518060c0016040528060005481526020018581526020013373ffffffffffffffffffffffffffffffffffffffff168152602001848152602001600081526020016000600281111561054557fe5b81525090508060016000805481526020019081526020016000206000820151816000015560208201518160010190805190602001906105859291906107f8565b5060408201518160020160006101000a81548173ffffffffffffffffffffffffffffffffffffffff021916908373ffffffffffffffffffffffffffffffffffffffff160217905550606082015181600301556080820151816004015560a08201518160050160006101000a81548160ff0219169083600281111561060557fe5b02179055509050506000808154809291906001019190505550806000015191505092915050565b803373ffffffffffffffffffffffffffffffffffffffff166001600083815260200190815260200160002060020160009054906101000a900473ffffffffffffffffffffffffffffffffffffffff1673ffffffffffffffffffffffffffffffffffffffff161461069b57600080fd5b8160005481106106aa57600080fd5b60026001600085815260200190815260200160002060050160006101000a81548160ff021916908360028111156106dd57fe5b0217905550505050565b803373ffffffffffffffffffffffffffffffffffffffff166001600083815260200190815260200160002060020160009054906101000a900473ffffffffffffffffffffffffffffffffffffffff1673ffffffffffffffffffffffffffffffffffffffff161461075657600080fd5b81600054811061076557600080fd5b600180600085815260200190815260200160002060050160006101000a81548160ff0219169083600281111561079757fe5b0217905550505050565b6040518060c001604052806000815260200160608152602001600073ffffffffffffffffffffffffffffffffffffffff1681526020016000815260200160008152602001600060028111156107f257fe5b81525090565b828054600181600116156101000203166002900490600052602060002090601f016020900481019282601f1061083957805160ff1916838001178555610867565b82800160010185558215610867579182015b8281111561086657825182559160200191906001019061084b565b5b5090506108749190610878565b5090565b61089a91905b8082111561089657600081600090555060010161087e565b5090565b9056fe4d6178696d756d207469636b657420737570706c79206d757374206265206d6f7265207468616e203021a265627a7a72315820944a1ce2884107bbeb25ec2f8e79ec7dfe004062acef312a642fab242022d98f64736f6c63430005110032",
  "source": "pragma solidity ^0.5.0;\r\n\r\ncontract Event {\r\n    enum eventState { inactive, active, expired }\r\n\r\n    struct eventStruct {\r\n        uint256 eventId;\r\n        string title;\r\n        address organizer;\r\n        uint256 maxTicketSupply;\r\n        uint256 currTicketSupply;\r\n        eventState currState;\r\n    }\r\n\r\n    event activated (uint256 eventId);\r\n    event expired (uint256 eventId);\r\n\r\n    uint256 numEvent = 0;\r\n    mapping(uint256 => eventStruct) public events;\r\n\r\n     modifier organizerOnly(uint256 eventId) {\r\n        require(events[eventId].organizer == msg.sender);\r\n        _;\r\n    }\r\n\r\n    modifier validEvent(uint256 eventId) {\r\n        require(eventId < numEvent);\r\n        _;\r\n    }\r\n\r\n    function add(\r\n        string memory title,\r\n        uint256 maxTicketSupply\r\n    ) public returns(uint256) {\r\n        require(keccak256(abi.encodePacked(title)) != keccak256(abi.encodePacked(\"\")), \"Event title cannot not be empty!\"); //Workaround for string comparison\r\n        require(maxTicketSupply > 0, \"Maximum ticket supply must be more than 0!\");\r\n\r\n        eventStruct memory newEvent = eventStruct(\r\n            numEvent,\r\n            title,\r\n            msg.sender,\r\n            maxTicketSupply,\r\n            0,\r\n            eventState.inactive\r\n        );\r\n\r\n        events[numEvent] = newEvent;\r\n        numEvent++;\r\n        return newEvent.eventId;\r\n    }\r\n    \r\n    function activateEvent(uint256 eventId) public organizerOnly(eventId) validEvent(eventId) {\r\n        events[eventId].currState = eventState.active;\r\n    }\r\n\r\n    function expireEvent(uint256 eventId) public organizerOnly(eventId) validEvent(eventId) {\r\n        events[eventId].currState = eventState.expired;\r\n    }\r\n}",
  "sourcePath": "C:\\Users\\Kenny H\\Documents\\NUS\\Year 4\\Semester 2\\IS4302\\BlockPass\\eth-contracts\\contracts\\Event.sol",
  "compiler": {
    "name": "solc",
    "version": "0.5.17+commit.d19bba13.Emscripten.clang"
  },
  "schemaVersion": "3.4.11",
  "updatedAt": "2023-03-14T07:27:17.001Z",
  "devdoc": {
    "methods": {}
  },
  "userdoc": {
    "methods": {}
  }
}