{
  "contractName": "Event",
  "abi": [
    {
      "anonymous": false,
      "inputs": [
        {
          "indexed": false,
          "internalType": "uint256",
          "name": "eventId",
          "type": "uint256"
        }
      ],
      "name": "activated",
      "type": "event"
    },
    {
      "anonymous": false,
      "inputs": [
        {
          "indexed": false,
          "internalType": "uint256",
          "name": "eventId",
          "type": "uint256"
        }
      ],
      "name": "expired",
      "type": "event"
    },
    {
      "constant": true,
      "inputs": [
        {
          "internalType": "uint256",
          "name": "",
          "type": "uint256"
        }
      ],
      "name": "events",
      "outputs": [
        {
          "internalType": "uint256",
          "name": "eventId",
          "type": "uint256"
        },
        {
          "internalType": "string",
          "name": "title",
          "type": "string"
        },
        {
          "internalType": "address",
          "name": "organizer",
          "type": "address"
        },
        {
          "internalType": "uint256",
          "name": "maxTicketSupply",
          "type": "uint256"
        },
        {
          "internalType": "uint256",
          "name": "currTicketSupply",
          "type": "uint256"
        },
        {
          "internalType": "enum Event.eventState",
          "name": "currState",
          "type": "uint8"
        }
      ],
      "payable": false,
      "stateMutability": "view",
      "type": "function"
    },
    {
      "constant": false,
      "inputs": [
        {
          "internalType": "string",
          "name": "title",
          "type": "string"
        },
        {
          "internalType": "uint256",
          "name": "maxTicketSupply",
          "type": "uint256"
        }
      ],
      "name": "createEvent",
      "outputs": [
        {
          "internalType": "uint256",
          "name": "",
          "type": "uint256"
        }
      ],
      "payable": false,
      "stateMutability": "nonpayable",
      "type": "function"
    },
    {
      "constant": false,
      "inputs": [
        {
          "internalType": "uint256",
          "name": "eventId",
          "type": "uint256"
        },
        {
          "internalType": "uint256",
          "name": "quantity",
          "type": "uint256"
        }
      ],
      "name": "addSupply",
      "outputs": [],
      "payable": false,
      "stateMutability": "nonpayable",
      "type": "function"
    },
    {
      "constant": true,
      "inputs": [
        {
          "internalType": "uint256",
          "name": "eventId",
          "type": "uint256"
        }
      ],
      "name": "eventIsValid",
      "outputs": [
        {
          "internalType": "bool",
          "name": "",
          "type": "bool"
        }
      ],
      "payable": false,
      "stateMutability": "view",
      "type": "function"
    },
    {
      "constant": true,
      "inputs": [
        {
          "internalType": "uint256",
          "name": "eventId",
          "type": "uint256"
        }
      ],
      "name": "eventIsActive",
      "outputs": [
        {
          "internalType": "bool",
          "name": "",
          "type": "bool"
        }
      ],
      "payable": false,
      "stateMutability": "view",
      "type": "function"
    },
    {
      "constant": false,
      "inputs": [
        {
          "internalType": "uint256",
          "name": "eventId",
          "type": "uint256"
        }
      ],
      "name": "activateEvent",
      "outputs": [],
      "payable": false,
      "stateMutability": "nonpayable",
      "type": "function"
    },
    {
      "constant": false,
      "inputs": [
        {
          "internalType": "uint256",
          "name": "eventId",
          "type": "uint256"
        }
      ],
      "name": "expireEvent",
      "outputs": [],
      "payable": false,
      "stateMutability": "nonpayable",
      "type": "function"
    }
  ],
  "bytecode": "0x6080604052336000806101000a81548173ffffffffffffffffffffffffffffffffffffffff021916908373ffffffffffffffffffffffffffffffffffffffff160217905550600060015534801561005557600080fd5b50610cd7806100656000396000f3fe608060405234801561001057600080fd5b506004361061007d5760003560e01c80639a4d43851161005b5780639a4d438514610212578063c37845b2146102eb578063ce0f0c9114610323578063ebf03feb146103515761007d565b80630b791430146100825780631ff67bcb1461018657806374e10670146101cc575b600080fd5b6100ae6004803603602081101561009857600080fd5b810190808035906020019092919050505061037f565b60405180878152602001806020018673ffffffffffffffffffffffffffffffffffffffff1673ffffffffffffffffffffffffffffffffffffffff16815260200185815260200184815260200183600281111561010657fe5b60ff168152602001828103825287818151815260200191508051906020019080838360005b8381101561014657808201518184015260208101905061012b565b50505050905090810190601f1680156101735780820380516001836020036101000a031916815260200191505b5097505050505050505060405180910390f35b6101b26004803603602081101561019c57600080fd5b8101908080359060200190929190505050610480565b604051808215151515815260200191505060405180910390f35b6101f8600480360360208110156101e257600080fd5b81019080803590602001909291905050506104c6565b604051808215151515815260200191505060405180910390f35b6102d56004803603604081101561022857600080fd5b810190808035906020019064010000000081111561024557600080fd5b82018360208201111561025757600080fd5b8035906020019184600183028401116401000000008311171561027957600080fd5b91908080601f016020809104026020016040519081016040528093929190818152602001838380828437600081840152601f19601f820116905080830192505050505050509192919290803590602001909291905050506104d4565b6040518082815260200191505060405180910390f35b6103216004803603604081101561030157600080fd5b810190808035906020019092919080359060200190929190505050610777565b005b61034f6004803603602081101561033957600080fd5b8101908080359060200190929190505050610845565b005b61037d6004803603602081101561036757600080fd5b8101908080359060200190929190505050610993565b005b6002602052806000526040600020600091509050806000015490806001018054600181600116156101000203166002900480601f0160208091040260200160405190810160405280929190818152602001828054600181600116156101000203166002900480156104315780601f1061040657610100808354040283529160200191610431565b820191906000526020600020905b81548152906001019060200180831161041457829003601f168201915b5050505050908060020160009054906101000a900473ffffffffffffffffffffffffffffffffffffffff16908060030154908060040154908060050160009054906101000a900460ff16905086565b60006001600281111561048f57fe5b6002600084815260200190815260200160002060050160009054906101000a900460ff1660028111156104be57fe5b149050919050565b600060015482109050919050565b600060405160200180600001905060405160208183030381529060405280519060200120836040516020018082805190602001908083835b6020831061052f578051825260208201915060208101905060208303925061050c565b6001836020036101000a0380198251168184511680821785525050505050509050019150506040516020818303038152906040528051906020012014156105de576040517f08c379a00000000000000000000000000000000000000000000000000000000081526004018080602001828103825260208152602001807f4576656e74207469746c652063616e6e6f74206e6f7420626520656d7074792181525060200191505060405180910390fd5b60008211610637576040517f08c379a000000000000000000000000000000000000000000000000000000000815260040180806020018281038252602a815260200180610c3d602a913960400191505060405180910390fd5b61063f610ae2565b6040518060c0016040528060015481526020018581526020013373ffffffffffffffffffffffffffffffffffffffff168152602001848152602001600081526020016000600281111561068e57fe5b8152509050806002600060015481526020019081526020016000206000820151816000015560208201518160010190805190602001906106cf929190610b39565b5060408201518160020160006101000a81548173ffffffffffffffffffffffffffffffffffffffff021916908373ffffffffffffffffffffffffffffffffffffffff160217905550606082015181600301556080820151816004015560a08201518160050160006101000a81548160ff0219169083600281111561074f57fe5b0217905550905050600160008154809291906001019190505550806000015191505092915050565b81600154811061078657600080fd5b600260008481526020019081526020016000206003015482600260008681526020019081526020016000206004015401111561080d576040517f08c379a000000000000000000000000000000000000000000000000000000000815260040180806020018281038252603c815260200180610c67603c913960400191505060405180910390fd5b816002600085815260200190815260200160002060040154016002600085815260200190815260200160002060040181905550505050565b803373ffffffffffffffffffffffffffffffffffffffff166002600083815260200190815260200160002060020160009054906101000a900473ffffffffffffffffffffffffffffffffffffffff1673ffffffffffffffffffffffffffffffffffffffff16146108b457600080fd5b8160015481106108c357600080fd5b82600160028111156108d157fe5b6002600083815260200190815260200160002060050160009054906101000a900460ff16600281111561090057fe5b14610956576040517f08c379a0000000000000000000000000000000000000000000000000000000008152600401808060200182810382526031815260200180610c0c6031913960400191505060405180910390fd5b600280600086815260200190815260200160002060050160006101000a81548160ff0219169083600281111561098857fe5b021790555050505050565b803373ffffffffffffffffffffffffffffffffffffffff166002600083815260200190815260200160002060020160009054906101000a900473ffffffffffffffffffffffffffffffffffffffff1673ffffffffffffffffffffffffffffffffffffffff1614610a0257600080fd5b816001548110610a1157600080fd5b8260006002811115610a1f57fe5b6002600083815260200190815260200160002060050160009054906101000a900460ff166002811115610a4e57fe5b14610aa4576040517f08c379a000000000000000000000000000000000000000000000000000000000815260040180806020018281038252602d815260200180610bdf602d913960400191505060405180910390fd5b60016002600086815260200190815260200160002060050160006101000a81548160ff02191690836002811115610ad757fe5b021790555050505050565b6040518060c001604052806000815260200160608152602001600073ffffffffffffffffffffffffffffffffffffffff168152602001600081526020016000815260200160006002811115610b3357fe5b81525090565b828054600181600116156101000203166002900490600052602060002090601f016020900481019282601f10610b7a57805160ff1916838001178555610ba8565b82800160010185558215610ba8579182015b82811115610ba7578251825591602001919060010190610b8c565b5b509050610bb59190610bb9565b5090565b610bdb91905b80821115610bd7576000816000905550600101610bbf565b5090565b9056fe54686973206576656e7420686173206265656e20616374697661746564206f722068617320657870697265642154686973206576656e7420686173206e6f74206265656e20616374697661746564206f72206861732065787069726564214d6178696d756d207469636b657420737570706c79206d757374206265206d6f7265207468616e2030215468652072657175657374656420616d6f756e74206f66207469636b657420657863656564732074686520617661696c61626c6520737570706c7921a265627a7a723158201ca1051439832dbd3a8a66899189e9dcb0d6a03cf8b8c4462e449623e8e2ccef64736f6c63430005110032",
  "source": "pragma solidity ^0.5.0;\r\n\r\ncontract Event {\r\n    address admin = msg.sender;\r\n\r\n    enum eventState { inactive, active, expired }\r\n\r\n    struct eventStruct {\r\n        uint256 eventId;\r\n        string title;\r\n        address organizer;\r\n        uint256 maxTicketSupply;\r\n        uint256 currTicketSupply;\r\n        eventState currState;\r\n    }\r\n\r\n    event activated (uint256 eventId);\r\n    event expired (uint256 eventId);\r\n\r\n    uint256 numEvents = 0;\r\n    mapping(uint256 => eventStruct) public events;\r\n\r\n    modifier adminOnly() {\r\n        require(admin == msg.sender, \"Only admins can run this function!\");\r\n        _;\r\n    }\r\n\r\n    modifier organizerOnly(uint256 eventId) {\r\n        require(events[eventId].organizer == msg.sender);\r\n        _;\r\n    }\r\n\r\n    modifier validEvent(uint256 eventId) {\r\n        require(eventId < numEvents);\r\n        _;\r\n    }\r\n\r\n    modifier inactiveEvent(uint256 eventId) {\r\n        require(events[eventId].currState == eventState.inactive, \"This event has been activated or has expired!\");\r\n        _;\r\n    }\r\n\r\n    modifier activeEvent(uint256 eventId) {\r\n        require(events[eventId].currState == eventState.active, \"This event has not been activated or has expired!\");\r\n        _;\r\n    }\r\n\r\n    function createEvent(\r\n        string memory title,\r\n        uint256 maxTicketSupply\r\n    ) public returns(uint256) {\r\n        require(keccak256(abi.encodePacked(title)) != keccak256(abi.encodePacked(\"\")), \"Event title cannot not be empty!\"); //Workaround for string comparison\r\n        require(maxTicketSupply > 0, \"Maximum ticket supply must be more than 0!\");\r\n\r\n        eventStruct memory newEvent = eventStruct(\r\n            numEvents,\r\n            title,\r\n            msg.sender,\r\n            maxTicketSupply,\r\n            0,\r\n            eventState.inactive\r\n        );\r\n\r\n        events[numEvents] = newEvent;\r\n        numEvents++;\r\n        return newEvent.eventId;\r\n    }\r\n    \r\n    function addSupply(uint256 eventId, uint256 quantity) public validEvent(eventId) {\r\n        require(events[eventId].currTicketSupply + quantity <= events[eventId].maxTicketSupply, \"The requested amount of ticket exceeds the available supply!\");\r\n        events[eventId].currTicketSupply = events[eventId].currTicketSupply + quantity;\r\n    }\r\n\r\n    function eventIsValid(uint256 eventId) public view returns(bool) {\r\n        return(eventId < numEvents);\r\n    }\r\n\r\n    function eventIsActive(uint256 eventId) public view returns(bool) {\r\n        return(events[eventId].currState == eventState.active);\r\n    }\r\n\r\n    function activateEvent(uint256 eventId) public organizerOnly(eventId) validEvent(eventId) inactiveEvent(eventId) {\r\n        events[eventId].currState = eventState.active;\r\n    }\r\n\r\n    function expireEvent(uint256 eventId) public organizerOnly(eventId) validEvent(eventId) activeEvent(eventId) {\r\n        events[eventId].currState = eventState.expired;\r\n    }\r\n}",
  "sourcePath": "C:\\Users\\Kenny H\\Documents\\NUS\\Year 4\\Semester 2\\IS4302\\BlockPass\\eth-contracts\\contracts\\Event.sol",
  "compiler": {
    "name": "solc",
    "version": "0.5.17+commit.d19bba13.Emscripten.clang"
  },
  "schemaVersion": "3.4.11",
  "updatedAt": "2023-03-16T10:10:55.624Z",
  "devdoc": {
    "methods": {}
  },
  "userdoc": {
    "methods": {}
  }
}