{
  "contractName": "Ticket",
  "abi": [
    {
      "inputs": [
        {
          "internalType": "contract Event",
          "name": "eventContractIn",
          "type": "address"
        }
      ],
      "payable": false,
      "stateMutability": "nonpayable",
      "type": "constructor"
    },
    {
      "anonymous": false,
      "inputs": [
        {
          "indexed": false,
          "internalType": "uint256",
          "name": "ticketId",
          "type": "uint256"
        }
      ],
      "name": "activated",
      "type": "event"
    },
    {
      "anonymous": false,
      "inputs": [
        {
          "indexed": false,
          "internalType": "uint256",
          "name": "ticketId",
          "type": "uint256"
        }
      ],
      "name": "expired",
      "type": "event"
    },
    {
      "constant": true,
      "inputs": [
        {
          "internalType": "uint256",
          "name": "",
          "type": "uint256"
        }
      ],
      "name": "tickets",
      "outputs": [
        {
          "internalType": "uint256",
          "name": "ticketId",
          "type": "uint256"
        },
        {
          "internalType": "uint256",
          "name": "eventId",
          "type": "uint256"
        },
        {
          "internalType": "address",
          "name": "owner",
          "type": "address"
        },
        {
          "internalType": "enum Ticket.ticketState",
          "name": "currState",
          "type": "uint8"
        },
        {
          "internalType": "uint256",
          "name": "numberOfOwnershipChanges",
          "type": "uint256"
        }
      ],
      "payable": false,
      "stateMutability": "view",
      "type": "function"
    },
    {
      "constant": false,
      "inputs": [
        {
          "internalType": "uint256",
          "name": "eventId",
          "type": "uint256"
        },
        {
          "internalType": "uint256",
          "name": "quantity",
          "type": "uint256"
        }
      ],
      "name": "issueTickets",
      "outputs": [
        {
          "internalType": "uint256",
          "name": "",
          "type": "uint256"
        }
      ],
      "payable": false,
      "stateMutability": "nonpayable",
      "type": "function"
    },
    {
      "constant": false,
      "inputs": [
        {
          "internalType": "uint256",
          "name": "ticketId",
          "type": "uint256"
        }
      ],
      "name": "expireTicket",
      "outputs": [],
      "payable": false,
      "stateMutability": "nonpayable",
      "type": "function"
    }
  ],
  "bytecode": "0x608060405233600160006101000a81548173ffffffffffffffffffffffffffffffffffffffff021916908373ffffffffffffffffffffffffffffffffffffffff160217905550600060025534801561005657600080fd5b506040516108853803806108858339818101604052602081101561007957600080fd5b8101908080519060200190929190505050806000806101000a81548173ffffffffffffffffffffffffffffffffffffffff021916908373ffffffffffffffffffffffffffffffffffffffff160217905550506107ab806100da6000396000f3fe608060405234801561001057600080fd5b50600436106100415760003560e01c806326adbc7f1461004657806350b4471214610092578063c90f131b1461012a575b600080fd5b61007c6004803603604081101561005c57600080fd5b810190808035906020019092919080359060200190929190505050610158565b6040518082815260200191505060405180910390f35b6100be600480360360208110156100a857600080fd5b810190808035906020019092919050505061055e565b604051808681526020018581526020018473ffffffffffffffffffffffffffffffffffffffff1673ffffffffffffffffffffffffffffffffffffffff16815260200183600181111561010c57fe5b60ff1681526020018281526020019550505050505060405180910390f35b6101566004803603602081101561014057600080fd5b81019080803590602001909291905050506105c1565b005b60008060009054906101000a900473ffffffffffffffffffffffffffffffffffffffff1673ffffffffffffffffffffffffffffffffffffffff166374e10670846040518263ffffffff1660e01b81526004018082815260200191505060206040518083038186803b1580156101cc57600080fd5b505afa1580156101e0573d6000803e3d6000fd5b505050506040513d60208110156101f657600080fd5b8101908080519060200190929190505050610279576040517f08c379a00000000000000000000000000000000000000000000000000000000081526004018080602001828103825260168152602001807f4576656e7420646f6573206e6f7420657869737473210000000000000000000081525060200191505060405180910390fd5b6000809054906101000a900473ffffffffffffffffffffffffffffffffffffffff1673ffffffffffffffffffffffffffffffffffffffff16631ff67bcb846040518263ffffffff1660e01b81526004018082815260200191505060206040518083038186803b1580156102eb57600080fd5b505afa1580156102ff573d6000803e3d6000fd5b505050506040513d602081101561031557600080fd5b8101908080519060200190929190505050610398576040517f08c379a00000000000000000000000000000000000000000000000000000000081526004018080602001828103825260148152602001807f4576656e74206973206e6f74206163746976652100000000000000000000000081525060200191505060405180910390fd5b6000809054906101000a900473ffffffffffffffffffffffffffffffffffffffff1673ffffffffffffffffffffffffffffffffffffffff1663c37845b284846040518363ffffffff1660e01b81526004018083815260200182815260200192505050600060405180830381600087803b15801561041457600080fd5b505af1158015610428573d6000803e3d6000fd5b5050505060008090508281101561055657610441610726565b6040518060a0016040528060025481526020018681526020013373ffffffffffffffffffffffffffffffffffffffff1681526020016000600181111561048357fe5b81526020016000815250905080600360006002548152602001908152602001600020600082015181600001556020820151816001015560408201518160020160006101000a81548173ffffffffffffffffffffffffffffffffffffffff021916908373ffffffffffffffffffffffffffffffffffffffff16021790555060608201518160020160146101000a81548160ff0219169083600181111561052457fe5b021790555060808201518160030155905050600260008154809291906001019190505550806000015192505050610558565b505b92915050565b60036020528060005260406000206000915090508060000154908060010154908060020160009054906101000a900473ffffffffffffffffffffffffffffffffffffffff16908060020160149054906101000a900460ff16908060030154905085565b806002548110610639576040517f08c379a000000000000000000000000000000000000000000000000000000000815260040180806020018281038252601c8152602001807f54686973207469636b657420646f6573206e6f7420657869737473210000000081525060200191505060405180910390fd5b816000600181111561064757fe5b6003600083815260200190815260200160002060020160149054906101000a900460ff16600181111561067657fe5b146106e9576040517f08c379a00000000000000000000000000000000000000000000000000000000081526004018080602001828103825260188152602001807f54686973207469636b657420686173206578706972656421000000000000000081525060200191505060405180910390fd5b60016003600085815260200190815260200160002060020160146101000a81548160ff0219169083600181111561071c57fe5b0217905550505050565b6040518060a001604052806000815260200160008152602001600073ffffffffffffffffffffffffffffffffffffffff1681526020016000600181111561076957fe5b815260200160008152509056fea265627a7a723158201f0a682c00b2d75607bd68a6c0f02f2608837723404cf2f3652d88e0d301fe7364736f6c63430005110032",
  "source": "pragma solidity ^0.5.0;\r\n\r\nimport \"./Event.sol\";\r\n\r\ncontract Ticket {\r\n    Event eventContract;\r\n    address admin = msg.sender;\r\n\r\n    enum ticketState {\r\n        active,\r\n        expired\r\n    }\r\n\r\n    struct ticket {\r\n        uint256 ticketId;\r\n        uint256 eventId;\r\n        address owner;\r\n        ticketState currState;\r\n        uint256 numberOfOwnershipChanges;\r\n    }\r\n\r\n    constructor(Event eventContractIn) public {\r\n        eventContract = eventContractIn;\r\n    }\r\n\r\n    event activated(uint256 ticketId);\r\n    event expired(uint256 ticketId);\r\n\r\n    uint256 numTickets = 0;\r\n    mapping(uint256 => ticket) public tickets;\r\n\r\n    modifier adminOnly() {\r\n        require(admin == msg.sender, \"Only admins can run this function!\");\r\n        _;\r\n    }\r\n\r\n    modifier validTicket(uint256 ticketId) {\r\n        require(ticketId < numTickets, \"This ticket does not exists!\");\r\n        _;\r\n    }\r\n\r\n    modifier activeTicket(uint256 ticketId) {\r\n        require(\r\n            tickets[ticketId].currState == ticketState.active,\r\n            \"This ticket has expired!\"\r\n        );\r\n        _;\r\n    }\r\n\r\n    function issueTickets(\r\n        uint256 eventId,\r\n        uint256 quantity\r\n    ) public returns (uint256) {\r\n        require(eventContract.eventIsValid(eventId), \"Event does not exists!\");\r\n        require(eventContract.eventIsActive(eventId), \"Event is not active!\");\r\n        \r\n        eventContract.addSupply(eventId, quantity);\r\n\r\n        for (uint i = 0; i < quantity; i++) {\r\n            ticket memory newTicket = ticket(\r\n                numTickets,\r\n                eventId,\r\n                msg.sender,\r\n                ticketState.active,\r\n                0\r\n            );\r\n\r\n            tickets[numTickets] = newTicket;\r\n            numTickets++;\r\n            return newTicket.ticketId;\r\n        }\r\n    }\r\n\r\n    function expireTicket(uint256 ticketId) public validTicket(ticketId) activeTicket(ticketId) {\r\n        tickets[ticketId].currState = ticketState.expired;\r\n    }\r\n}\r\n",
  "sourcePath": "C:\\Users\\Kenny H\\Documents\\NUS\\Year 4\\Semester 2\\IS4302\\BlockPass\\eth-contracts\\contracts\\Ticket.sol",
  "compiler": {
    "name": "solc",
    "version": "0.5.17+commit.d19bba13.Emscripten.clang"
  },
  "schemaVersion": "3.4.11",
  "updatedAt": "2023-03-16T10:01:22.810Z",
  "devdoc": {
    "methods": {}
  },
  "userdoc": {
    "methods": {}
  }
}