{
  "contractName": "Event",
  "abi": [
    {
      "anonymous": false,
      "inputs": [
        {
          "indexed": false,
          "internalType": "uint256",
          "name": "eventId",
          "type": "uint256"
        }
      ],
      "name": "activated",
      "type": "event"
    },
    {
      "anonymous": false,
      "inputs": [
        {
          "indexed": false,
          "internalType": "uint256",
          "name": "eventId",
          "type": "uint256"
        }
      ],
      "name": "addedEvent",
      "type": "event"
    },
    {
      "anonymous": false,
      "inputs": [
        {
          "indexed": false,
          "internalType": "uint256",
          "name": "eventId",
          "type": "uint256"
        }
      ],
      "name": "expired",
      "type": "event"
    },
    {
      "inputs": [
        {
          "internalType": "uint256",
          "name": "",
          "type": "uint256"
        }
      ],
      "name": "events",
      "outputs": [
        {
          "internalType": "uint256",
          "name": "eventId",
          "type": "uint256"
        },
        {
          "internalType": "string",
          "name": "title",
          "type": "string"
        },
        {
          "internalType": "address",
          "name": "organizer",
          "type": "address"
        },
        {
          "internalType": "uint256",
          "name": "maxTicketSupply",
          "type": "uint256"
        },
        {
          "internalType": "uint256",
          "name": "currTicketSupply",
          "type": "uint256"
        },
        {
          "internalType": "enum Event.eventState",
          "name": "currState",
          "type": "uint8"
        }
      ],
      "stateMutability": "view",
      "type": "function",
      "constant": true
    },
    {
      "inputs": [
        {
          "internalType": "string",
          "name": "title",
          "type": "string"
        },
        {
          "internalType": "uint256",
          "name": "maxTicketSupply",
          "type": "uint256"
        }
      ],
      "name": "add",
      "outputs": [
        {
          "internalType": "uint256",
          "name": "",
          "type": "uint256"
        }
      ],
      "stateMutability": "nonpayable",
      "type": "function"
    },
    {
      "inputs": [
        {
          "internalType": "uint256",
          "name": "eventId",
          "type": "uint256"
        }
      ],
      "name": "activateEvent",
      "outputs": [],
      "stateMutability": "nonpayable",
      "type": "function"
    },
    {
      "inputs": [
        {
          "internalType": "uint256",
          "name": "eventId",
          "type": "uint256"
        }
      ],
      "name": "expireEvent",
      "outputs": [],
      "stateMutability": "nonpayable",
      "type": "function"
    },
    {
      "inputs": [],
      "name": "getNumEvent",
      "outputs": [
        {
          "internalType": "uint256",
          "name": "",
          "type": "uint256"
        }
      ],
      "stateMutability": "view",
      "type": "function",
      "constant": true
    }
  ],
  "bytecode": "0x60806040526000805534801561001457600080fd5b50610ede806100246000396000f3fe608060405234801561001057600080fd5b50600436106100575760003560e01c80630b7914301461005c57806336555b8514610091578063bbcc8e89146100c1578063ce0f0c91146100df578063ebf03feb146100fb575b600080fd5b6100766004803603810190610071919061062f565b610117565b604051610088969594939291906107b3565b60405180910390f35b6100ab60048036038101906100a69190610950565b610208565b6040516100b891906109ac565b60405180910390f35b6100c9610459565b6040516100d691906109ac565b60405180910390f35b6100f960048036038101906100f4919061062f565b610462565b005b6101156004803603810190610110919061062f565b610524565b005b6001602052806000526040600020600091509050806000015490806001018054610140906109f6565b80601f016020809104026020016040519081016040528092919081815260200182805461016c906109f6565b80156101b95780601f1061018e576101008083540402835291602001916101b9565b820191906000526020600020905b81548152906001019060200180831161019c57829003601f168201915b5050505050908060020160009054906101000a900473ffffffffffffffffffffffffffffffffffffffff16908060030154908060040154908060050160009054906101000a900460ff16905086565b600060405160200161021990610a58565b60405160208183030381529060405280519060200120836040516020016102409190610a9e565b6040516020818303038152906040528051906020012003610296576040517f08c379a000000000000000000000000000000000000000000000000000000000815260040161028d90610b01565b60405180910390fd5b600082116102d9576040517f08c379a00000000000000000000000000000000000000000000000000000000081526004016102d090610b93565b60405180910390fd5b60006040518060c0016040528060005481526020018581526020013373ffffffffffffffffffffffffffffffffffffffff16815260200184815260200160008152602001600060028111156103315761033061073c565b5b815250905080600160008054815260200190815260200160002060008201518160000155602082015181600101908161036a9190610d5f565b5060408201518160020160006101000a81548173ffffffffffffffffffffffffffffffffffffffff021916908373ffffffffffffffffffffffffffffffffffffffff160217905550606082015181600301556080820151816004015560a08201518160050160006101000a81548160ff021916908360028111156103f1576103f061073c565b5b021790555090505060008081548092919061040b90610e60565b91905055507fc58213ad9af08592f83f5ca8dc5898e0e38d397291558f0e033f2705b9c42e36816000015160405161044391906109ac565b60405180910390a1806000015191505092915050565b60008054905090565b803373ffffffffffffffffffffffffffffffffffffffff166001600083815260200190815260200160002060020160009054906101000a900473ffffffffffffffffffffffffffffffffffffffff1673ffffffffffffffffffffffffffffffffffffffff16146104d157600080fd5b8160005481106104e057600080fd5b60026001600085815260200190815260200160002060050160006101000a81548160ff0219169083600281111561051a5761051961073c565b5b0217905550505050565b803373ffffffffffffffffffffffffffffffffffffffff166001600083815260200190815260200160002060020160009054906101000a900473ffffffffffffffffffffffffffffffffffffffff1673ffffffffffffffffffffffffffffffffffffffff161461059357600080fd5b8160005481106105a257600080fd5b600180600085815260200190815260200160002060050160006101000a81548160ff021916908360028111156105db576105da61073c565b5b0217905550505050565b6000604051905090565b600080fd5b600080fd5b6000819050919050565b61060c816105f9565b811461061757600080fd5b50565b60008135905061062981610603565b92915050565b600060208284031215610645576106446105ef565b5b60006106538482850161061a565b91505092915050565b610665816105f9565b82525050565b600081519050919050565b600082825260208201905092915050565b60005b838110156106a557808201518184015260208101905061068a565b60008484015250505050565b6000601f19601f8301169050919050565b60006106cd8261066b565b6106d78185610676565b93506106e7818560208601610687565b6106f0816106b1565b840191505092915050565b600073ffffffffffffffffffffffffffffffffffffffff82169050919050565b6000610726826106fb565b9050919050565b6107368161071b565b82525050565b7f4e487b7100000000000000000000000000000000000000000000000000000000600052602160045260246000fd5b6003811061077c5761077b61073c565b5b50565b600081905061078d8261076b565b919050565b600061079d8261077f565b9050919050565b6107ad81610792565b82525050565b600060c0820190506107c8600083018961065c565b81810360208301526107da81886106c2565b90506107e9604083018761072d565b6107f6606083018661065c565b610803608083018561065c565b61081060a08301846107a4565b979650505050505050565b600080fd5b600080fd5b7f4e487b7100000000000000000000000000000000000000000000000000000000600052604160045260246000fd5b61085d826106b1565b810181811067ffffffffffffffff8211171561087c5761087b610825565b5b80604052505050565b600061088f6105e5565b905061089b8282610854565b919050565b600067ffffffffffffffff8211156108bb576108ba610825565b5b6108c4826106b1565b9050602081019050919050565b82818337600083830152505050565b60006108f36108ee846108a0565b610885565b90508281526020810184848401111561090f5761090e610820565b5b61091a8482856108d1565b509392505050565b600082601f8301126109375761093661081b565b5b81356109478482602086016108e0565b91505092915050565b60008060408385031215610967576109666105ef565b5b600083013567ffffffffffffffff811115610985576109846105f4565b5b61099185828601610922565b92505060206109a28582860161061a565b9150509250929050565b60006020820190506109c1600083018461065c565b92915050565b7f4e487b7100000000000000000000000000000000000000000000000000000000600052602260045260246000fd5b60006002820490506001821680610a0e57607f821691505b602082108103610a2157610a206109c7565b5b50919050565b600081905092915050565b50565b6000610a42600083610a27565b9150610a4d82610a32565b600082019050919050565b6000610a6382610a35565b9150819050919050565b6000610a788261066b565b610a828185610a27565b9350610a92818560208601610687565b80840191505092915050565b6000610aaa8284610a6d565b915081905092915050565b7f4576656e74207469746c652063616e6e6f74206e6f7420626520656d70747921600082015250565b6000610aeb602083610676565b9150610af682610ab5565b602082019050919050565b60006020820190508181036000830152610b1a81610ade565b9050919050565b7f4d6178696d756d207469636b657420737570706c79206d757374206265206d6f60008201527f7265207468616e20302100000000000000000000000000000000000000000000602082015250565b6000610b7d602a83610676565b9150610b8882610b21565b604082019050919050565b60006020820190508181036000830152610bac81610b70565b9050919050565b60008190508160005260206000209050919050565b60006020601f8301049050919050565b600082821b905092915050565b600060088302610c157fffffffffffffffffffffffffffffffffffffffffffffffffffffffffffffffff82610bd8565b610c1f8683610bd8565b95508019841693508086168417925050509392505050565b6000819050919050565b6000610c5c610c57610c52846105f9565b610c37565b6105f9565b9050919050565b6000819050919050565b610c7683610c41565b610c8a610c8282610c63565b848454610be5565b825550505050565b600090565b610c9f610c92565b610caa818484610c6d565b505050565b5b81811015610cce57610cc3600082610c97565b600181019050610cb0565b5050565b601f821115610d1357610ce481610bb3565b610ced84610bc8565b81016020851015610cfc578190505b610d10610d0885610bc8565b830182610caf565b50505b505050565b600082821c905092915050565b6000610d3660001984600802610d18565b1980831691505092915050565b6000610d4f8383610d25565b9150826002028217905092915050565b610d688261066b565b67ffffffffffffffff811115610d8157610d80610825565b5b610d8b82546109f6565b610d96828285610cd2565b600060209050601f831160018114610dc95760008415610db7578287015190505b610dc18582610d43565b865550610e29565b601f198416610dd786610bb3565b60005b82811015610dff57848901518255600182019150602085019450602081019050610dda565b86831015610e1c5784890151610e18601f891682610d25565b8355505b6001600288020188555050505b505050505050565b7f4e487b7100000000000000000000000000000000000000000000000000000000600052601160045260246000fd5b6000610e6b826105f9565b91507fffffffffffffffffffffffffffffffffffffffffffffffffffffffffffffffff8203610e9d57610e9c610e31565b5b60018201905091905056fea2646970667358221220e2285203c6806463d2fb287ce19638f8d118e8fdab3b8e825e6994bd00a8608d64736f6c63430008130033",
  "immutableReferences": {},
  "source": "// SPDX-License-Identifier: MIT\r\npragma solidity >=0.4.22 <0.9.0;\r\n\r\ncontract Event {\r\n    enum eventState { inactive, active, expired }\r\n\r\n    struct eventStruct {\r\n        uint256 eventId;\r\n        string title;\r\n        address organizer;\r\n        uint256 maxTicketSupply;\r\n        uint256 currTicketSupply;\r\n        eventState currState;\r\n    }\r\n\r\n    event activated (uint256 eventId);\r\n    event expired (uint256 eventId);\r\n    event addedEvent (uint256 eventId);\r\n\r\n    uint256 numEvent = 0;\r\n    mapping(uint256 => eventStruct) public events;\r\n\r\n     modifier organizerOnly(uint256 eventId) {\r\n        require(events[eventId].organizer == msg.sender);\r\n        _;\r\n    }\r\n\r\n    modifier validEvent(uint256 eventId) {\r\n        require(eventId < numEvent);\r\n        _;\r\n    }\r\n\r\n    function add(\r\n        string memory title,\r\n        uint256 maxTicketSupply\r\n    ) public returns(uint256) {\r\n        require(keccak256(abi.encodePacked(title)) != keccak256(abi.encodePacked(\"\")), \"Event title cannot not be empty!\"); //Workaround for string comparison\r\n        require(maxTicketSupply > 0, \"Maximum ticket supply must be more than 0!\");\r\n\r\n        eventStruct memory newEvent = eventStruct(\r\n            numEvent,\r\n            title,\r\n            msg.sender,\r\n            maxTicketSupply,\r\n            0,\r\n            eventState.inactive\r\n        );\r\n\r\n        events[numEvent] = newEvent;\r\n        numEvent++;\r\n        emit addedEvent(newEvent.eventId);\r\n        return newEvent.eventId;\r\n    }\r\n    \r\n    function activateEvent(uint256 eventId) public organizerOnly(eventId) validEvent(eventId) {\r\n        events[eventId].currState = eventState.active;\r\n    }\r\n\r\n    function expireEvent(uint256 eventId) public organizerOnly(eventId) validEvent(eventId) {\r\n        events[eventId].currState = eventState.expired;\r\n    }\r\n\r\n    function getNumEvent() public view returns(uint256) {\r\n        return numEvent;\r\n    }\r\n}",
  "sourcePath": "C:\\Users\\PRAWIRA SATYA DARMA\\Documents\\Year4Sem2\\IS4302\\BlockPass-try\\contracts\\Event.sol",
  "compiler": {
    "name": "solc",
    "version": "0.8.19+commit.7dd6d404.Emscripten.clang"
  },
  "schemaVersion": "3.4.11",
  "updatedAt": "2023-03-26T10:36:30.354Z",
  "networkType": "ethereum",
  "devdoc": {
    "kind": "dev",
    "methods": {},
    "version": 1
  },
  "userdoc": {
    "kind": "user",
    "methods": {},
    "version": 1
  }
}